S01C00004279676765726E477275707065343848323031352E737265634B
S11300000C94B4010C94D1010C94D1010C94D10141
S11300100C94D1010C94D1010C94D1010C94D10114
S11300200C94D1010C94D1010C94D1010C94D10104
S11300300C94D1010C94D1010C94D1010C94D101F4
S11300400C94D1010C94D1010C94D1010C94D101E4
S11300500C94D1010C94D1010C94D1010C94D101D4
S11300600C94D1010C94D1010C94D1010C94D101C4
S1130070000000000000000000065F5F06000000B2
S11300800007070007070000147F7F147F7F140018
S1130090242E6B6B3A120000466630180C66620020
S11300A0307A4F5D377A48000407030000000000EF
S11300B0001C3E63410000000041633E1C00000040
S11300C0082A3E1C1C3E2A0808083E3E0808000078
S11300D000A0E0600000000008080808080800000C
S11300E000006060000000006030180C060301008E
S11300F03E7F594D7F3E000042427F7F40400000DA
S1130100627359496F660000226349497F360000D3
S1130110181C16137F7F1000276745457D390000A2
S11301203C7E4B4979300000036371190F070000CE
S1130130367F49497F360000064F49693F1E00005B
S113014000006C6C0000000000A0EC6C00000000DB
S1130150081C366341000000141414141414000025
S1130160004163361C080000020351590F060000C9
S11301703E7F415D5D1F1E007C7E13137E7C00006C
S1130180417F7F49497F36001C3E63414163220021
S1130190417F7F41637F1C00417F7F495D41630054
S11301A0417F7F491D0103001C3E6341517372006E
S11301B07F7F08087F7F000000417F7F41000000AF
S11301C0307040417F3F0100417F7F081C7763000E
S11301D0417F7F41406070007F7F060C067F7F0077
S11301E07F7F060C187F7F001C3E6341633E1C002A
S11301F0417F7F49090F06001E3F21717F5E000089
S1130200417F7F19396F460026674D597B320000C4
S113021003417F7F410300007F7F40407F7F0000D8
S11302201F3F60603F1F00007F7F3018307F7F00DA
S113023063771C081C776300074F78784F0700002A
S11302406773594D47637100007F7F41410000008F
S11302500103060C183060000041417F7F0000005C
S1130260080C0603060C0800808080808080808053
S11302700000030704000000207454543C7840003C
S1130280413F7F44447C3800387C44446C2800005F
S1130290307848493F7F4000387C54545C18000053
S11302A0487E7F490302000098BCA4A4F87C0400A3
S11302B0417F7F08047C780000447D7D400000007D
S11302C040C484FD7D000000417F7F10386C4400F1
S11302D000417F7F400000007C7C0C180C7C78007F
S11302E07C7C04047C780000387C44447C38000026
S11302F084FCF8A4243C1800183C24A4F8FC8400D2
S1130300447C78441C180000485C54547424000055
S113031000043E7F442400003C7C40403C7C400080
S11303201C3C60603C1C00003C7C6030607C3C00F9
S1130330446C3810386C44009CBCA0A0FC7C0000C9
S11303404C64745C4C64000008083E774141000032
S113035000000077770000004141773E0808000064
S1130360020301030203010011241FBECFEFD4E0F6
S1130370DEBFCDBF13E0A0E0B1E0E0E5F2E202C0F1
S113038005900D92AA32B107D9F723E0AAE2B3E0AF
S113039001C01D92AA34B207E1F70E94C1060C9471
S11303A026110C940000CF93DF93EC010E942307E5
S11303B04FEF50E060E670E080E690E00E940507B1
S11303C04FEF50E060E670E080E790E00E940507A0
S11303D0AE0160EE70E08FE090E00E940507309877
S11303E0DF91CF9108958F929F92AF92BF92CF9257
S11303F0DF92EF92FF920F931F93CF93DF9300D07E
S1130400CDB7DEB75C017B014FEF50E068E070E0F0
S1130410C7010E940507C7010E94DF0683FDFBCFC9
S1130420F50180819181282F2295220F207E298336
S11304309695879596958795969587958A836981EC
S113044070E0C70102960E94EE066A8170E0C7015F
S113045001960E94EE06F50162816F7070E0C7019B
S113046005960E94EE06F50182818823D9F0650184
S1130470F3E0CF0ED11C00E010E0470186E0880EC7
S1130480911CF60161916F0170E0C401800F911F0E
S11304900E94EE060F5F1F4FF501828190E008175E
S11304A019077CF3F0E3EF16F10459F080E4E81641
S11304B0F10451F0E0E5EE16F10451F484E890E023
S11304C005C081E890E002C082E890E00E94000745
S11304D00F900F90DF91CF911F910F91FF90EF90AC
S11304E0DF90CF90BF90AF909F908F900895289BFE
S11304F0FECF8CE290E00E94DF0680FD08C08CE213
S113050090E00E94DF0681FF04C080E7089580E642
S113051008958FEF08957F928F929F92AF92BF922A
S1130520CF92DF92EF92FF920F931F93CF93DF93BB
S1130530CDB7DEB72B970FB6F894DEBF0FBECDBF95
S11305406C010E947702982E082F10E0C8010196D2
S11305500E94DF067C01C80102960E94DF06959581
S1130560879595958795959587959595879595956F
S11305708795EE0CFF1CEE0CFF1CEE0CFF1C5C01BF
S1130580AE28BF28C80105960E94DF068F70782E1A
S1130590B1F08E010C5F1F4F812CCE018095909598
S11305A003967C01E90CF11CC701800F911F0E9486
S11305B0DF06F80181938F0183948710F5CFF0E66D
S11305C09F1621F080E7981651F011C040E050E0EA
S11305D061E070E08CE290E00E94050708C040E012
S11305E050E062E070E08CE290E00E940507BA827D
S11305F0A9827B828BE0FE013196D60101900D9297
S11306008A95E1F7C6012B960FB6F894DEBF0FBEAC
S1130610CDBFDF91CF911F910F91FF90EF90DF90AD
S1130620CF90BF90AF909F908F907F900895CF937D
S1130630DF93CDB7DEB7A1970FB6F894DEBF0FBE38
S1130640CDBF80E490E00E94D3018CE291E09A83D4
S1130650898381E08B8384E58C8360E370E0CE0141
S113066001960E94F301BE01645F7F4FCE0147965D
S11306700E948B028A8D1F928F93898D1F928F9374
S1130680888D8F938F898F938AE091E09F938F93C6
S11306900E94940D0FB6F894DEBF0FBECDBFA19695
S11306A00FB6F894DEBF0FBECDBFDF91CF91089592
S11306B0CF93DF93CDB7DEB72B970FB6F894DEBF99
S11306C00FBECDBF87E090E09A8389838B830E941D
S11306D075068C830E9480068D830E94B5068E83E6
S11306E00E9495068F830E949F0688870E94B90600
S11306F089870E94BD068A8760E370E0CE01019677
S11307000E94F3012B960FB6F894DEBF0FBECDBF47
S1130710DF91CF9108958F929F92AF92BF92CF9223
S1130720DF92EF92FF920F931F93CF93DF93CDB796
S1130730DEB72B970FB6F894DEBF0FBECDBF8C018A
S1130740BE016F5F7F4F0E948B02F801828093800D
S1130750A480B580C680D780E084F18480819181B3
S11307600797F1F485EA91E00E94A80DF8018282CE
S11307709382A482B582C682D782E086F1868BE01A
S1130780ADE2B3E001900D928A95E1F7F80182821F
S11307909382A482B582C682D782E086F1860AC09B
S11307A087E0F801828313821482158216821782ED
S11307B010861186C8012B960FB6F894DEBF0FBEC3
S11307C0CDBFDF91CF911F910F91FF90EF90DF90FC
S11307D0CF90BF90AF909F908F9008950E94E609AC
S11307E080912B038F9380912A038F938CEB91E05C
S11307F09F938F931F921F920E94A40A86EC91E00C
S11308009F938F93D4E0DF931F920E94A40A89ECF4
S113081091E09F938F9383E08F93C8E1CF930E94DD
S1130820A40A8CEC91E09F938F93DF9388E38F93DA
S11308300E94A40A8FEC91E09F938F9385E08F939D
S1130840CF930E94A40A0E948B098DB79EB7469647
S11308500FB6F8949EBF0FBE8DBFFFCFCF93DF932B
S1130860CDB7DEB761970FB6F894DEBF0FBECDBF2C
S11308700E94E6098AE0E2EDF1E0DE0118960190BB
S11308800D928A95E1F743E050E068E170E0CE0113
S113089008960E94750987E0ECEDF1E0DE011196FF
S11308A001900D928A95E1F747E050E060E070E036
S11308B0CE0101960E94750980912B038F9380913C
S11308C02A038F938CEB91E09F938F9385E08F9312
S11308D088E18F930E94A40A0E948B090E948B09CD
S11308E00F900F900F900F900F900F900E94B906E9
S11308F081110FC082E00E94810B8135910518F0AF
S113090082E00E94960B0E94BD06882379F30E9420
S1130910EE0361960FB6F894DEBF0FBECDBFDF9134
S1130920CF9108956F927F928F929F92AF92BF92D0
S1130930CF92DF92EF92FF920F931F93CF93DF93A7
S1130940CDB7DEB7E1970FB6F894DEBF0FBECDBFCB
S113095080E090E00E94D301BE01645E7F4FCB0132
S11309600E948B030E94E60987E0ECEDF1E0DE01D2
S1130970559601900D928A95E1F747E050E060E0CA
S113098070E0CE0145960E9475098DE0E1E0F2E049
S1130990DE01189601900D928A95E1F743E050E04C
S11309A060E170E0CE0108960E94750903EE11E043
S11309B00F2EF7E0BF2EF02D0F2EF1E0CF2EF2E038
S11309C0DF2EF02D0F2EF3E06F2EF02D6894772498
S11309D074F80F2EFCEBEF2EF1E0FF2EF02D0F2E0E
S11309E0F5E08F2EF02D0F2EF8E19F2EF02D0F2E17
S11309F0FBE0AF2EF02D0E94B906811179C08D8DD8
S1130A008F938C8D8F9389A11F928F938F8D1F92BB
S1130A108F931F930F930E94940D82E00E94810B89
S1130A200FB6F894DEBF0FBECDBF8135910518F324
S1130A300E94E60980912A0390912B0301969093DA
S1130A402B0380932A03ECEDF1E0DE0111968B2D4C
S1130A5001900D928A95E1F747E050E060E070E084
S1130A60CE0101960E9475098CED91E09F938F93BE
S1130A70BF921F920E94A40ADF92CF926F927F923C
S1130A800E94A40A80912B038F9380912A038F9351
S1130A90FF92EF928F929F920E94A40A0E948B0968
S1130AA00E9458038FEF97E10197F1F700C000000F
S1130AB0BE01645E7F4FCE0187960E948B03FE01C8
S1130AC0B796DE015C968A2D01900D928A95E1F726
S1130AD00FB6F894DEBF0FBECDBF8C8D9D8D8039CF
S1130AE0914011F40E942E0482E00E94960B83CF61
S1130AF0E1960FB6F894DEBF0FBECDBFDF91CF9164
S1130B001F910F91FF90EF90DF90CF90BF90AF9027
S1130B109F908F907F906F900895EF92FF920F9324
S1130B201F93CF93DF930E9465087C010E94E6091E
S1130B30C7010E94F80840E050E060E070E00E94C5
S1130B407509D7018C918823E9F000E010E0C0E03A
S1130B50D0E02196D7011196ED91FC911297E00F08
S1130B60F11F808191810E94F808AE0168E070E075
S1130B700E9475090E5F1F4FF701808190E0C8172E
S1130B80D9073CF3DF91CF911F910F91FF90EF9024
S1130B900895CF93DF93C0913E03D0913F036EE05D
S1130BA072E08D819E810E94400D892B39F4CE0123
S1130BB00E94580890933F0380933E030E948B0643
S1130BC087349105A4F080913E0390913F030E94E5
S1130BD0580890933F0380933E032FEF8FEF92E0EA
S1130BE0215080409040E1F700C000C06AC00E94DC
S1130BF08B068A3B9F4FA4F480913E0390913F0360
S1130C000E94650890933F0380933E038FEF9FEF0C
S1130C1022E0815090402040E1F700C000C051C064
S1130C200E94900687349105A4F080913E03909130
S1130C303F030E949A0890933F0380933E038FEFF3
S1130C409FEF22E0815090402040E1F700C000C0B7
S1130C5038C00E9490068A3B9F4FE4F480913E0383
S1130C6090913F030E946C08892B59F180913E03B7
S1130C7090913F030E946C0890933F0380933E033E
S1130C808FEF9FEF22E0815090402040E1F700C0B9
S1130C9000C017C00E94BD06882399F0E0913E036E
S1130CA0F0913F030780F085E02D309751F00995CE
S1130CB08FEF9FEF22E0815090402040E1F700C089
S1130CC000C0DF91CF91089580913E0390913F033E
S1130CD00E948D050E94C90580913E0390913F03B7
S1130CE00E94C9080E94A209089584E08093001418
S1130CF081E48A95F1F700C08091001490E0089592
S1130D0085E08093001481E48A95F1F700C0809116
S1130D10001490E008950E9475068F579109089574
S1130D200E9480068F579109089586E080930014ED
S1130D3081E48A95F1F700C080910014089587E05A
S1130D408093001481E48A95F1F700C08091001427
S1130D500895B99887B3817087BB87B3827087BBC6
S1130D6087B3847087BBC29A089581E0B39980E009
S1130D70089581E0B19B80E0089581E0B09B80E01C
S1130D8008956AEA7BE086EA9BE00E94490D85B7F4
S1130D90806885BF8FE190E00E94AE0B0E94A90697
S1130DA00E94910790933F0380933E030E94540B4B
S1130DB00E94FC080E9464060E949609FBCFCF9310
S1130DC0C82FC49883E00E94030B8C2F0E94030B4E
S1130DD080E00E94030BC49ACF910895CF93DF93D0
S1130DE0D82FC62FC49882E00E94030B8D2F0E9437
S1130DF0030B8C2F0E94030BC49ADF91CF910895AB
S1130E00C4980E94030BC49A08951F93CF93DF9351
S1130E10182FD62FC42FC49885E00E94030B812F6E
S1130E200E94030B8D2F0E94030B8C2F0E94030B37
S1130E30C49ADF91CF911F910895C49880EC0E94C9
S1130E40030BC49A08950E94FC0A0E941D078EE0B9
S1130E5090E00E94DF06807E99278038910539F062
S1130E6083E192E00E94A80D81E090E0089580E083
S1130E7090E00895DF92EF92FF920F931F93CF9328
S1130E80DF937C018B01D42E89E090E00E94BB0BA0
S1130E90EC01FE82ED8218870F83D8824D2D50E03D
S1130EA0CA01880F991F880F991F880F991F840FF3
S1130EB0951F0E94BB0B9A838983CE01DF91CF914A
S1130EC01F910F91FF90EF90DF9008951F93CF93A0
S1130ED0DF93EC018881882301F110E0812F90E0F9
S1130EE0880F991FE981FA81E80FF91F0190F081B9
S1130EF0E02DD483C38329813A81F901E80FF91FD6
S1130F000190F081E02D8081882319F0CF010E94A7
S1130F1066071F5F8881181708F3DF91CF911F912F
S1130F2008950F931F93CF93DF9343E060E070E045
S1130F308EE092E00E943A07EC0109811A8142E0B6
S1130F4060E070E085E492E00E943A07F801918342
S1130F508083E981FA810190F081E02D0181128181
S1130F6040E062E974E08BE492E00E943A07F80101
S1130F7091838083E981FA810190F081E02D0181E0
S1130F80128140E060E070E080E592E00E943A0760
S1130F90F8019383828309811A8143E060E070E061
S1130FA086E592E00E943A07F80193838283E981FF
S1130FB0FA810280F381E02D0181128140E065E035
S1130FC07AE08FE592E00E943A07F80191838083EA
S1130FD0E981FA810280F381E02D0181128140E0F0
S1130FE064EF79E088E692E00E943A07F80193837F
S1130FF08283E981FA810280F381E02D01811281EB
S113100040E065E97AE088E792E00E943A07F80157
S11310109583848309811A8142E060E070E080E86E
S113102092E00E943A07F80195838483E981FA816A
S11310300480F581E02D0181128141E060E070E0DF
S113104086E892E00E943A07F80191838083E9815F
S1131050FA810480F581E02D0180F281E02D019078
S1131060F081E02D0181128140E067E173E08AE8BC
S113107092E00E943A07F80191838083E981FA8122
S11310800480F581E02D0181128140E069E07BE07C
S113109083E992E00E943A07F80193838283CE01A8
S11310A00E946607CE01DF91CF911F910F910895A1
S11310B0FC018081882331F00180F281E02D808160
S11310C0918108958E2F9F2F0895FC01838194812F
S11310D0009709F4CF010895CF93DC011396ED91A5
S11310E0FC911497309709F4FC01C081CC23D9F00A
S11310F061817281FB0120E030E0C901419151918D
S11311004A175B0759F42C1748F40196FC01EE0FBB
S1131110FF1FE60FF71F808191810AC02F5F3F4FA9
S11311202C1758F303C08A2F9B2F02C08A2F9B2FA2
S1131130CF910895CF93DC011396ED91FC91149710
S1131140309709F4FC01C081CC23E1F06181728104
S1131150FB0120E030E0C901419151914A175B073E
S113116061F4222351F081509048FC01EE0FFF1FDF
S1131170E60FF71F808191810AC02F5F3F4F2C1724
S113118050F303C08A2F9B2F02C08A2F9B2FCF912D
S11311900895DC011396ED91FC911497309709F4AE
S11311A0FC01608170E016161706FCF40180F281E0
S11311B0E02D208131812817390761F406C041915F
S11311C051914817590749F402C020E030E0C901A1
S11311D001960895329620E030E02F5F3F4F2617A6
S11311E037076CF380E090E0089580E090E0089584
S11311F0FC01858196810895E0E0F0E18EEA808328
S113120081EA80838AED808382E1808388EC808315
S113121088EA80838FE3808385ED808380E8808300
S113122081E8808380E5808389ED808381E2808307
S113123090E2908310829BED908390E390839DEAEB
S11312409083108294EA908396EA90839FEA908335
S1131250808310828FE7808392E290831082808360
S113126008950F931F93CF93DF93FB014081518126
S11312705695542F44275795479522813381420F21
S1131280531FFC012081222359F1BC016F5F7F4F62
S1131290EC0100E010E01FC0DC01A20FB31FE881E5
S11312A0F0E0B097EE0FFF1FEE0FFF1FEE0FFF1FD2
S11312B0E20FF31FE059FF4FE491EC932F5F3F4F90
S11312C02830310549F7EB016F5F7F4F485F5F4F6F
S11312D08881882329F0202F312FCA01985EDCCF22
S11312E0DF91CF911F910F910895CF93DF9300D099
S11312F000D0CDB7DEB75A8349837C836B83BE01AC
S11313006F5F7F4F0E9431090F900F900F900F90E5
S1131310DF91CF910895E0E0F8E1A0E0B2E181919E
S11313208C93E1158CE1F807D1F7089580E00E94D1
S1131330810B8135910528F00E948B0980E00E9481
S1131340960B089520E8829FC0011124FC01F85EE9
S11313508058974E208120952193E817F907D1F7FB
S11313600895CF92DF92EF92FF920F931F93CF9342
S1131370DF9300D000D000D0CDB7DEB76C0100E021
S113138010E06894EE24E5F8F12CDC82CB821E8315
S11313900D83FA82E982BE016D5F7F4FCE01019613
S11313A00E943109085F1F4F0038110571F7269616
S11313B00FB6F894DEBF0FBECDBFDF91CF911F9162
S11313C00F91FF90EF90DF90CF900895CF93DF932C
S11313D0C0E0D0E0CE010E94B1092196C830D10509
S11313E0C9F7DF91CF91089580912C03882331F0C0
S11313F086EA8093001010922C03089587EA809364
S1131400001081E080932C0308957F928F929F9225
S1131410AF92BF92CF92DF92EF92FF920F931F93FE
S1131420CF93DF93CDB7DEB7A8970FB6F894DEBF9E
S11314300FBECDBF0F2EF9E07F2EF02D6894AA24A5
S1131440A2F8B12C0F2EF8E1CF2ED12CF02D0F2EB7
S1131450FCE08F2EF02D0F2EF7E0EF2EF12CF02D67
S11314600F2EF7E09F2EF02D00E010E10E94E60918
S11314701EA21DA218A61FA2EFE5F2E0DE015C96F3
S1131480872D01900D928A95E1F7BE016B5D7F4F28
S1131490CE014C960E943109B98EA88EDB8ECA8E7D
S11314A0EFEAF2E0DE011C96882D01900D928A95F8
S11314B0E1F7BE01685E7F4FCE010C960E943109B0
S11314C0F986E8861B861A86ECEDF1E0DE011196BA
S11314D0892D01900D928A95E1F7BE01685F7F4FD7
S11314E0CE0101960E9431090E948B090E94950643
S11314F091E8F801908380830E94B906882309F457
S1131500B5CFA8960FB6F894DEBF0FBECDBFDF915E
S1131510CF911F910F91FF90EF90DF90CF90BF90EC
S1131520AF909F908F907F9008950E94F4092CECC7
S11315308CE091E0215080409040E1F700C00E948F
S1131540B906882391F30895CF93DF93CDB7DEB71F
S113155061970FB6F894DEBF0FBECDBFAE01465EF5
S11315605F4F688D798DCE0101960E94D50D4E890D
S113157050E08F8990E8899F400D511D1124E98125
S1131580EE2389F180E090E060E078E013C0FC0194
S1131590EA0FFB1FE491ED932150C9F76F5F862F8B
S11315A090E0E1E0F0E0EC0FFD1FE80FF91FE081AF
S11315B0EE23C9F09C01220F331F220F331F220F89
S11315C0331F240F351FD901B85E8E2F90E0880F8A
S11315D0991F880F991F880F991F821B930B272F20
S11315E080599841D4CF61960FB6F894DEBF0FBEF0
S11315F0CDBFDF91CF91089587B3806B87BBBE9831
S113160081E58DB908958FB9779BFECF8FB190E0B6
S11316100895EF92FF920F931F93CF93DF938BEB79
S113162092E00E94A80D0E94300D7C010E94350DAD
S1131630C0E0D8E100E010E00E94300D888398817A
S1131640981711F00F5F1F4F2196C11580E2D8073C
S113165099F7C7010E94350DC0E0D8E1E12CF12CC7
S11316600E94300D9881981719F08FEFE81AF80A44
S11316702196C11580E2D80799F7FF92EF921F9344
S11316800F9381ED92E09F938F930E94940D0F909E
S11316900F900F900F900F900F90DF91CF911F91AB
S11316A00F91FF90EF9008951FBC1EBC8EB585600E
S11316B08EBD8EB58D7F8EBD8FB58E7F8FBD8FB560
S11316C08D7F8FBD8EB5877F8EBD8EB58F7E8EBD8F
S11316D0ABE8B0E01C92EAE8F0E01082808185601B
S11316E0808380818D7F80838C918E7F8C938C917D
S11316F08D7F8C938081877F808380818F7E8083A0
S11317000895811103C02CB53DB50DC0813019F485
S113171023B530E008C0823029F42091880030914C
S1131720890001C00895822F932F0895811103C069
S11317301DBC1CBC0895813011F413BC0895823083
S113174021F4109289001092880008955D9BFECFC9
S11317508CB908955F9BFECF8CB1089590BD89B973
S113176088E18AB986E880BD6AEA7BE086EA9BE084
S11317700E94490D0895CF93DF938230910510F4B0
S113178082E090E0E0914203F091430320E030E0F6
S1131790A0E0B0E0309739F14081518148175907F2
S11317A0B8F04817590771F482819381109729F092
S11317B013969C938E9312972CC09093430380931B
S11317C0420327C02115310531F04217530718F0A1
S11317D0A901DB0101C0EF019A01BD01DF01028013
S11317E0F381E02DD7CF21153105F9F0281B390BF2
S11317F02430310580F48A819B816115710521F0C3
S1131800FB019383828304C0909343038093420338
S1131810FE01329644C0FE01E20FF31F81939193BF
S113182022503109398328833AC0209140033091F2
S11318304103232B41F420910201309103013093A1
S113184041032093400320910001309101012115AF
S1131850310541F42DB73EB7409104015091050183
S1131860241B350BE0914003F0914103E217F30789
S1131870A0F42E1B3F0B2817390778F0AC014E5FFC
S11318805F4F2417350748F04E0F5F1F50934103F5
S1131890409340038193919302C0E0E0F0E0CF01D4
S11318A0DF91CF910895CF93DF93009709F487C018
S11318B0FC01329713821282C0914203D0914303F8
S11318C0209781F420813181280F391F80914003B2
S11318D0909141038217930779F5F0934103E093C4
S11318E040036DC0DE0120E030E0AE17BF0750F4C6
S11318F012964D915C9113979D014115510509F183
S1131900DA01F3CFB383A28340815181840F951F01
S11319108A179B0771F48D919C911197840F951FE1
S113192002969183808312968D919C911397938351
S113193082832115310529F4F0934303E093420394
S11319403EC0D9011396FC93EE9312974D915D918D
S1131950A40FB51FEA17FB0779F480819181840FE6
S1131960951F0296D90111969C938E93828193813F
S113197013969C938E931297E0E0F0E08A819B810A
S1131980009719F0FE01EC01F9CFCE0102962881EF
S11319903981820F931F209140033091410328170E
S11319A0390769F4309729F41092430310924203E3
S11319B002C013821282D0934103C0934003DF918B
S11319C0CF9108958F929F92AF92BF92CF92DF9260
S11319D0EF92FF92CF93DF93EC01688179818A8142
S11319E09B81611571058105910521F464E279ED0E
S11319F08BE597E02DE133EF41E050E00E948C103D
S1131A0049015A019B01AC01A7EAB1E40E94AB1061
S1131A106B017C01ACEEB4EFA50194010E94B910F6
S1131A20C60ED71EE81EF91EF7FE06C081E0C81ACE
S1131A30D108E10880E8F80AC882D982EA82FB82E8
S1131A40C6019F77DF91CF91FF90EF90DF90CF9009
S1131A50BF90AF909F908F9008950E94E20C0895DC
S1131A6086E091E00E94E20C0895A0E0B0E080934B
S1131A70060190930701A0930801B093090108950A
S1131A80FB01DC018D91019080190110D9F3990BB0
S1131A9008950F931F93CF93DF93EC018B0100976D
S1131AA031F46115710519F480E090E038C06EE0FE
S1131AB070E081E090E00E94C30FFC010097A1F365
S1131AC080E883830115110571F01387028781E88B
S1131AD083838091440390914503892B21F4F093EF
S1131AE04503E09344032097C9F0D187C0878381DD
S1131AF0826083838091460390914703892B71F41C
S1131B00F0934703E093460380914803909149037F
S1131B10892B21F4F0934903E0934803CF01DF912B
S1131B20CF911F910F910895A0E0B0E0EAE9FDE0A4
S1131B300C94CE10FE01359661917191AF018091A4
S1131B404603909147030E94F10DE2E00C94EA10E1
S1131B500F931F93CF93DF93E0914603F0914703D4
S1131B60238121FF1BC0EC0100E010E0899160910A
S1131B70460370914703DB011896ED91FC91199788
S1131B80882331F00995892B89F30FEF1FEFEECFEE
S1131B908AE00995892B11F4C80102C08FEF9FEFE9
S1131BA0DF91CF911F910F910895AEE0B0E0EBED7E
S1131BB0FDE00C94CC108C0186E08C831A8309839D
S1131BC08FEF9FE79E838D83CE0101960E94F10DD6
S1131BD0EF81F885E00FF11F10822E96E4E00C945B
S1131BE0E810ACE0B0E0E7EFFDE00C94BE107C013F
S1131BF06B018A01FC0117821682838181FFBDC1BA
S1131C00CE0101964C01F7019381F60193FD859174
S1131C1093FF81916F01882309F4ABC1853239F4B4
S1131C2093FD859193FF81916F01853229F4B7016A
S1131C3090E00E94FC0FE7CF512C312C20E02032A1
S1131C40A0F48B3269F030F4803259F0833269F4B5
S1131C5020612CC08D3239F0803339F4216026C0E4
S1131C602260246023C0286021C027FD27C030EDF6
S1131C70380F3A3078F426FF06C0FAE05F9E300D44
S1131C801124532E13C08AE0389E300D1124332EB4
S1131C9020620CC08E3221F426FD6BC1206406C084
S1131CA08C3611F4206802C0883641F4F60193FDA5
S1131CB0859193FF81916F018111C1CF982F9F7DF1
S1131CC09554933028F40C5F1F4FFFE3F9830DC044
S1131CD0833631F0833771F0833509F05BC022C05D
S1131CE0F801808189830E5F1F4F44244394512C53
S1131CF0540115C03801F2E06F0E711CF801A08088
S1131D00B18026FF03C0652D70E002C06FEF7FEF46
S1131D10C5012C870E94F10F2C0183012C852F779C
S1131D20222E17C03801F2E06F0E711CF801A0805A
S1131D30B18026FF03C0652D70E002C06FEF7FEF16
S1131D40C5012C870E94DF0F2C012C852068222ED0
S1131D50830123FC1BC0832D90E048165906B0F480
S1131D60B70180E290E00E94FC0F3A94F4CFF501B1
S1131D7027FC859127FE81915F01B70190E00E94C5
S1131D80FC0F31103A94F1E04F1A510841145104F8
S1131D9071F7E5C0843611F0893639F5F80127FF6B
S1131DA007C060817181828193810C5F1F4F08C0DD
S1131DB060817181882777FD8095982F0E5F1F4F72
S1131DC02F76B22E97FF09C09095809570956195F6
S1131DD07F4F8F4F9F4F2068B22E2AE030E0A4013E
S1131DE00E942E10A82EA81844C0853729F42F7EEF
S1131DF0B22E2AE030E025C0F22FF97FBF2E8F36B5
S1131E00C1F018F4883579F0B4C0803719F08837F8
S1131E1021F0AFC02F2F2061B22EB4FE0DC08B2D48
S1131E208460B82E09C024FF0AC09F2F9660B92E83
S1131E3006C028E030E005C020E130E002C020E127
S1131E4032E0F801B7FE07C060817181828193811D
S1131E500C5F1F4F06C06081718180E090E00E5FCF
S1131E601F4FA4010E942E10A82EA818FB2DFF7747
S1131E70BF2EB6FE0BC02B2D2E7FA51450F4B4FE3E
S1131E800AC0B2FC08C02B2D2E7E05C07A2C2B2D47
S1131E9003C07A2C01C0752C24FF0DC0FE01EA0D8D
S1131EA0F11D8081803311F4297E09C022FF06C010
S1131EB07394739404C0822F867809F0739423FD7D
S1131EC013C020FF06C05A2C731418F4530C57186F
S1131ED0732C731468F4B70180E290E02C870E949D
S1131EE0FC0F73942C85F5CF731410F4371801C0CC
S1131EF0312C24FF12C0B70180E390E02C870E94AC
S1131F00FC0F2C8522FF17C021FF03C088E590E059
S1131F1002C088E790E0B7010CC0822F867859F0A0
S1131F2021FD02C080E201C08BE227FD8DE2B701F2
S1131F3090E00E94FC0FA51438F4B70180E390E010
S1131F400E94FC0F5A94F7CFAA94F401EA0DF11DF4
S1131F508081B70190E00E94FC0FA110F5CF3320DF
S1131F6009F451CEB70180E290E00E94FC0F3A944C
S1131F70F6CFF7018681978102C08FEF9FEF2C96F1
S1131F80E2E10C94DA100F931F93CF93DF93869FB3
S1131F908001879F100D969F100D1124C8010E9487
S1131FA0BB0BEC01009729F0A80160E070E00E94EF
S1131FB0EA0FCE01DF91CF911F910F910895FC019B
S1131FC00590615070400110D8F7809590958E0F60
S1131FD09F1F0895DC0101C06D9341505040E0F70C
S1131FE00895FC016150704001900110D8F780956C
S1131FF090958E0F9F1F08950F931F93CF93DF9398
S1132000182F092FEB018B8181FD03C08FEF9FEF08
S113201020C082FF10C04E815F812C813D81421718
S113202053077CF4E881F9819F012F5F3F4F398387
S11320302883108306C0E885F985812F0995892BAB
S113204029F72E813F812F5F3F4F3F832E83812FBE
S1132050902FDF91CF911F910F910895FA01AA2734
S1132060283051F1203181F1E8946F936E7F6E5FD7
S11320707F4F8F4F9F4FAF4FB1E03ED0B4E03CD085
S1132080670F781F891F9A1FA11D680F791F8A1F68
S1132090911DA11D6A0F711D811D911DA11D20D0CF
S11320A009F468943F912AE0269F11243019305D89
S11320B03193DEF6CF010895462F4770405D41937A
S11320C0B3E00FD0C9F7F6CF462F4F70405D4A33C7
S11320D018F0495D31FD4052419302D0A9F7EACF8F
S11320E0B4E0A6959795879577956795BA95C9F7BE
S11320F000976105710508959B01AC010A2E0694B1
S11321005795479537952795BA95C9F7620F731F69
S1132110841F951FA01D0895052E97FB1EF400949F
S11321200E94A31057FD07D00E94F51007FC03D0AE
S11321304EF40C94A31050954095309521953F4F43
S11321404F4F5F4F089590958095709561957F4F9F
S11321508F4F9F4F08950E941711A59F900DB49F14
S1132160900DA49F800D911D11240895B7FF0C9428
S1132170AB100E94AB10821B930B08952F923F92D9
S11321804F925F926F927F928F929F92AF92BF9283
S1132190CF92DF92EF92FF920F931F93CF93DF932F
S11321A0CDB7DEB7CA1BDB0B0FB6F894DEBF0FBE8C
S11321B0CDBF09942A88398848885F846E847D84D9
S11321C08C849B84AA84B984C884DF80EE80FD80DB
S11321D00C811B81AA81B981CE0FD11D0FB6F89451
S11321E0DEBF0FBECDBFED010895A1E21A2EAA1BDA
S11321F0BB1BFD010DC0AA1FBB1FEE1FFF1FA217B3
S1132200B307E407F50720F0A21BB30BE40BF50BAF
S1132210661F771F881F991F1A9469F76095709538
S1132220809590959B01AC01BD01CF010895A29FBB
S1132230B001B39FC001A39F700D811D1124911D96
S1132240B29F700D811D1124911D0895F894FFCF44
S113225000004A032000010000000A0A53656E646E
S1132260204944203D203130095265636965766513
S113227064204944203D2025640A53656E64204C43
S1132280656E677468203D2031095265636965761F
S11322906564204C656E677468203D2025640A538C
S11322A0656E642044617461203D202754270952DF
S11322B0656369657665642044617461203D202509
S11322C0630A0A000A0A53656E64204944203D20CB
S11322D025640A53656E64204C656E677468203DFE
S11322E02025640A53656E642044617461203D2096
S11322F025630A0A00436F727265637420494400BF
S1132300506C61796572313A2025690053636F72AC
S1132310653A202569005031005032005033005096
S1132320340047414D45204F56455200526574755F
S1132330726E0072756E6E696E673A202575095368
S1132340636F72653A2025750949643A2025750A38
S113235000506C6179696E672067616D65004D613D
S1132360696E004552524F523A204D435032353136
S113237035206973204E4F5420696E20636F6E665A
S11323806967206D6F64652061667465722072658B
S1132390736574210047616D65730047616D650065
S11323A0536E616B650053657474696E67730043A3
S11323B06F6E747261737400546F67676C65206E1E
S11323C065676174697665005365697A757265003D
S11323D054657374730043616E004C6F6F70626177
S11323E0636B005352414D006E6F20736E616B65D9
S11323F0207965740072657475726E00200A006C31
S113240065667420736C69646572005374617274D8
S1132410696E67205352414D20746573742E2E2EBD
S1132420005352414D207465737420636F6D706C5A
S1132430657465642077697468200A2534642065AE
S113244072726F727320696E20777269746520707E
S11324506861736520616E64200A253464206572A6
S1132460726F727320696E20726574726965766129
S10D24706C2070686173650A0A00AD
S9030000FC
