:100000000C94B4010C94D1010C94D1010C94D10145
:100010000C94D1010C94D1010C94D1010C94D10118
:100020000C94D1010C94D1010C94D1010C94D10108
:100030000C94D1010C94D1010C94D1010C94D101F8
:100040000C94D1010C94D1010C94D1010C94D101E8
:100050000C94D1010C94D1010C94D1010C94D101D8
:100060000C94D1010C94D1010C94D1010C94D101C8
:10007000000000000000000000065F5F06000000B6
:100080000007070007070000147F7F147F7F14001C
:10009000242E6B6B3A120000466630180C66620024
:1000A000307A4F5D377A48000407030000000000F3
:1000B000001C3E63410000000041633E1C00000044
:1000C000082A3E1C1C3E2A0808083E3E080800007C
:1000D00000A0E06000000000080808080808000010
:1000E00000006060000000006030180C0603010092
:1000F0003E7F594D7F3E000042427F7F40400000DE
:10010000627359496F660000226349497F360000D7
:10011000181C16137F7F1000276745457D390000A6
:100120003C7E4B4979300000036371190F070000D2
:10013000367F49497F360000064F49693F1E00005F
:1001400000006C6C0000000000A0EC6C00000000DF
:10015000081C366341000000141414141414000029
:10016000004163361C080000020351590F060000CD
:100170003E7F415D5D1F1E007C7E13137E7C000070
:10018000417F7F49497F36001C3E63414163220025
:10019000417F7F41637F1C00417F7F495D41630058
:1001A000417F7F491D0103001C3E63415173720072
:1001B0007F7F08087F7F000000417F7F41000000B3
:1001C000307040417F3F0100417F7F081C77630012
:1001D000417F7F41406070007F7F060C067F7F007B
:1001E0007F7F060C187F7F001C3E6341633E1C002E
:1001F000417F7F49090F06001E3F21717F5E00008D
:10020000417F7F19396F460026674D597B320000C8
:1002100003417F7F410300007F7F40407F7F0000DC
:100220001F3F60603F1F00007F7F3018307F7F00DE
:1002300063771C081C776300074F78784F0700002E
:100240006773594D47637100007F7F414100000093
:100250000103060C183060000041417F7F00000060
:10026000080C0603060C0800808080808080808057
:100270000000030704000000207454543C78400040
:10028000413F7F44447C3800387C44446C28000063
:10029000307848493F7F4000387C54545C18000057
:1002A000487E7F490302000098BCA4A4F87C0400A7
:1002B000417F7F08047C780000447D7D4000000081
:1002C00040C484FD7D000000417F7F10386C4400F5
:1002D00000417F7F400000007C7C0C180C7C780083
:1002E0007C7C04047C780000387C44447C3800002A
:1002F00084FCF8A4243C1800183C24A4F8FC8400D6
:10030000447C78441C180000485C54547424000059
:1003100000043E7F442400003C7C40403C7C400084
:100320001C3C60603C1C00003C7C6030607C3C00FD
:10033000446C3810386C44009CBCA0A0FC7C0000CD
:100340004C64745C4C64000008083E774141000036
:1003500000000077770000004141773E0808000068
:10036000020301030203010011241FBECFEFD4E0FA
:10037000DEBFCDBF12E0A0E0B1E0E0E7FEE102C0E9
:1003800005900D92A03EB107D9F723E0A0EEB2E0B0
:1003900001C01D92A030B207E1F70E9424050C9421
:1003A000360F0C940000CF93DF93EC010E948A0576
:1003B0004FEF50E060E670E080E690E00E946C0550
:1003C0004FEF50E060E670E080E790E00E946C053F
:1003D000AE0160EE70E08FE090E00E946C05309816
:1003E000DF91CF9108958F929F92AF92BF92CF925B
:1003F000DF92EF92FF920F931F93CF93DF9300D082
:10040000CDB7DEB75C017B014FEF50E068E070E0F4
:10041000C7010E946C05C7010E94460583FDFBCF02
:10042000F50180819181282F2295220F207E29833A
:100430009695879596958795969587958A836981F0
:1004400070E0C70102960E9455056A8170E0C701FD
:1004500001960E945505F50162816F7070E0C70139
:1004600005960E945505F50182818823D9F0650122
:10047000F3E0CF0ED11C00E010E0470186E0880ECB
:10048000911CF60161916F0170E0C401800F911F12
:100490000E9455050F5F1F4FF501828190E00817FC
:1004A00019077CF3F0E3EF16F10459F080E4E81645
:1004B000F10451F0E0E5EE16F10451F484E890E027
:1004C00005C081E890E002C082E890E00E946705E4
:1004D0000F900F90DF91CF911F910F91FF90EF90B0
:1004E000DF90CF90BF90AF909F908F900895289B02
:1004F000FECF8CE290E00E94460580FD08C08CE2B1
:1005000090E00E94460581FF04C080E7089580E6E0
:1005100008958FEF08957F928F929F92AF92BF922E
:10052000CF92DF92EF92FF920F931F93CF93DF93BF
:10053000CDB7DEB72B970FB6F894DEBF0FBECDBF99
:100540006C010E947702982E082F10E0C8010196D6
:100550000E9446057C01C80102960E9446059595B9
:100560008795959587959595879595958795959573
:100570008795EE0CFF1CEE0CFF1CEE0CFF1C5C01C3
:10058000AE28BF28C80105960E9446058F70782EB8
:10059000B1F08E010C5F1F4F812CCE01809590959C
:1005A00003967C01E90CF11CC701800F911F0E948A
:1005B0004605F80181938F0183948710F5CFF0E60B
:1005C0009F1621F080E7981651F011C040E050E0EE
:1005D00061E070E08CE290E00E946C0508C040E0B1
:1005E00050E062E070E08CE290E00E946C05BA821C
:1005F000A9827B828BE0FE013196D60101900D929B
:100600008A95E1F7C6012B960FB6F894DEBF0FBEB0
:10061000CDBFDF91CF911F910F91FF90EF90DF90B1
:10062000CF90BF90AF909F908F907F900895CF9381
:10063000DF93CDB7DEB7A1970FB6F894DEBF0FBE3C
:10064000CDBF80E490E00E94D3018CE291E09A83D8
:10065000898381E08B8384E58C8360E370E0CE0145
:1006600001960E94F301BE01645F7F4FCE01479661
:100670000E948B028A8D1F928F93898D1F928F9378
:10068000888D8F938F898F938AE091E09F938F93CA
:100690000E94C00B0FB6F894DEBF0FBECDBFA1966F
:1006A0000FB6F894DEBF0FBECDBFDF91CF91089596
:1006B0008F929F92AF92BF92CF92DF92EF92FF9272
:1006C0000F931F93CF93DF93CDB7DEB72B970FB662
:1006D000F894DEBF0FBECDBF8C01BE016F5F7F4FB0
:1006E0000E948B02F80182809380A480B580C6802E
:1006F000D780E084F184808191810797F1F485EAC5
:1007000091E00E94D40BF80182829382A482B58288
:10071000C682D782E086F1868BE0A1EEB2E001903E
:100720000D928A95E1F7F80182829382A482B582C4
:10073000C682D782E086F1860AC087E0F80182830C
:100740001382148215821682178210861186C801C0
:100750002B960FB6F894DEBF0FBECDBFDF91CF91C1
:100760001F910F91FF90EF90DF90CF90BF90AF90CF
:100770009F908F9008950F931F93CF93DF93CDB7E2
:10078000DEB76F970FB6F894DEBF0FBECDBFBE01C8
:100790006B5E7F4FCB010E9458030E944D0807E01B
:1007A0001DE0E0EBF1E0DE011E96802F01900D923E
:1007B0008A95E1F747E050E060E070E0CE010E96E8
:1007C0000E94DC07E7EBF1E0DE011196812F01903A
:1007D0000D928A95E1F743E050E060E170E0CE01D0
:1007E00001960E94DC070E941C058823D1F26F96B7
:1007F0000FB6F894DEBF0FBECDBFDF91CF911F9132
:100800000F910895EF92FF920F931F93CF93DF9371
:100810000E94CC067C010E944D08C7010E945F0720
:1008200040E050E060E070E00E94DC07D7018C916E
:100830008823E9F000E010E0C0E0D0E02196D70185
:100840001196ED91FC911297E00FF11F808191813B
:100850000E945F07AE0168E070E00E94DC070E5F57
:100860001F4FF701808190E0C817D9073CF3DF9153
:10087000CF911F910F91FF90EF900895CF93DF9349
:10088000C091F202D091F30264EC71E08D819E81FF
:100890000E946C0B892B39F4CE010E94BF06909305
:1008A000F3028093F2020E94FA048734A4F080914C
:1008B000F2029091F3020E94BF069093F30280939C
:1008C000F2022FEF8FEF92E0215080409040E1F74D
:1008D00000C000C067C00E94FA048A3BA4F4809163
:1008E000F2029091F3020E94CC069093F30280935F
:1008F000F2022FEF8FEF92E0215080409040E1F71D
:1009000000C000C04FC00E94FE048734A4F0809154
:10091000F2029091F3020E9401079093F3028093F8
:10092000F2022FEF8FEF92E0215080409040E1F7EC
:1009300000C000C037C00E94FE048A3BE4F48091EE
:10094000F2029091F3020E94D306892B59F1809113
:10095000F2029091F3020E94D3069093F3028093E7
:10096000F2022FEF8FEF92E0215080409040E1F7AC
:1009700000C000C017C00E941805882399F0E091BC
:10098000F202F091F3020780F085E02D309751F0EC
:1009900009952FEF8FEF92E0215080409040E1F7D2
:1009A00000C000C0DF91CF9108958091F202909134
:1009B000F3020E9402040E943E048091F202909190
:1009C000F3020E9430070E940908089584E0809392
:1009D000001481E48A95F1F700C080910014089515
:1009E00085E08093001481E48A95F1F700C080913E
:1009F000001408950E94E6048F5708950E94F004A1
:100A00008F57089586E08093001481E48A95F1F76A
:100A100000C0809100140895B99887B3817087BB96
:100A200087B3827087BB87B3847087BBC29A0895EF
:100A300081E0B39980E0089581E0B19B80E0089562
:100A400081E0B09B80E0089566ED79E082ED99E069
:100A50000E94750B85B7806885BF8FE190E00E948A
:100A6000DA090E940C050E94F8059093F302809326
:100A7000F20280E090E00E94D3010E9480090E946F
:100A800063070E94D5040E94FD07FBCFCF93C82FB8
:100A9000C49883E00E942F098C2F0E942F0980E0C8
:100AA0000E942F09C49ACF910895CF93DF93D82F36
:100AB000C62FC49882E00E942F098D2F0E942F0913
:100AC0008C2F0E942F09C49ADF91CF910895C4986A
:100AD0000E942F09C49A08951F93CF93DF93182F74
:100AE000D62FC42FC49885E00E942F09812F0E9421
:100AF0002F098D2F0E942F098C2F0E942F09C49A35
:100B0000DF91CF911F910895C49880EC0E942F0926
:100B1000C49A08950E9428090E9484058EE090E0FE
:100B20000E944605807E99278038910539F089EC2E
:100B300091E00E94D40B81E090E0089580E090E085
:100B40000895DF92EF92FF920F931F93CF93DF935D
:100B50007C018B01D42E89E090E00E94E709EC0132
:100B6000FE82ED8218870F83D8824D2D50E0CA0196
:100B7000880F991F880F991F880F991F840F951F41
:100B80000E94E7099A838983CE01DF91CF911F915B
:100B90000F91FF90EF90DF9008951F93CF93DF9315
:100BA000EC018881882301F110E0812F90E0880F0B
:100BB000991FE981FA81E80FF91F0190F081E02D7A
:100BC000D483C38329813A81F901E80FF91F019089
:100BD000F081E02D8081882319F0CF010E94CD059E
:100BE0001F5F8881181708F3DF91CF911F91089537
:100BF0000F931F93CF93DF9343E060E070E084ECAA
:100C000091E00E94A105EC0109811A8142E060E0B7
:100C100070E08BEF91E00E94A105F8019183808341
:100C2000E981FA810190F081E02D0181128140E09B
:100C30006BEB73E081E092E00E94A105F8019183E3
:100C40008083E981FA810190F081E02D0181128198
:100C500040E060E070E086E092E00E94A105F801CB
:100C60009383828309811A8143E060E070E08CE025
:100C700092E00E94A105F80193838283E981FA81C1
:100C80000280F381E02D0181128140E06CE678E082
:100C900085E192E00E94A105F80191838083E981BA
:100CA000FA810280F381E02D0181128140E06BE541
:100CB00078E08EE192E00E94A105F801938382839F
:100CC000E981FA810280F381E02D0181128140E007
:100CD0006DE179E08EE292E00E94A105F801958332
:100CE000848309811A8142E060E070E086E392E04B
:100CF0000E94A105F80195838483E981FA8104802B
:100D0000F581E02D0181128141E060E070E08CE32B
:100D100092E00E94A105F80191838083E981FA8124
:100D20000480F581E02D0180F281E02D0190F081B9
:100D3000E02D0181128140E067E173E080E492E000
:100D40000E94A105F80191838083E981FA810480E2
:100D5000F581E02D0181128140E065E379E089E4CD
:100D600092E00E94A105F80193838283CE010E9444
:100D7000CD05CE01DF91CF911F910F910895FC0118
:100D80008081882331F00180F281E02D8081918182
:100D900008958E2F9F2F0895FC01838194810097E1
:100DA00009F4CF010895CF93DC011396ED91FC91E6
:100DB0001497309709F4FC01C081CC23D9F06181EC
:100DC0007281FB0120E030E0C901419151914A1745
:100DD0005B0759F42C1748F40196FC01EE0FFF1F36
:100DE000E60FF71F808191810AC02F5F3F4F2C17BC
:100DF00058F303C08A2F9B2F02C08A2F9B2FCF91BD
:100E00000895CF93DC011396ED91FC9114973097E0
:100E100009F4FC01C081CC23E1F061817281FB0106
:100E200020E030E0C901419151914A175B0761F41C
:100E3000222351F081509048FC01EE0FFF1FE60F76
:100E4000F71F808191810AC02F5F3F4F2C1750F30D
:100E500003C08A2F9B2F02C08A2F9B2FCF9108950A
:100E6000DC011396ED91FC911497309709F4FC0185
:100E7000608170E016161706FCF40180F281E02D07
:100E8000208131812817390761F406C041915191C1
:100E90004817590749F402C020E030E0C901019623
:100EA0000895329620E030E02F5F3F4F2617370736
:100EB0006CF380E090E0089580E090E00895FC01FC
:100EC000858196810895E0E0F0E18EEA808381EAF1
:100ED00080838AED808382E1808388EC808388EA46
:100EE00080838FE3808385ED808380E8808381E841
:100EF000808380E5808389ED808381E2808390E236
:100F0000908310829BED908390E390839DEA908381
:100F1000108294EA908396EA90839FEA908380837C
:100F200010828FE7808392E29083108280830895FD
:100F30000F931F93CF93DF93FB014081518156950F
:100F4000542F44275795479522813381420F531FD1
:100F5000FC012081222359F1BC016F5F7F4FEC011E
:100F600000E010E01FC0DC01A20FB31FE881F0E039
:100F7000B097EE0FFF1FEE0FFF1FEE0FFF1FE20FE8
:100F8000F31FE059FF4FE491EC932F5F3F4F283060
:100F9000310549F7EB016F5F7F4F485F5F4F8881F5
:100FA000882329F0202F312FCA01985EDCCFDF91F2
:100FB000CF911F910F910895CF93DF9300D000D070
:100FC000CDB7DEB75A8349837C836B83BE016F5FE5
:100FD0007F4F0E9498070F900F900F900F90DF9116
:100FE000CF910895E0E0F8E1A0E0B2E181918C9327
:100FF000E1158CE1F807D1F7089580E00E94AD0972
:101000008135910528F00E94F20780E00E94C20914
:10101000089520E8829FC0011124FC01F85E8058E9
:10102000974E208120952193E817F907D1F708956D
:10103000CF92DF92EF92FF920F931F93CF93DF93A4
:1010400000D000D000D0CDB7DEB76C0100E010E0DA
:101050006894EE24E5F8F12CDC82CB821E830D83AC
:10106000FA82E982BE016D5F7F4FCE0101960E9438
:101070009807085F1F4F0038110571F726960FB6C5
:10108000F894DEBF0FBECDBFDF91CF911F910F91BE
:10109000FF90EF90DF90CF900895CF93DF93C0E063
:1010A000D0E0CE010E9418082196C830D105C9F7BA
:1010B000DF91CF9108958091E002882331F086EA94
:1010C000809300101092E002089587EA8093001048
:1010D00081E08093E00208954F925F926F927F9239
:1010E0008F929F92AF92BF92CF92DF92EF92FF9238
:1010F0000F931F93CF93DF93CDB7DEB7AC970FB6A7
:10110000F894DEBF0FBECDBF0F2EF9E08F2EF02D6D
:101110006894AA24A2F8B12C0F2EF8E1CF2ED12C7E
:10112000F02D0F2EFCE09F2EF02D0F2EF7E0EF2E6E
:10113000F12CF02D0F2EFDE44F2EF1E65F2EF8E797
:101140006F2E712CF02D00E010E10E944D081AA6C0
:1011500019A61CA61BA6E5E1F2E0DE019096882DFB
:1011600001900D928A95E1F7BE01675D7F4FCE0138
:1011700080960E949807BD8EAC8EDF8ECE8EE5E6FF
:10118000F2E0DE015096892D01900D928A95E1F7EB
:10119000BE01645E7F4FCE0140960E949807FD8697
:1011A000EC861F861E8687E0E0EBF1E0DE011596F7
:1011B00001900D928A95E1F7BE01645F7F4FCE01E9
:1011C00005960E94980749825A826B827C82A70109
:1011D00060E670E0CE0101960E94DC070E94F207F3
:1011E0000E940205825091E8F801908380830E945A
:1011F0001C0581110BC00E942005882309F4A5CF8E
:10120000E0E0F0E181E880838FEF8083AC960FB659
:10121000F894DEBF0FBECDBFDF91CF911F910F912C
:10122000FF90EF90DF90CF90BF90AF909F908F9006
:101230007F906F905F904F9008950E945B082CEC18
:101240008CE091E0215080409040E1F700C0F5CF64
:1012500087B3806B87BBBE9881E58DB908958FB940
:10126000779BFECF8FB190E00895EF92FF920F939E
:101270001F93CF93DF9381E792E00E94D40B0E94EB
:101280005C0B7C010E94610BC0E0D8E100E010E043
:101290000E945C0B88839881981711F00F5F1F4F95
:1012A0002196C11580E2D80799F7C7010E94610B0A
:1012B000C0E0D8E1E12CF12C0E945C0B98819817DA
:1012C00019F08FEFE81AF80A2196C11580E2D807C5
:1012D00099F7FF92EF921F930F9387E892E09F9305
:1012E0008F930E94C00B0F900F900F900F900F9054
:1012F0000F90DF91CF911F910F91FF90EF90089584
:101300001FBC1EBC8EB585608EBD8EB58D7F8EBD1B
:101310008FB58E7F8FBD8FB58D7F8FBD8EB5877F4B
:101320008EBD8EB58F7E8EBDABE8B0E01C92EAE834
:10133000F0E0108280818560808380818D7F808352
:101340008C918E7F8C938C918D7F8C938081877F05
:10135000808380818F7E80830895811103C02CB5A6
:101360003DB50DC0813019F423B530E008C082309E
:1013700029F4209188003091890001C00895822FBE
:10138000932F0895811103C01DBC1CBC08958130AA
:1013900011F413BC0895823021F410928900109248
:1013A000880008955D9BFECF8CB908955F9BFECFAA
:1013B0008CB1089590BD89B988E18AB986E880BD6D
:1013C00066ED79E082ED99E00E94750B0895CF9368
:1013D000DF938230910510F482E090E0E091F80212
:1013E000F091F90220E030E0A0E0B0E0309739F170
:1013F0004081518148175907B8F04817590771F4CF
:1014000082819381109729F013969C938E93129763
:101410002CC09093F9028093F80227C02115310562
:1014200031F04217530718F0A901DB0101C0EF01A9
:101430009A01BD01DF010280F381E02DD7CF211594
:101440003105F9F0281B390B2430310580F48A81ED
:101450009B816115710521F0FB019383828304C098
:101460009093F9028093F802FE01329644C0FE0187
:10147000E20FF31F8193919322503109398328831E
:101480003AC02091F6023091F702232B41F42091CB
:101490000201309103013093F7022093F60220916C
:1014A0000001309101012115310541F42DB73EB7FE
:1014B0004091040150910501241B350BE091F60287
:1014C000F091F702E217F307A0F42E1B3F0B281749
:1014D000390778F0AC014E5F5F4F2417350748F0AD
:1014E0004E0F5F1F5093F7024093F6028193919342
:1014F00002C0E0E0F0E0CF01DF91CF910895CF93FB
:10150000DF93009709F487C0FC013297138212829F
:10151000C091F802D091F902209781F420813181A5
:10152000280F391F8091F6029091F70282179307D6
:1015300079F5F093F702E093F6026DC0DE0120E04A
:1015400030E0AE17BF0750F412964D915C9113979F
:101550009D014115510509F1DA01F3CFB383A2834F
:1015600040815181840F951F8A179B0771F48D91DB
:101570009C911197840F951F0296918380831296F8
:101580008D919C911397938382832115310529F4C2
:10159000F093F902E093F8023EC0D9011396FC9350
:1015A000EE9312974D915D91A40FB51FEA17FB07BB
:1015B00079F480819181840F951F0296D90111964B
:1015C0009C938E938281938113969C938E93129712
:1015D000E0E0F0E08A819B81009719F0FE01EC01C8
:1015E000F9CFCE01029628813981820F931F209175
:1015F000F6023091F7022817390769F4309729F479
:101600001092F9021092F80202C013821282D09353
:10161000F702C093F602DF91CF9108958F929F92C7
:10162000AF92BF92CF92DF92EF92FF92CF93DF9370
:10163000EC01688179818A819B8161157105810541
:10164000910521F464E279ED8BE597E02DE133EF2C
:1016500041E050E00E949C0E49015A019B01AC01FF
:10166000A7EAB1E40E94BB0E6B017C01ACEEB4EFC3
:10167000A50194010E94C90EC60ED71EE81EF91ED0
:10168000F7FE06C081E0C81AD108E10880E8F80A30
:10169000C882D982EA82FB82C6019F77DF91CF910F
:1016A000FF90EF90DF90CF90BF90AF909F908F9082
:1016B00008950E940E0B089586E091E00E940E0BA3
:1016C0000895A0E0B0E08093060190930701A093F5
:1016D0000801B09309010895FB01DC018D9101908F
:1016E00080190110D9F3990B08950F931F93CF938D
:1016F000DF93EC018B01009731F46115710519F44A
:1017000080E090E038C06EE070E081E090E00E9400
:10171000D30DFC010097A1F380E883830115110527
:1017200071F01387028781E883838091FA02909198
:10173000FB02892B21F4F093FB02E093FA0220973D
:10174000C9F0D187C0878381826083838091FC0246
:101750009091FD02892B71F4F093FD02E093FC025D
:101760008091FE029091FF02892B21F4F093FF02F9
:10177000E093FE02CF01DF91CF911F910F91089569
:10178000A0E0B0E0E6ECFBE00C94DE0EFE01359646
:1017900061917191AF018091FC029091FD020E94D4
:1017A000010CE2E00C94FA0E0F931F93CF93DF939A
:1017B000E091FC02F091FD02238121FF1BC0EC01AE
:1017C00000E010E089916091FC027091FD02DB0164
:1017D0001896ED91FC911997882331F00995892B82
:1017E00089F30FEF1FEFEECF8AE00995892B11F4F3
:1017F000C80102C08FEF9FEFDF91CF911F910F9132
:101800000895ACE0B0E0E7E0FCE00C94CE0E7C0183
:101810006B018A01FC0117821682838181FFBDC1A1
:10182000CE0101964C01F7019381F60193FD85915C
:1018300093FF81916F01882309F4ABC1853239F49C
:1018400093FD859193FF81916F01853229F4B70152
:1018500090E00E940C0EE7CF512C312C20E020327A
:10186000A0F48B3269F030F4803259F0833269F49D
:1018700020612CC08D3239F0803339F4216026C0CC
:101880002260246023C0286021C027FD27C030EDDE
:10189000380F3A3078F426FF06C0FAE05F9E300D2C
:1018A0001124532E13C08AE0389E300D1124332E9C
:1018B00020620CC08E3221F426FD6BC1206406C06C
:1018C0008C3611F4206802C0883641F4F60193FD8D
:1018D000859193FF81916F018111C1CF982F9F7DD9
:1018E0009554933028F40C5F1F4FFFE3F9830DC02C
:1018F000833631F0833771F0833509F05BC022C045
:10190000F801808189830E5F1F4F44244394512C3A
:10191000540115C03801F2E06F0E711CF801A0806F
:10192000B18026FF03C0652D70E002C06FEF7FEF2E
:10193000C5012C870E94010E2C0183012C852F7775
:10194000222E17C03801F2E06F0E711CF801A08042
:10195000B18026FF03C0652D70E002C06FEF7FEFFE
:10196000C5012C870E94EF0D2C012C852068222EAA
:10197000830123FC1BC0832D90E048165906B0F468
:10198000B70180E290E00E940C0E3A94F4CFF5018A
:1019900027FC859127FE81915F01B70190E00E94AD
:1019A0000C0E31103A94F1E04F1A510841145104D1
:1019B00071F7E5C0843611F0893639F5F80127FF53
:1019C00007C060817181828193810C5F1F4F08C0C5
:1019D00060817181882777FD8095982F0E5F1F4F5A
:1019E0002F76B22E97FF09C09095809570956195DE
:1019F0007F4F8F4F9F4F2068B22E2AE030E0A40126
:101A00000E943E0EA82EA81844C0853729F42F7EC8
:101A1000B22E2AE030E025C0F22FF97FBF2E8F369C
:101A2000C1F018F4883579F0B4C0803719F08837E0
:101A300021F0AFC02F2F2061B22EB4FE0DC08B2D30
:101A40008460B82E09C024FF0AC09F2F9660B92E6B
:101A500006C028E030E005C020E130E002C020E10F
:101A600032E0F801B7FE07C0608171818281938105
:101A70000C5F1F4F06C06081718180E090E00E5FB7
:101A80001F4FA4010E943E0EA82EA818FB2DFF7721
:101A9000BF2EB6FE0BC02B2D2E7FA51450F4B4FE26
:101AA0000AC0B2FC08C02B2D2E7E05C07A2C2B2D2F
:101AB00003C07A2C01C0752C24FF0DC0FE01EA0D75
:101AC000F11D8081803311F4297E09C022FF06C0F8
:101AD0007394739404C0822F867809F0739423FD65
:101AE00013C020FF06C05A2C731418F4530C571857
:101AF000732C731468F4B70180E290E02C870E9485
:101B00000C0E73942C85F5CF731410F4371801C0A4
:101B1000312C24FF12C0B70180E390E02C870E9493
:101B20000C0E2C8522FF17C021FF03C088E590E032
:101B300002C088E790E0B7010CC0822F867859F088
:101B400021FD02C080E201C08BE227FD8DE2B701DA
:101B500090E00E940C0EA51438F4B70180E390E0E9
:101B60000E940C0E5A94F7CFAA94F401EA0DF11DCD
:101B70008081B70190E00E940C0EA110F5CF3320B8
:101B800009F451CEB70180E290E00E940C0E3A9425
:101B9000F6CFF7018681978102C08FEF9FEF2C96D9
:101BA000E2E10C94EA0E0F931F93CF93DF93869F8D
:101BB0008001879F100D969F100D1124C8010E946F
:101BC000E709EC01009729F0A80160E070E00E94AD
:101BD000FA0DCE01DF91CF911F910F910895FC0175
:101BE0000590615070400110D8F7809590958E0F48
:101BF0009F1F0895DC0101C06D9341505040E0F7F4
:101C00000895FC016150704001900110D8F7809553
:101C100090958E0F9F1F08950F931F93CF93DF937F
:101C2000182F092FEB018B8181FD03C08FEF9FEFF0
:101C300020C082FF10C04E815F812C813D81421700
:101C400053077CF4E881F9819F012F5F3F4F39836F
:101C50002883108306C0E885F985812F0995892B93
:101C600029F72E813F812F5F3F4F3F832E83812FA6
:101C7000902FDF91CF911F910F910895FA01AA271C
:101C8000283051F1203181F1E8946F936E7F6E5FBF
:101C90007F4F8F4F9F4FAF4FB1E03ED0B4E03CD06D
:101CA000670F781F891F9A1FA11D680F791F8A1F50
:101CB000911DA11D6A0F711D811D911DA11D20D0B7
:101CC00009F468943F912AE0269F11243019305D71
:101CD0003193DEF6CF010895462F4770405D419362
:101CE000B3E00FD0C9F7F6CF462F4F70405D4A33AF
:101CF00018F0495D31FD4052419302D0A9F7EACF77
:101D0000B4E0A6959795879577956795BA95C9F7A5
:101D100000976105710508959B01AC010A2E069498
:101D20005795479537952795BA95C9F7620F731F51
:101D3000841F951FA01D0895052E97FB1EF4009487
:101D40000E94B30E57FD07D00E94050F07FC03D079
:101D50004EF40C94B30E50954095309521953F4F1D
:101D60004F4F5F4F089590958095709561957F4F87
:101D70008F4F9F4F08950E94270FA59F900DB49FEE
:101D8000900DA49F800D911D11240895B7FF0C9410
:101D9000BB0E0E94BB0E821B930B08952F923F92A5
:101DA0004F925F926F927F928F929F92AF92BF926B
:101DB000CF92DF92EF92FF920F931F93CF93DF9317
:101DC000CDB7DEB7CA1BDB0B0FB6F894DEBF0FBE74
:101DD000CDBF09942A88398848885F846E847D84C1
:101DE0008C849B84AA84B984C884DF80EE80FD80C3
:101DF0000C811B81AA81B981CE0FD11D0FB6F89439
:101E0000DEBF0FBECDBFED010895A1E21A2EAA1BC1
:101E1000BB1BFD010DC0AA1FBB1FEE1FFF1FA2179A
:101E2000B307E407F50720F0A21BB30BE40BF50B97
:101E3000661F771F881F991F1A9469F76095709520
:101E4000809590959B01AC01BD01CF010895A29FA3
:101E5000B001B39FC001A39F700D811D1124911D7E
:101E6000B29F700D811D1124911D0895F894FFCF2C
:101E7000000000032000010000000A0A53656E64A0
:101E8000204944203D2031300952656369657665FB
:101E900064204944203D2025640A53656E64204C2B
:101EA000656E677468203D20310952656369657607
:101EB0006564204C656E677468203D2025640A5374
:101EC000656E642044617461203D202754270952C7
:101ED000656369657665642044617461203D2025F1
:101EE000630A0A000A0A53656E64204944203D20B3
:101EF00025640A53656E64204C656E677468203DE6
:101F00002025640A53656E642044617461203D207D
:101F100025630A0A00436F727265637420494400A6
:101F200052657475726E00506C6179696E672067D6
:101F3000616D65004D61696E004552524F523A2005
:101F40004D435032353135206973204E4F5420694E
:101F50006E20636F6E666967206D6F6465206166D1
:101F6000746572207265736574210047616D6573D5
:101F70000047616D6500536E616B65005365747455
:101F8000696E677300436F6E747261737400546F8F
:101F900067676C65206E6567617469766500536577
:101FA000697A7572650054657374730043616E00DD
:101FB0004C6F6F706261636B005352414D006E6FE6
:101FC00020736E616B65207965740072657475723B
:101FD0006E00200A006C65667420736C696465721B
:101FE000005374617274696E67205352414D2074BE
:101FF0006573742E2E2E005352414D2074657374F8
:1020000020636F6D706C65746564207769746820F7
:102010000A253464206572726F727320696E2077AE
:102020007269746520706861736520616E64200A4E
:10203000253464206572726F727320696E20726538
:102040007472696576616C2070686173650A0A0054
:00000001FF
