S01C00004279676765726E477275707065343848323031352E737265634B
S11300000C94B4010C94D1010C94D1010C94D10141
S11300100C94D1010C94D1010C94D1010C94D10114
S11300200C94D1010C94D1010C94D1010C94D10104
S11300300C94D1010C94D1010C94D1010C94D101F4
S11300400C94D1010C94D1010C94D1010C94D101E4
S11300500C94D1010C94D1010C94D1010C94D101D4
S11300600C94D1010C94D1010C94D1010C94D101C4
S1130070000000000000000000065F5F06000000B2
S11300800007070007070000147F7F147F7F140018
S1130090242E6B6B3A120000466630180C66620020
S11300A0307A4F5D377A48000407030000000000EF
S11300B0001C3E63410000000041633E1C00000040
S11300C0082A3E1C1C3E2A0808083E3E0808000078
S11300D000A0E0600000000008080808080800000C
S11300E000006060000000006030180C060301008E
S11300F03E7F594D7F3E000042427F7F40400000DA
S1130100627359496F660000226349497F360000D3
S1130110181C16137F7F1000276745457D390000A2
S11301203C7E4B4979300000036371190F070000CE
S1130130367F49497F360000064F49693F1E00005B
S113014000006C6C0000000000A0EC6C00000000DB
S1130150081C366341000000141414141414000025
S1130160004163361C080000020351590F060000C9
S11301703E7F415D5D1F1E007C7E13137E7C00006C
S1130180417F7F49497F36001C3E63414163220021
S1130190417F7F41637F1C00417F7F495D41630054
S11301A0417F7F491D0103001C3E6341517372006E
S11301B07F7F08087F7F000000417F7F41000000AF
S11301C0307040417F3F0100417F7F081C7763000E
S11301D0417F7F41406070007F7F060C067F7F0077
S11301E07F7F060C187F7F001C3E6341633E1C002A
S11301F0417F7F49090F06001E3F21717F5E000089
S1130200417F7F19396F460026674D597B320000C4
S113021003417F7F410300007F7F40407F7F0000D8
S11302201F3F60603F1F00007F7F3018307F7F00DA
S113023063771C081C776300074F78784F0700002A
S11302406773594D47637100007F7F41410000008F
S11302500103060C183060000041417F7F0000005C
S1130260080C0603060C0800808080808080808053
S11302700000030704000000207454543C7840003C
S1130280413F7F44447C3800387C44446C2800005F
S1130290307848493F7F4000387C54545C18000053
S11302A0487E7F490302000098BCA4A4F87C0400A3
S11302B0417F7F08047C780000447D7D400000007D
S11302C040C484FD7D000000417F7F10386C4400F1
S11302D000417F7F400000007C7C0C180C7C78007F
S11302E07C7C04047C780000387C44447C38000026
S11302F084FCF8A4243C1800183C24A4F8FC8400D2
S1130300447C78441C180000485C54547424000055
S113031000043E7F442400003C7C40403C7C400080
S11303201C3C60603C1C00003C7C6030607C3C00F9
S1130330446C3810386C44009CBCA0A0FC7C0000C9
S11303404C64745C4C64000008083E774141000032
S113035000000077770000004141773E0808000064
S1130360020301030203010011241FBECFEFD4E0F6
S1130370DEBFCDBF11E0A0E0B1E0EEE3FEE002C0DD
S113038005900D92A638B107D9F721E0A6E8B1E0AF
S113039001C01D92A839B207E1F70E94F8020C943B
S11303A01D070C940000CF93DF93EC010E946003BF
S11303B04FEF50E060E670E080E690E00E94420378
S11303C04FEF50E060E670E080E790E00E94420367
S11303D0AE0160EE70E08FE090E00E94420330983E
S11303E0DF91CF9108958F929F92AF92BF92CF9257
S11303F0DF92EF92FF920F931F93CF93DF9300D07E
S1130400CDB7DEB75C017B014FEF50E068E070E0F0
S1130410C7010E944203C7010E941C0383FDFBCF56
S1130420F50180819181282F2295220F207E298336
S11304309695879596958795969587958A836981EC
S113044070E0C70102960E942B036A8170E0C70125
S113045001960E942B03F50162816F7070E0C70161
S113046005960E942B03F50182818823D9F065014A
S1130470F3E0CF0ED11C00E010E0470186E0880EC7
S1130480911CF60161916F0170E0C401800F911F0E
S11304900E942B030F5F1F4FF501828190E0081724
S11304A019077CF3F0E3EF16F10459F080E4E81641
S11304B0F10451F0E0E5EE16F10451F484E890E023
S11304C005C081E890E002C082E890E00E943D030C
S11304D00F900F90DF91CF911F910F91FF90EF90AC
S11304E0DF90CF90BF90AF909F908F900895CF935F
S11304F0DF93CDB7DEB72B970FB6F894DEBF0FBEF0
S1130500CDBF80910601909107019A83898387E08A
S11305108B830E94AD028C830E94B8028D830E945B
S1130520E3028E830E94C3028F830E94CD028887D8
S11305300E94EA0289870E94F1028A8760E370E0E0
S1130540CE0101960E94F3012B960FB6F894DEBFFC
S11305500FBECDBFDF91CF91089584E08093001446
S113056081E48A95F1F700C08091001490E0089529
S113057085E08093001481E48A95F1F700C08091AE
S1130580001490E0089586E08093001481E48A9535
S1130590F1F700C080910014089587E0809300145F
S11305A081E48A95F1F700C0809100140895B99808
S11305B087B3817087BB87B3827087BB87B384702E
S11305C087BBC29A089581E090E0B39B02C080E0AB
S11305D090E0089581E090E0B19902C080E090E05D
S11305E0089581E090E0B09902C080E090E0089521
S11305F06AE475E086E495E00E94820685B7806827
S113060085BF8FE190E00E944E050E94D7020E94B0
S1130610E80390938B0180938A01109289011092D0
S1130620880180E090E00E94D3010E9443040E946C
S1130630D2040E947702FBCFCF93C82FC49883E0E3
S11306400E9440058C2F0E94400580E00E944005D6
S1130650C49ACF910895CF93DF93D82FC62FC4980F
S113066082E00E9440058D2F0E9440058C2F0E943D
S11306704005C49ADF91CF910895C4980E94400523
S1130680C49A08951F93CF93DF93182FD62FC42FA6
S1130690C49885E00E944005812F0E9440058D2F5B
S11306A00E9440058C2F0E944005C49ADF91CF918F
S11306B01F910895C49880EC0E944005C49A08953F
S11306C00E9439050E945A038EE090E00E941C03A8
S11306D0807E99278038910539F088E091E00E9466
S11306E0CD0681E090E0089580E090E008950895BB
S11306F00E94120543E050E068E070E08AE391E074
S11307000E94BC0447E050E060E070E087E491E0C0
S11307100E94BC040E94D2040E94EA02892B41F385
S11307200895DF92EF92FF920F931F93CF93DF937D
S11307307C018B01D42E89E090E00E945B05EC01E2
S1130740FE82ED8218870F83D8824D2D50E0CA01B6
S1130750880F991F880F991F880F991F840F951F61
S11307600E945B059A838983CE01DF91CF911F910B
S11307700F91FF90EF90DF9008951F93CF93DF9335
S1130780EC018881882301F110E0812F90E0880F2B
S1130790991FE981FA81E80FF91F0190F081E02D9A
S11307A0D483C38329813A81F901E80FF91F0190A9
S11307B0F081E02D8081882319F0CF010E94BD03D0
S11307C01F5F8881181708F3DF91CF911F91089557
S11307D00F931F93CF93DF9343E060E070E08EE4C8
S11307E091E00E949103EC0109811A8140E068E7DD
S11307F073E083E591E00E949103F8019183808383
S113080009811A8142E060E070E089E591E00E948C
S11308109103F80193838283E981FA810280F38151
S1130820E02D0181128140E068E375E082E691E009
S11308300E949103F80191838083E981FA81028007
S1130840F381E02D0181128140E060E275E08BE6E6
S113085091E00E949103F8019383828309811A81B4
S113086040E067E773E08BE791E00E949103F801B1
S113087095838483CE010E94BD03CE01DF91CF9185
S11308801F910F910895E0E0F0E18EEA808381EA00
S113089080838AED808382E1808388EC808388EA88
S11308A080838FE3808385ED808380E8808381E883
S11308B0808380E5808389ED808381E2808390E278
S11308C0908310829BED908390E390839DEA9083C4
S11308D0108294EA908396EA90839FEA90838083BF
S11308E010828FE7808392E2908310828083089540
S11308F00F931F93CF93DF93FB0140815181569552
S1130900542F44275795479522813381420F531F13
S1130910FC012081222359F1BC016F5F7F4FEC0160
S113092000E010E01FC0DC01A20FB31FE881F0E07B
S1130930B097EE0FFF1FEE0FFF1FEE0FFF1FE20F2A
S1130940F31FE059FF4FE491EC932F5F3F4F2830A2
S1130950310549F7EB016F5F7F4F485F5F4F888137
S1130960882329F0202F312FCA01985EDCCFDF9134
S1130970CF911F910F910895CF93DF9300D000D0B2
S1130980CDB7DEB75A8349837C836B83BE016F5F27
S11309907F4F0E9478040F900F900F900F90DF917B
S11309A0CF910895E0E0F8E1A0E0B2E181918C9369
S11309B0E1158CE1F807D1F70895CF92DF92EF9219
S11309C0FF920F931F93CF93DF9300D000D000D0FA
S11309D0CDB7DEB76C0100E010E06894EE24E5F8D2
S11309E0F12CDC82CB821E830D83FA82E982BE0164
S11309F06D5F7F4FCE0101960E947804085F1F4F00
S1130A000038110571F726960FB6F894DEBF0FBEB5
S1130A10CDBFDF91CF911F910F91FF90EF90DF90A9
S1130A20CF900895CF93DF93C0E0D0E0CE010E9431
S1130A30DD042196C830D105C9F7DF91CF9108951F
S1130A408091860190918701892B41F086EA8093F9
S1130A5000101092870110928601089587EA80930E
S1130A60001081E090E090938701809386010895BF
S1130A70089587B3806B87BBBE9881E58DB90895CF
S1130A808FB9779BFECF8FB190E008955D9BFECF29
S1130A908CB908955F9BFECF8CB1089590BD89B940
S1130AA088E18AB986E880BD6AE475E086E495E069
S1130AB00E9482060895CF93DF938230910510F44B
S1130AC082E090E0E0919001F091910120E030E02B
S1130AD0A0E0B0E0309739F14081518148175907BF
S1130AE0B8F04817590771F482819381109729F05F
S1130AF013969C938E9312972CC09093910180939C
S1130B00900127C02115310531F04217530718F021
S1130B10A901DB0101C0EF019A01BD01DF010280DF
S1130B20F381E02DD7CF21153105F9F0281B390BBE
S1130B302430310580F48A819B816115710521F08F
S1130B40FB019383828304C090939101809390016D
S1130B50FE01329644C0FE01E20FF31F819391938C
S1130B6022503109398328833AC020918E01309173
S1130B708F01232B41F42091020130910301309322
S1130B808F0120938E0120910001309101012115E4
S1130B90310541F42DB73EB7409104015091050150
S1130BA0241B350BE0918E01F0918F01E217F307BE
S1130BB0A0F42E1B3F0B2817390778F0AC014E5FC9
S1130BC05F4F2417350748F04E0F5F1F50938F0176
S1130BD040938E018193919302C0E0E0F0E0CF0155
S1130BE0DF91CF910895CF93DF93009709F487C0E5
S1130BF0FC01329713821282C0919001D09191012D
S1130C00209781F420813181280F391F80918E0132
S1130C1090918F018217930779F5F0938F01E093F8
S1130C208E016DC0DE0120E030E0AE17BF0750F446
S1130C3012964D915C9113979D014115510509F14F
S1130C40DA01F3CFB383A28340815181840F951FCE
S1130C508A179B0771F48D919C911197840F951FAE
S1130C6002969183808312968D919C91139793831E
S1130C7082832115310529F4F0939101E0939001C9
S1130C803EC0D9011396FC93EE9312974D915D915A
S1130C90A40FB51FEA17FB0779F480819181840FB3
S1130CA0951F0296D90111969C938E93828193810C
S1130CB013969C938E931297E0E0F0E08A819B81D7
S1130CC0009719F0FE01EC01F9CFCE0102962881BC
S1130CD03981820F931F20918E0130918F01281743
S1130CE0390769F4309729F4109291011092900118
S1130CF002C013821282D0938F01C0938E01DF91C0
S1130D00CF9108950F931F93CF93DF93EC018B0141
S1130D10009731F46115710519F480E090E038C052
S1130D206EE070E081E090E00E94FA06FC0100971A
S1130D30A1F380E883830115110571F013870287FD
S1130D4081E883838091920190919301892B21F40E
S1130D50F0939301E09392012097C9F0D187C08763
S1130D608381826083838091940190919501892B82
S1130D7071F4F0939501E093940180919601909120
S1130D809701892B21F4F0939701E0939601CF0109
S1130D90DF91CF911F910F9108950F931F93CF93DC
S1130DA0DF93E0919401F0919501238121FF1BC011
S1130DB0EC0100E010E0899160919401709195013B
S1130DC0DB011896ED91FC911997882331F0099570
S1130DD0892B89F30FEF1FEFEECF8AE00995892B5A
S1130DE011F4C80102C08FEF9FEFDF91CF911F91E3
S1130DF00F9108950F931F93CF93DF93869F8001E4
S1130E00879F100D969F100D1124C8010E945B0549
S1130E10EC01009729F0A80160E070E00E94160739
S1130E20CE01DF91CF911F910F910895DC0101C094
S1110E306D9341505040E0F70895F894FFCFC1
S1130E3E00009801200007004552524F523A204DAF
S1130E4E435032353135206973204E4F5420696E2C
S1130E5E20636F6E666967206D6F646520616674CA
S1130E6E657220726573657421006E6F20736E61F6
S1130E7E6B65207965740072657475726E004D61D0
S1130E8E696E00536E616B650053657474696E67A9
S1130E9E7300436F6E747261737400546F67676C82
S1130EAE65206E656761746976650050696E6720AA
S1090EBE506F6E67000096
S9030000FC
