S01C00004279676765726E477275707065343848323031352E737265634B
S11300000C94B4010C94D1010C94D1010C94D10141
S11300100C94D1010C94D1010C94D1010C94D10114
S11300200C94D1010C94D1010C94D1010C94D10104
S11300300C94D1010C94D1010C94D1010C94D101F4
S11300400C94D1010C94D1010C94D1010C94D101E4
S11300500C94D1010C94D1010C94D1010C94D101D4
S11300600C94D1010C94D1010C94D1010C94D101C4
S1130070000000000000000000065F5F06000000B2
S11300800007070007070000147F7F147F7F140018
S1130090242E6B6B3A120000466630180C66620020
S11300A0307A4F5D377A48000407030000000000EF
S11300B0001C3E63410000000041633E1C00000040
S11300C0082A3E1C1C3E2A0808083E3E0808000078
S11300D000A0E0600000000008080808080800000C
S11300E000006060000000006030180C060301008E
S11300F03E7F594D7F3E000042427F7F40400000DA
S1130100627359496F660000226349497F360000D3
S1130110181C16137F7F1000276745457D390000A2
S11301203C7E4B4979300000036371190F070000CE
S1130130367F49497F360000064F49693F1E00005B
S113014000006C6C0000000000A0EC6C00000000DB
S1130150081C366341000000141414141414000025
S1130160004163361C080000020351590F060000C9
S11301703E7F415D5D1F1E007C7E13137E7C00006C
S1130180417F7F49497F36001C3E63414163220021
S1130190417F7F41637F1C00417F7F495D41630054
S11301A0417F7F491D0103001C3E6341517372006E
S11301B07F7F08087F7F000000417F7F41000000AF
S11301C0307040417F3F0100417F7F081C7763000E
S11301D0417F7F41406070007F7F060C067F7F0077
S11301E07F7F060C187F7F001C3E6341633E1C002A
S11301F0417F7F49090F06001E3F21717F5E000089
S1130200417F7F19396F460026674D597B320000C4
S113021003417F7F410300007F7F40407F7F0000D8
S11302201F3F60603F1F00007F7F3018307F7F00DA
S113023063771C081C776300074F78784F0700002A
S11302406773594D47637100007F7F41410000008F
S11302500103060C183060000041417F7F0000005C
S1130260080C0603060C0800808080808080808053
S11302700000030704000000207454543C7840003C
S1130280413F7F44447C3800387C44446C2800005F
S1130290307848493F7F4000387C54545C18000053
S11302A0487E7F490302000098BCA4A4F87C0400A3
S11302B0417F7F08047C780000447D7D400000007D
S11302C040C484FD7D000000417F7F10386C4400F1
S11302D000417F7F400000007C7C0C180C7C78007F
S11302E07C7C04047C780000387C44447C38000026
S11302F084FCF8A4243C1800183C24A4F8FC8400D2
S1130300447C78441C180000485C54547424000055
S113031000043E7F442400003C7C40403C7C400080
S11303201C3C60603C1C00003C7C6030607C3C00F9
S1130330446C3810386C44009CBCA0A0FC7C0000C9
S11303404C64745C4C64000008083E774141000032
S113035000000077770000004141773E0808000064
S1130360020301030203010011241FBECFEFD4E0F6
S1130370DEBFCDBF13E0A0E0B1E0E4E7FCE202C0E1
S113038005900D92A834B107D9F723E0A8E4B3E0AF
S113039001C01D92AE39B207E1F70E94F3090C9433
S11303A038160C940000CF93DF93EC010E943204C2
S11303B04FEF50E060E670E080E690E00E941404A5
S11303C04FEF50E060E670E080E790E00E94140494
S11303D0AE0160EE70E08FE090E00E94140430986B
S11303E0DF91CF9108958F929F92AF92BF92CF9257
S11303F0DF92EF92FF920F931F93CF93DF9300D07E
S1130400CDB7DEB75C017B014FEF50E068E070E0F0
S1130410C7010E941404C7010E94EE0383FDFBCFB1
S1130420F50180819181282F2295220F207E298336
S11304309695879596958795969587958A836981EC
S113044070E0C70102960E94FD036A8170E0C70153
S113045001960E94FD03F50162816F7070E0C7018F
S113046005960E94FD03F50182818823D9F0650178
S1130470F3E0CF0ED11C00E010E0470186E0880EC7
S1130480911CF60161916F0170E0C401800F911F0E
S11304900E94FD030F5F1F4FF501828190E0081752
S11304A019077CF3F0E3EF16F10459F080E4E81641
S11304B0F10451F0E0E5EE16F10451F484E890E023
S11304C005C081E890E002C082E890E00E940F0439
S11304D00F900F90DF91CF911F910F91FF90EF90AC
S11304E0DF90CF90BF90AF909F908F900895289BFE
S11304F0FECF8CE290E00E94EE0380FD08C08CE207
S113050090E00E94EE0381FF04C080E7089580E636
S113051008958FEF08957F928F929F92AF92BF922A
S1130520CF92DF92EF92FF920F931F93CF93DF93BB
S1130530CDB7DEB72B970FB6F894DEBF0FBECDBF95
S11305406C010E947702982E082F10E0C8010196D2
S11305500E94EE037C01C80102960E94EE03959569
S1130560879595958795959587959595879595956F
S11305708795EE0CFF1CEE0CFF1CEE0CFF1C5C01BF
S1130580AE28BF28C80105960E94EE038F70782E0E
S1130590B1F08E010C5F1F4F812CCE018095909598
S11305A003967C01E90CF11CC701800F911F0E9486
S11305B0EE03F80181938F0183948710F5CFF0E661
S11305C09F1621F080E7981651F011C040E050E0EA
S11305D061E070E08CE290E00E94140408C040E006
S11305E050E062E070E08CE290E00E941404BA8271
S11305F0A9827B828BE0FE013196D60101900D9297
S11306008A95E1F7C6012B960FB6F894DEBF0FBEAC
S1130610CDBFDF91CF911F910F91FF90EF90DF90AD
S1130620CF90BF90AF909F908F907F900895CF937D
S1130630DF93CDB7DEB7A1970FB6F894DEBF0FBE38
S1130640CDBF80E490E00E94D3018CE291E09A83D4
S1130650898381E08B8384E58C8360E370E0CE0141
S113066001960E94F301BE01645F7F4FCE0147965D
S11306700E948B028A8D1F928F93898D1F928F9374
S1130680888D8F938F898F9381E191E09F938F93CE
S11306900E94A6120FB6F894DEBF0FBECDBFA1967E
S11306A00FB6F894DEBF0FBECDBFDF91CF91089592
S11306B0CF93DF93CDB7DEB72B970FB6F894DEBF99
S11306C00FBECDBF87E090E09A8389838B830E941D
S11306D0A7098C830E94B2098D830E94E7098E8347
S11306E00E94C7098F830E94D10988870E94EB0961
S11306F089870E94EF098A8760E370E0CE01019642
S11307000E94F3012B960FB6F894DEBF0FBECDBF47
S1130710DF91CF9108958F929F92AF92BF92CF9223
S1130720DF92EF92FF920F931F93CF93DF93CDB796
S1130730DEB72B970FB6F894DEBF0FBECDBF8C018A
S1130740BE016F5F7F4F0E948B02F801828093800D
S1130750A480B580C680D780E084F18480819181B3
S11307600797F1F48CEA91E00E94BA12F8018282B0
S11307709382A482B582C682D782E086F1868BE01A
S1130780ACE4B3E001900D928A95E1F7F80182821E
S11307909382A482B582C682D782E086F1860AC09B
S11307A087E0F801828313821482158216821782ED
S11307B010861186C8012B960FB6F894DEBF0FBEC3
S11307C0CDBFDF91CF911F910F91FF90EF90DF90FC
S11307D0CF90BF90AF909F908F900895CF93C82FE4
S11307E0C49883E00E9450048C2F0E94500480E03F
S11307F00E945004C49ACF910895CF93DF93D82FC9
S1130800C62FC49882E00E9450048D2F0E94500489
S11308108C2F0E945004C49ADF91CF910895C498FC
S11308200E945004C49A08951F93CF93DF93182F06
S1130830D62FC42FC49885E00E945004812F0E94B3
S113084050048D2F0E9450048C2F0E945004C49A8F
S1130850DF91CF911F910895C49880EC0E945004B9
S1130860C49A08950E9449040E942C048EE090E0EA
S11308700E94EE03807E99278038910539F087EB3A
S113088091E00E94BA1281E090E0089580E090E047
S1130890089587B3806B87BBBE9881E58DB90895B1
S11308A08FB9779BFECF8FB190E008955D9BFECF0B
S11308B08CB908955F9BFECF8CB1089590BD89B922
S11308C088E18AB986E880BD6AE574E086E594E04B
S11308D00E945B120895EF92FF920F931F93CF93A0
S11308E0DF930E946A0B7C010E943D06C7010E94AF
S11308F0FD0B40E050E060E070E00E94CC05D701C1
S11309008C918823E9F000E010E0C0E0D0E021966B
S1130910D7011196ED91FC911297E00FF11F8081A0
S113092091810E94FD0BAE0168E070E00E94CC054D
S11309300E5F1F4FF701808190E0C817D9073CF381
S1130940DF91CF911F910F91FF90EF900895CF9376
S1130950DF93C0915D03D0915E0369EE71E08D81F8
S11309609E810E945212892B39F4CE010E945D0BA4
S113097090935E0380935D030E94BD0987349105C3
S1130980A4F080915D0390915E030E945D0B9093AF
S11309905E0380935D032FEF8FEF92E02150804040
S11309A09040E1F700C000C06AC00E94BD098A3BC4
S11309B09F4FA4F480915D0390915E030E946A0BA3
S11309C090935E0380935D038FEF9FEF22E081504D
S11309D090402040E1F700C000C051C00E94C2090D
S11309E087349105A4F080915D0390915E030E9489
S11309F09F0B90935E0380935D038FEF9FEF22E044
S1130A00815090402040E1F700C000C038C00E94EF
S1130A10C2098A3B9F4FE4F480915D0390915E0389
S1130A200E94710B892B59F180915D0390915E03B3
S1130A300E94710B90935E0380935D038FEF9FEF91
S1130A4022E0815090402040E1F700C000C017C070
S1130A500E94EF09882399F0E0915D03F0915E0311
S1130A600780F085E02D309751F009958FEF9FEFC7
S1130A7022E0815090402040E1F700C000C0DF91A7
S1130A80CF91089580915D0390915E030E946B0461
S1130A900E94A70480915D0390915E030E94CE0B97
S1130AA00E94F9050895E0E0F0E18EEA808381EA8E
S1130AB080838AED808382E1808388EC808388EA66
S1130AC080838FE3808385ED808380E8808381E861
S1130AD0808380E5808389ED808381E2808390E256
S1130AE0908310829BED908390E390839DEA9083A2
S1130AF0108294EA908396EA90839FEA908380839D
S1130B0010828FE7808392E290831082808308951D
S1130B100F931F93CF93DF93FB014081518156952F
S1130B20542F44275795479522813381420F531FF1
S1130B30FC012081222359F1BC016F5F7F4FEC013E
S1130B4000E010E01FC0DC01A20FB31FE881F0E059
S1130B50B097EE0FFF1FEE0FFF1FEE0FFF1FE20F08
S1130B60F31FE059FF4FE491EC932F5F3F4F283080
S1130B70310549F7EB016F5F7F4F485F5F4F888115
S1130B80882329F0202F312FCA01985EDCCFDF9112
S1130B90CF911F910F910895CF93DF9300D000D090
S1130BA0CDB7DEB75A8349837C836B83BE016F5F05
S1130BB07F4F0E9488050F900F900F900F90DF9148
S1130BC0CF910895E0E0F8E1A0E0B2E181918C9347
S1130BD0E1158CE1F807D1F7089580E00E945E0FDB
S1130BE08135910528F00E94E20580E00E94730F90
S1130BF0089520E8829FC0011124FC01F85E80580A
S1130C00974E208120952193E817F907D1F708958D
S1130C10CF92DF92EF92FF920F931F93CF93DF93C4
S1130C2000D000D000D0CDB7DEB76C0100E010E0FA
S1130C306894EE24E5F8F12CDC82CB821E830D83CC
S1130C40FA82E982BE016D5F7F4FCE0101960E9458
S1130C508805085F1F4F0038110571F726960FB6F7
S1130C60F894DEBF0FBECDBFDF91CF911F910F91DE
S1130C70FF90EF90DF90CF900895CF93DF93C0E083
S1130C80D0E0CE010E9408062196C830D105C9F7EC
S1130C90DF91CF91089580914803882331F086EA4B
S1130CA08093001010924803089587EA80930010FF
S1130CB081E08093480308957F928F929F92AF9230
S1130CC0BF92CF92DF92EF92FF920F931F93CF9335
S1130CD0DF93CDB7DEB7A8970FB6F894DEBF0FBE8B
S1130CE0CDBF0F2EF9E07F2EF02D6894AA24A2F830
S1130CF0B12C0F2EF8E1CF2ED12CF02D0F2EFCE0CD
S1130D008F2EF02D0F2EF7E0EF2EF12CF02D0F2E5D
S1130D10F7E09F2EF02D00E010E10E943D061EA298
S1130D201DA218A61FA2E1EFF1E0DE015C96872D5B
S1130D3001900D928A95E1F7BE016B5D7F4FCE0164
S1130D404C960E948805B98EA88EDB8ECA8EEAEF77
S1130D50F1E0DE011C96882D01900D928A95E1F751
S1130D60BE01685E7F4FCE010C960E948805F9860D
S1130D70E8861B861A86E6E0F2E0DE011196892DEC
S1130D8001900D928A95E1F7BE01685F7F4FCE0115
S1130D9001960E9488050E94E2050E94C70991E815
S1130DA0F801908380830E94EB09882309F4B5CF6E
S1130DB0A8960FB6F894DEBF0FBECDBFDF91CF91DA
S1130DC01F910F91FF90EF90DF90CF90BF90AF9065
S1130DD09F908F907F9008950E944B062CEC8CE09E
S1130DE091E0215080409040E1F700C00E94EB095F
S1130DF0882391F30895CF93DF93CDB7DEB761973E
S1130E000FB6F894DEBF0FBECDBFAE01465E5F4F96
S1130E10688D798DCE0101960E94E7124E8950E0CB
S1130E208F8990E8899F400D511D1124E981EE239B
S1130E3089F180E090E060E078E013C0FC01EA0F03
S1130E40FB1FE491ED932150C9F76F5F862F90E06B
S1130E50E1E0F0E0EC0FFD1FE80FF91FE081EE2365
S1130E60C9F09C01220F331F220F331F220F331F9F
S1130E70240F351FD901B85E8E2F90E0880F991F7B
S1130E80880F991F880F991F821B930B272F805956
S1130E909841D4CF61960FB6F894DEBF0FBECDBF94
S1130EA0DF91CF910895E199FECF9FBB8EBB6DBBBF
S1130EB0E29AE19A0895E199FECF9FBB8EBBE09A36
S1130EC08DB308952F923F924F926F927F928F929B
S1130ED09F92AF92BF92CF92DF92EF92FF920F93C5
S1130EE01F93CF932FEF8FE794E0215080409040E1
S1130EF0E1F700C000000E94E205C2E00F2EFDE011
S1130F00AF2EF2E0BF2EF02D0F2EF7E1CF2EF2E040
S1130F10DF2EF02D0EE112E00F2EF5E2EF2EF2E0BF
S1130F20FF2EF02D0F2EF3E02F2EF02D0F2EFCE2CE
S1130F308F2EF2E09F2EF02D6894332432F80F2E7A
S1130F40F6E36F2EF2E07F2EF02D0F2EF5E04F2EFC
S1130F50F02D82E00E945E0F8135910508F456C0A1
S1130F600E943D06809149031F928F93BF92AF92D6
S1130F701F921F920E94FB0688E190E00E945B078B
S1130F801F928F93DF92CF921F930F9382E08F93E0
S1130F901F920E94FB0680E190E00E945B071F9273
S1130FA08F93FF92EF921F930F932F921F920E94A1
S1130FB0FB0688E090E00E945B071F928F939F924C
S1130FC08F92AFE2B2E0BF93AF933F921F920E9421
S1130FD0FB0680E090E00E945B071F928F937F9254
S1130FE06F92AFE2B2E0BF93AF934F921F920E9411
S1130FF0FB068DB79EB786960FB6F8949EBF0FBEBC
S11310008DBF8C2F0E94F9050E94E2050E94C2093F
S1131010873491055CF0C1509FEFAFEFB2E091507F
S1131020A040B040E1F700C000C00FC00E94C20958
S11310308A3B9F4F54F4CF5F8FEF9FEFA2E0815024
S11310409040A040E1F700C000C00E94EF0988234F
S113105021F1C23039F46091490388E190E00E94A3
S113106053071DC0C33039F46091490380E190E017
S11310700E94530714C0C43039F46091490388E0D6
S113108090E00E9453070BC0C53039F460914903C6
S113109080E090E00E94530702C0C23020F0C630C6
S11310A018F0C42D01C0C2E00E94EB09882309F4A2
S11310B050CF10924903CF911F910F91FF90EF9061
S11310C0DF90CF90BF90AF909F908F907F906F9064
S11310D04F903F902F900895CF93DF93CDB7DEB715
S11310E061970FB6F894DEBF0FBECDBF0E943D06D8
S11310F08AE0E9E3F2E0DE01189601900D928A9508
S1131100E1F743E050E068E170E0CE0108960E9408
S1131110CC0587E0E6E0F2E0DE01119601900D9245
S11311208A95E1F747E050E060E070E0CE01019677
S11311300E94CC05809149031F928F938DE092E029
S11311409F938F9385E08F9388E18F930E94FB0692
S11311500E94E2050E94E2050F900F900F900F90FD
S11311600F900F900E94EB09811110C082E00E9441
S11311705E0F8135910518F082E00E94730F0E9482
S1131180EF09882379F30E946207ECCF61960FB6CA
S1131190F894DEBF0FBECDBFDF91CF9108958F923B
S11311A09F92AF92BF92CF92DF92EF92FF920F93F2
S11311B01F93CF93DF93CDB7DEB7E1970FB6F894C3
S11311C0DEBF0FBECDBF80E090E00E94D301BE0120
S11311D0645E7F4FCB010E948B030E943D0687E033
S11311E0E6E0F2E0DE01559601900D928A95E1F772
S11311F047E050E060E070E0CE0145960E94CC05E7
S11312008DE0E3E4F2E0DE01189601900D928A95F8
S1131210E1F743E050E060E170E0CE0108960E94FF
S1131220CC050F2EF7E0DF2EF02D0F2EF3E4EF2E7A
S1131230F2E0FF2EF02D0F2EF3E08F2EF02D6894A8
S1131240992494F80DE012E00F2EF5E0AF2EF02D66
S11312500F2EF8E1BF2EF02D0F2EFBE0CF2EF02D38
S11312600E94EB09811160C082E00E945E0F81350B
S11312709105B0F30E943D06809149038F5F8093EE
S11312804903E6E0F2E0DE0111968D2D01900D9206
S11312908A95E1F747E050E060E070E0CE01019606
S11312A00E94CC0586E092E09F938F93DF921F9279
S11312B00E94FB06FF92EF928F929F920E94FB0680
S11312C0809149031F928F931F930F93AF92BF9204
S11312D00E94FB060E94E2050E9458038FEF97E1EB
S11312E00197F1F700C00000BE01645E7F4FCE019C
S11312F087960E948B03FE01B796DE015C968C2DC7
S113130001900D928A95E1F70FB6F894DEBF0FBEF7
S1131310CDBF8C8D9D8D8039914011F40E946C0855
S113132082E00E94730F9CCFE1960FB6F894DEBF63
S11313300FBECDBFDF91CF911F910F91FF90EF9022
S1131340DF90CF90BF90AF909F908F90089584E0EE
S11313508093001481E48A95F1F700C08091001411
S113136090E0089585E08093001481E48A95F1F774
S113137000C08091001490E008950E94A7098F573F
S1131380910908950E94B2098F579109089586E042
S11313908093001481E48A95F1F700C080910014D1
S11313A0089587E08093001481E48A95F1F700C0E2
S11313B0809100140895B99887B3817087BB87B36F
S11313C0827087BB87B3847087BBC29A089581E01B
S11313D0B39980E0089581E0B19B80E0089581E0B5
S11313E0B09B80E008956AE574E086E594E00E948D
S11313F05B1285B7806885BF8FE190E00E945E0430
S11314000E94DB090E94680A90935E0380935D0347
S11314100E94310F0E9453050E9442050E94ED056F
S1131420FBCFDF92EF92FF920F931F93CF93DF9343
S11314307C018B01D42E89E090E00E94CD10EC0158
S1131440FE82ED8218870F83D8824D2D50E0CA01A9
S1131450880F991F880F991F880F991F840F951F54
S11314600E94CD109A838983CE01DF91CF911F9181
S11314700F91FF90EF90DF9008951F93CF93DF9328
S1131480EC018881882301F110E0812F90E0880F1E
S1131490991FE981FA81E80FF91F0190F081E02D8D
S11314A0D483C38329813A81F901E80FF91F01909C
S11314B0F081E02D8081882319F0CF010E943D0A3C
S11314C01F5F8881181708F3DF91CF911F9108954A
S11314D00F931F93CF93DF9343E060E070E089EEB6
S11314E091E00E94110AEC0109811A8142E060E056
S11314F070E080E592E00E94110AF80191838083F4
S1131500E981FA810190F081E02D0181128140E0AE
S11315106FEC78E086E592E00E94110AF80191836D
S11315208083E981FA810190F081E02D01811281AB
S113153042E060E070E08BE592E00E94110AF8015D
S113154093838283E981FA810190F081E02D018007
S1131550F281E02D0280F381E02D0181128140E0CF
S11315606CEF7DE081E692E00E94110AF80191831C
S11315708083E981FA810190F081E02D0180F2817C
S1131580E02D0280F381E02D0181128140E06EE0C4
S11315907CE086E692E00E94110AF801938382833C
S11315A009811A8143E060E070E081E792E00E94E3
S11315B0110AF80193838283E981FA810280F3811D
S11315C0E02D0181128140E06CE576E081EF91E04D
S11315D00E94110AF80191838083E981FA810280D3
S11315E0F381E02D0181128140E06BE476E08AE72B
S11315F092E00E94110AF80193838283E981FA81BF
S11316000280F381E02D0181128140E06CEE76E0EE
S11316108AE892E00E94110AF80195838483098183
S11316201A8142E060E070E082E992E00E94110ACF
S1131630F80195838483E981FA810480F581E02DA2
S11316400181128141E060E070E088E992E00E944B
S1131650110AF80191838083E981FA810480F5817C
S1131660E02D0180F281E02D0190F081E02D0181D7
S1131670128140E067E173E08CE992E00E94110A74
S1131680F80191838083E981FA810480F581E02D5A
S11316900181128140E066EE7EE085EA92E00E94DC
S11316A0110AF80193838283CE010E943D0ACE0180
S11316B0DF91CF911F910F910895FC0180818823C0
S11316C031F00180F281E02D8081918108958E2F87
S11316D09F2F0895FC0183819481009709F4CF0121
S11316E00895CF93DC011396ED91FC9114973097F4
S11316F009F4FC01C081CC23D9F061817281FB0122
S113170020E030E0C901419151914A175B0759F437
S11317102C1748F40196FC01EE0FFF1FE60FF71F8C
S1131720808191810AC02F5F3F4F2C1758F303C06B
S11317308A2F9B2F02C08A2F9B2FCF910895CF937E
S1131740DC011396ED91FC911497309709F4FC0198
S1131750C081CC23E1F061817281FB0120E030E0A3
S1131760C901419151914A175B0761F4222351F059
S113177081509048FC01EE0FFF1FE60FF71F808198
S113178091810AC02F5F3F4F2C1750F303C08A2F5B
S11317909B2F02C08A2F9B2FCF910895DC011396B3
S11317A0ED91FC911497309709F4FC01608170E08D
S11317B016161706FCF40180F281E02D2081318198
S11317C02817390761F406C0419151914817590708
S11317D049F402C020E030E0C90101960895329630
S11317E020E030E02F5F3F4F261737076CF380E08F
S11317F090E0089580E090E00895FC018581968151
S11318000895FC0183E080938F0310821182138278
S113181081E08483168282E0878308956F927F92A9
S11318208F929F92AF92BF92CF92DF92EF92FF92EC
S11318300F931F93CF93DF930F2EFAEAEF2EF2E06C
S1131840FF2EF02D09EB12E077247394C7ECD2E05D
S11318500F2EF3E08F2EF02D0F2EF1EDAF2EF2E0D0
S1131860BF2EF02D0F2EF8E36F2EF02D0F2EFDEC72
S1131870CF2EF2E0DF2EF02D0E94D109982E82E0C7
S11318800E945E0F893E934008F449C00E943D06C1
S1131890FF92EF921F921F920E94FB061F929F924B
S11318A01F930F937F921F920E94FB06DF93CF93A7
S11318B08F921F920E94FB068DB79EB70E960FB6AD
S11318C0F8949EBF0FBE8DBF80910A01882359F002
S11318D0DF92CF928F926F920E94FB060F900F902F
S11318E00F900F900AC0BF92AF928F926F920E9496
S11318F0FB060F900F900F900F900E94E2050E943C
S1131900EF09882349F080910A01882319F0109285
S11319100A0102C070920A0182E00E94730F0E94C1
S1131920EB09882309F4A8CF9694969490920C011D
S1131930DF91CF911F910F91FF90EF90DF90CF90A7
S1131940BF90AF909F908F907F906F9008950E946A
S11319503D0689E392E09F938F931F9288E18F93D2
S11319600E94FB060E94E2050F900F900F900F90CB
S11319700E94EB098823E1F30895FF920F931F93CC
S1131980CF93DF938C010E943D0680918F038823BF
S113199059F1F12CC4EDD2E02F2D30E0F901EE0F16
S11319A0FF1FE20FF31FE00FF11FDF93CF9381813D
S11319B0992787FD909507979C01992324F4222762
S11319C03327281B390B2F938081880F880F880FAA
S11319D08F930E94FB06F3940F900F900F900F903B
S11319E080918F03F816C0F2809192038823E9F066
S11319F086ED92E09F938F932091910330E02750DE
S1131A003109C901992324F488279927821B930B50
S1131A108F9380919003880F880F880F8F930E9473
S1131A20FB060F900F900F900F900E94E205DF913C
S1131A30CF911F910F91FF900895CF93DF93EC0105
S1131A4040918F034230C8F058819C012B5F3F4F77
S1131A5081E0D901F90132979081951308C031963C
S1131A6060819981691303C09C91911108C08F5FB3
S1131A702D5F3F4F8413EDCF04C080E003C081E0AD
S1131A8001C080E0DF91CF910895CF93DF9380E090
S1131A900E945E0F0E9447120E944212EC010E94B3
S1131AA042129C01CE016FE070E00E94A510809369
S1131AB09003C90167E070E00E94A5108093910330
S1131AC081E080939203DF91CF910895CF93DF93C8
S1131AD0EB0140914B0330914A03823019F4309169
S1131AE00D010EC08E3F19F430910E0109C08F3FD5
S1131AF019F44091100104C0813011F440910F0198
S1131B0020918F0321501216B4F4822F992787FD58
S1131B109095DC01AA0FBB1FA80FB91FFE01EA0FA5
S1131B20FB1F1397AC0FBD1F8C91808311968C9172
S1131B308183215051F79881940F98838981830F71
S1131B40898320910A01222381F0903114F01882B4
S1131B5004C0992314F49FE09883883014F0198208
S1131B6004C0882314F487E08983DF91CF9108951A
S1131B7020918F0330E0A901440F551F240F351F16
S1131B80D9011397A80FB91F4C91F9013697E80FA3
S1131B90F91F508145171CF46091100107C05417B8
S1131BA01CF460910F0102C060914B0311967C916B
S1131BB0518157171CF450910D0102C050914A03F2
S1131BC0FC01E20FF31F460F408340918F03242F43
S1131BD030E0F901EE0FFF1FE20FF31FE80FF91FCA
S1131BE0DF01139711968C91850F818381E08283A5
S1131BF04F5F40938F0308957F928F929F92AF928D
S1131C00BF92CF92DF92EF92FF920F931F93CF93E5
S1131C10DF932FEF8FEF92E0215080409040E1F767
S1131C2000C000C08FE593E00E94010C8FE593E0B3
S1131C300E94BD0C60910C0170E080E090E00E9475
S1131C4019109B01AC0160E070E68AE696E40E94FC
S1131C50830F0E94EB0FEB0100E613E00F2EF0E977
S1131C60CF2EF3E0DF2EF02D0F2EF2E9EF2EF3E06E
S1131C70FF2EF02D0F2EF1E9AF2EF3E0BF2EF02D45
S1131C800F2EFEEF7F2EF02D88248A9499249394AE
S1131C9082E00E945E0FC817D90708F084C082E072
S1131CA00E94730F0E94BD09873491053CF0809116
S1131CB00B018F3F19F090920B0124C00E94BD09C3
S1131CC08A3B9F4F3CF480910B01813019F0809244
S1131CD00B0118C00E94C2098734910544F0809119
S1131CE00B018E3F21F082E080930B010BC00E9418
S1131CF0C2098A3B9F4F34F480910B01823011F06A
S1131D0070920B010E94EF09882321F08FE593E084
S1131D100E94B80D6FE573E080910B010E94660D7F
S1131D2080915F03803110F00E94A70CF80180813C
S1131D30883010F00E94A70C20915F03332727FD01
S1131D403095F601808190E028173907C9F4F8012D
S1131D502081332727FD3095F501808190E02817F5
S1131D60390771F4F7018081882371F01082809122
S1131D7093038F5F809393038FE593E00E94B80DE4
S1131D80F7018081811102C00E94450D8FE593E027
S1131D900E941D0D81110E94A70C8FE593E00E9403
S1131DA0BD0C0E94E2050E94EB09882309F470CF60
S1131DB0DF91CF911F910F91FF90EF90DF90CF9023
S1131DC0BF90AF909F908F907F900895EF92FF9275
S1131DD00F931F93CF93DF9388ED92E00E94BA1282
S1131DE00E9442127C010E944712C0E0D8E100E048
S1131DF010E00E94421288839881981711F00F5FB7
S1131E001F4F2196C11580E2D80799F7C7010E9498
S1131E104712C0E0D8E1E12CF12C0E9442129881D3
S1131E20981719F08FEFE81AF80A2196C11580E285
S1131E30D80799F7FF92EF921F930F938EEE92E0DB
S1131E409F938F930E94A6120F900F900F900F9064
S1131E500F900F90DF91CF911F910F91FF90EF9012
S1131E6008951FBC1EBC8EB585608EBD8EB58D7F5A
S1131E708EBD8FB58E7F8FBD8FB58D7F8FBD8EB597
S1131E80877F8EBD8EB58F7E8EBDABE8B0E01C9291
S1131E90EAE8F0E0108280818560808380818D7F14
S1131EA080838C918E7F8C938C918D7F8C93808199
S1131EB0877F808380818F7E80830895811103C012
S1131EC02CB53DB50DC0813019F423B530E008C000
S1131ED0823029F4209188003091890001C008954E
S1131EE0822F932F0895811103C01DBC1CBC08953B
S1131EF0813011F413BC0895823021F410928900CA
S1131F001092880008950CD0E6C0DED040F0D5D001
S1131F1030F021F45F3F19F0C7C0511110C1CAC09D
S1131F20EBD098F39923C9F35523B1F3951B550BC3
S1131F30BB27AA2762177307840738F09F5F5F4F98
S1131F40220F331F441FAA1FA9F333D00E2E3AF0D9
S1131F50E0E830D091505040E695001CCAF729D0F3
S1131F60FE2F27D0660F771F881FBB1F2617370742
S1131F704807AB07B0E809F0BB0B802DBF01FF2772
S1131F8093585F4F2AF09E3F510568F08DC0D7C02B
S1131F905F3FECF3983EDCF3869577956795B795AC
S1131FA0F7959F5FC9F7880F911D9695879597F9C7
S1131FB00895E1E0660F771F881FBB1F6217730740
S1131FC08407BA0720F0621B730B840BBA0BEE1F55
S1131FD088F7E095089598D088F09F5790F0B92F2E
S1131FE09927B751A0F0D1F0660F771F881F991F6A
S1131FF01AF0BA95C9F712C0B13081F09FD0B1E0A0
S113200008959CC0672F782F8827B85F39F0B93FAF
S1132010CCF3869577956795B395D9F73EF490956B
S11320208095709561957F4F8F4F9F4F0895E894E9
S113203009C097FB3EF490958095709561957F4F0C
S11320408F4F9F4F9923A9F0F92F96E9BB279395BA
S1132050F695879577956795B795F111F8CFFAF4CA
S1132060BB0F11F460FF1BC06F5F7F4F8F4F9F4FFB
S113207016C0882311F096E911C0772321F09EE859
S1132080872F762F05C0662371F096E8862F70E0BF
S113209060E02AF09A95660F771F881FDAF7880F99
S11320A09695879597F9089597F99F6780E870E06A
S11320B060E008959FEF80EC089500240A941616BA
S11320C0170618060906089500240A941216130622
S11320D0140605060895092E0394000C11F48823B0
S11320E052F0BB0F40F4BF2B11F460FF04C06F5FCC
S11320F07F4F8F4F9F4F089557FD9058440F551FA2
S113210059F05F3F71F04795880F97FB991F61F075
S11321109F3F79F087950895121613061406551FEC
S1132120F2CF4695F1DF08C0161617061806991F58
S1132130F1CF86957105610508940895E894BB274D
S113214066277727CB0197F9089597FB072E16F496
S1132150009407D077FD09D00E94B91007FC05D080
S11321603EF4909581959F4F0895709561957F4FAA
S11321700895AA1BBB1B51E107C0AA1FBB1FA617CA
S1132180B70710F0A61BB70B881F991F5A95A9F71C
S113219080959095BC01CD010895CF93DF93823053
S11321A0910510F482E090E0E0919603F09197039A
S11321B020E030E0A0E0B0E0309739F14081518177
S11321C048175907B8F04817590771F48281938169
S11321D0109729F013969C938E9312972CC090938A
S11321E097038093960327C02115310531F04217D8
S11321F0530718F0A901DB0101C0EF019A01BD01E9
S1132200DF010280F381E02DD7CF21153105F9F0EC
S1132210281B390B2430310580F48A819B81611598
S1132220710521F0FB019383828304C0909397038B
S113223080939603FE01329644C0FE01E20FF31F21
S11322408193919322503109398328833AC0209194
S1132250940330919503232B41F420910201309192
S1132260030130939503209394032091000130914E
S113227001012115310541F42DB73EB74091040108
S113228050910501241B350BE0919403F0919503C3
S1132290E217F307A0F42E1B3F0B2817390778F039
S11322A0AC014E5F5F4F2417350748F04E0F5F1F98
S11322B050939503409394038193919302C0E0E07B
S11322C0F0E0CF01DF91CF910895CF93DF93009792
S11322D009F487C0FC01329713821282C0919603DD
S11322E0D0919703209781F420813181280F391FE1
S11322F080919403909195038217930779F5F09355
S11323009503E09394036DC0DE0120E030E0AE1746
S1132310BF0750F412964D915C9113979D0141159E
S1132320510509F1DA01F3CFB383A28340815181CE
S1132330840F951F8A179B0771F48D919C911197B7
S1132340840F951F02969183808312968D919C91A0
S11323501397938382832115310529F4F09397030E
S1132360E09396033EC0D9011396FC93EE93129723
S11323704D915D91A40FB51FEA17FB0779F4808195
S11323809181840F951F0296D90111969C938E9387
S11323908281938113969C938E931297E0E0F0E0F0
S11323A08A819B81009719F0FE01EC01F9CFCE01DF
S11323B0029628813981820F931F209194033091D2
S11323C095032817390769F4309729F41092970375
S11323D01092960302C013821282D0939503C09385
S11323E09403DF91CF9108958F929F92AF92BF9201
S11323F0CF92DF92EF92FF92CF93DF93EC0168814B
S113240079818A819B81611571058105910521F48A
S113241064E279ED8BE597E02DE133EF41E050E0A4
S11324200E949E1549015A019B01AC01A7EAB1E43F
S11324300E94BD156B017C01ACEEB4EFA5019401C3
S11324400E94CB15C60ED71EE81EF91EF7FE06C065
S113245081E0C81AD108E10880E8F80AC882D98264
S1132460EA82FB82C6019F77DF91CF91FF90EF90C4
S1132470DF90CF90BF90AF909F908F9008950E946F
S1132480F411089586E091E00E94F4110895A0E00B
S1132490B0E08093060190930701A0930801B093E4
S11324A009010895FB01DC018D910190801901104F
S11324B0D9F3990B08950F931F93CF93DF93EC01F6
S11324C08B01009731F46115710519F480E090E0F7
S11324D038C06EE070E081E090E00E94D514FC0109
S11324E00097A1F380E883830115110571F0138728
S11324F0028781E883838091980390919903892BC3
S113250021F4F0939903E09398032097C9F0D187BD
S1132510C08783818260838380919A0390919B0317
S1132520892B71F4F0939B03E0939A0380919C03AD
S113253090919D03892B21F4F0939D03E0939C03D8
S1132540CF01DF91CF911F910F910895A0E0B0E0EA
S1132550ECEAF2E10C94E015FE013596619171917B
S1132560AF0180919A0390919B030E940313E2E0D0
S11325700C94FC150F931F93CF93DF93E0919A0370
S1132580F0919B03238121FF1BC0EC0100E010E0CC
S1132590899160919A0370919B03DB011896ED91E8
S11325A0FC911997882331F00995892B89F30FEF52
S11325B01FEFEECF8AE00995892B11F4C80102C000
S11325C08FEF9FEFDF91CF911F910F910895AEE0B0
S11325D0B0E0EDEEF2E10C94DE158C0186E08C8324
S11325E01A8309838FEF9FE79E838D83CE01019623
S11325F00E940313EF81F885E00FF11F10822E96DD
S1132600E4E00C94FA15ACE0B0E0E9E0F3E10C94FA
S1132610D0157C016B018A01FC011782168283812B
S113262081FFBDC1CE0101964C01F7019381F601F2
S113263093FD859193FF81916F01882309F4ABC1C8
S1132640853239F493FD859193FF81916F01853231
S113265029F4B70190E00E940E15E7CF512C312CDC
S113266020E02032A0F48B3269F030F4803259F04B
S1132670833269F420612CC08D3239F0803339F40F
S1132680216026C02260246023C0286021C027FD69
S113269027C030ED380F3A3078F426FF06C0FAE050
S11326A05F9E300D1124532E13C08AE0389E300DE6
S11326B01124332E20620CC08E3221F426FD6BC10E
S11326C0206406C08C3611F4206802C0883641F4B8
S11326D0F60193FD859193FF81916F018111C1CF23
S11326E0982F9F7D9554933028F40C5F1F4FFFE380
S11326F0F9830DC0833631F0833771F0833509F0E7
S11327005BC022C0F801808189830E5F1F4F44247F
S11327104394512C540115C03801F2E06F0E711C22
S1132720F801A080B18026FF03C0652D70E002C0CF
S11327306FEF7FEFC5012C870E9403152C018301E5
S11327402C852F77222E17C03801F2E06F0E711CF2
S1132750F801A080B18026FF03C0652D70E002C09F
S11327606FEF7FEFC5012C870E94F1142C012C859B
S11327702068222E830123FC1BC0832D90E0481681
S11327805906B0F4B70180E290E00E940E153A9425
S1132790F4CFF50127FC859127FE81915F01B701F4
S11327A090E00E940E1531103A94F1E04F1A51084E
S11327B04114510471F7E5C0843611F0893639F5B6
S11327C0F80127FF07C060817181828193810C5FCA
S11327D01F4F08C060817181882777FD8095982FED
S11327E00E5F1F4F2F76B22E97FF09C090958095EC
S11327F0709561957F4F8F4F9F4F2068B22E2AE0CE
S113280030E0A4010E944015A82EA81844C08537C2
S113281029F42F7EB22E2AE030E025C0F22FF97F72
S1132820BF2E8F36C1F018F4883579F0B4C08037E4
S113283019F0883721F0AFC02F2F2061B22EB4FEDB
S11328400DC08B2D8460B82E09C024FF0AC09F2FB1
S11328509660B92E06C028E030E005C020E130E0E3
S113286002C020E132E0F801B7FE07C06081718147
S1132870828193810C5F1F4F06C06081718180E06B
S113288090E00E5F1F4FA4010E944015A82EA818C7
S1132890FB2DFF77BF2EB6FE0BC02B2D2E7FA5146C
S11328A050F4B4FE0AC0B2FC08C02B2D2E7E05C025
S11328B07A2C2B2D03C07A2C01C0752C24FF0DC05B
S11328C0FE01EA0DF11D8081803311F4297E09C0D7
S11328D022FF06C07394739404C0822F867809F093
S11328E0739423FD13C020FF06C05A2C731418F4EC
S11328F0530C5718732C731468F4B70180E290E0FA
S11329002C870E940E1573942C85F5CF731410F444
S1132910371801C0312C24FF12C0B70180E390E0C6
S11329202C870E940E152C8522FF17C021FF03C09F
S113293088E590E002C088E790E0B7010CC0822FE0
S1132940867859F021FD02C080E201C08BE227FDA8
S11329508DE2B70190E00E940E15A51438F4B7017A
S113296080E390E00E940E155A94F7CFAA94F401E4
S1132970EA0DF11D8081B70190E00E940E15A110AF
S1132980F5CF332009F451CEB70180E290E00E94E4
S11329900E153A94F6CFF7018681978102C08FEF26
S11329A09FEF2C96E2E10C94EC150F931F93CF93B9
S11329B0DF93869F8001879F100D969F100D112431
S11329C0C8010E94CD10EC01009729F0A80160E035
S11329D070E00E94FC14CE01DF91CF911F910F9102
S11329E00895FC010590615070400110D8F780955E
S11329F090958E0F9F1F0895DC0101C06D93415087
S1132A005040E0F70895FC016150704001900110BE
S1132A10D8F7809590958E0F9F1F08950F931F935D
S1132A20CF93DF93182F092FEB018B8181FD03C016
S1132A308FEF9FEF20C082FF10C04E815F812C81F9
S1132A403D81421753077CF4E881F9819F012F5F90
S1132A503F4F39832883108306C0E885F985812F89
S1132A600995892B29F72E813F812F5F3F4F3F83A3
S1132A702E83812F902FDF91CF911F910F91089575
S1132A80FA01AA27283051F1203181F1E8946F939B
S1132A906E7F6E5F7F4F8F4F9F4FAF4FB1E03ED041
S1132AA0B4E03CD0670F781F891F9A1FA11D680FDF
S1132AB0791F8A1F911DA11D6A0F711D811D911D12
S1132AC0A11D20D009F468943F912AE0269F112487
S1132AD03019305D3193DEF6CF010895462F4770EB
S1132AE0405D4193B3E00FD0C9F7F6CF462F4F7046
S1132AF0405D4A3318F0495D31FD4052419302D0A4
S1132B00A9F7EACFB4E0A695979587957795679549
S1132B10BA95C9F700976105710508959B01AC0149
S1132B200A2E06945795479537952795BA95C9F770
S1132B30620F731F841F951FA01D0895052E97FB18
S1132B401EF400940E94B51557FD07D00E94071685
S1132B5007FC03D04EF40C94B51550954095309570
S1132B6021953F4F4F4F5F4F0895909580957095F5
S1132B7061957F4F8F4F9F4F08950E942916A59FFF
S1132B80900DB49F900DA49F800D911D1124089564
S1132B90B7FF0C94BD150E94BD15821B930B0895BD
S1132BA02F923F924F925F926F927F928F929F9259
S1132BB0AF92BF92CF92DF92EF92FF920F931F9347
S1132BC0CF93DF93CDB7DEB7CA1BDB0B0FB6F894F8
S1132BD0DEBF0FBECDBF09942A88398848885F8438
S1132BE06E847D848C849B84AA84B984C884DF80A9
S1132BF0EE80FD800C811B81AA81B981CE0FD11D8D
S1132C000FB6F894DEBF0FBECDBFED010895A1E26B
S1132C101A2EAA1BBB1BFD010DC0AA1FBB1FEE1F52
S1132C20FF1FA217B307E407F50720F0A21BB30B9D
S1132C30E40BF50B661F771F881F991F1A9469F719
S1132C4060957095809590959B01AC01BD01CF0175
S1132C500895A29FB001B39FC001A39F700D811D71
S1132C601124911DB29F700D811D1124911D089591
S1072C70F894FFCF02
S1132C7400009E0320000100000001020101FF0185
S1132C84FF0A0A53656E64204944203D203130090B
S1132C945265636965766564204944203D20256452
S1132CA40A53656E64204C656E677468203D203158
S1132CB4095265636965766564204C656E6774685A
S1132CC4203D2025640A53656E64204461746120A8
S1132CD43D20275427095265636965766564204459
S1132CE4617461203D2025630A0A000A0A53656E53
S1132CF464204944203D2025640A53656E64204CB5
S1132D04656E677468203D2025640A53656E6420EB
S1132D1444617461203D2025630A0A00436F727282
S1132D24656374204944004552524F523A204D433E
S1132D345032353135206973204E4F5420696E204A
S1132D44636F6E666967206D6F6465206166746580
S1132D547220726573657421004D61696E00200AE6
S1132D6400436F6E7472617374006C6566742073CF
S1132D746C696465720052657475726E0053636F96
S1132D8472653A2025690045726C656E640025738A
S1132D943A202569004D617274696E005033002530
S1132DA4733A2025750050340047414D45204F5651
S1132DB4455200506C6179696E672067616D6500E6
S1132DC447616D65730047616D6500536E616B65A2
S1132DD400506C617900446966666963756C747942
S1132DE40053657474696E677300546F67676C6528
S1132DF4206E65676174697665005365697A7572D6
S1132E04650054657374730043616E004C6F6F7096
S1132E146261636B005352414D00536574206469CD
S1132E2466666963756C747900446966666963757A
S1132E346C74793A25750057616C6C73004F46467F
S1132E44004F4E004F0051005374617274696E67F1
S1132E54205352414D20746573742E2E2E00535208
S1132E64414D207465737420636F6D706C65746573
S1132E74642077697468200A253464206572726F4B
S1132E84727320696E207772697465207068617347
S1132E946520616E64200A253464206572726F7241
S1132EA47320696E2072657472696576616C207032
S10B2EB4686173650A0A00005D
S9030000FC
