S01C00004279676765726E477275707065343848323031352E737265634B
S11300000C94B4010C94D1010C94D1010C94D10141
S11300100C94D1010C94D1010C94D1010C94D10114
S11300200C94D1010C94D1010C94D1010C94D10104
S11300300C94D1010C94D1010C94D1010C94D101F4
S11300400C94D1010C94D1010C94D1010C94D101E4
S11300500C94D1010C94D1010C94D1010C94D101D4
S11300600C94D1010C94D1010C94D1010C94D101C4
S1130070000000000000000000065F5F06000000B2
S11300800007070007070000147F7F147F7F140018
S1130090242E6B6B3A120000466630180C66620020
S11300A0307A4F5D377A48000407030000000000EF
S11300B0001C3E63410000000041633E1C00000040
S11300C0082A3E1C1C3E2A0808083E3E0808000078
S11300D000A0E0600000000008080808080800000C
S11300E000006060000000006030180C060301008E
S11300F03E7F594D7F3E000042427F7F40400000DA
S1130100627359496F660000226349497F360000D3
S1130110181C16137F7F1000276745457D390000A2
S11301203C7E4B4979300000036371190F070000CE
S1130130367F49497F360000064F49693F1E00005B
S113014000006C6C0000000000A0EC6C00000000DB
S1130150081C366341000000141414141414000025
S1130160004163361C080000020351590F060000C9
S11301703E7F415D5D1F1E007C7E13137E7C00006C
S1130180417F7F49497F36001C3E63414163220021
S1130190417F7F41637F1C00417F7F495D41630054
S11301A0417F7F491D0103001C3E6341517372006E
S11301B07F7F08087F7F000000417F7F41000000AF
S11301C0307040417F3F0100417F7F081C7763000E
S11301D0417F7F41406070007F7F060C067F7F0077
S11301E07F7F060C187F7F001C3E6341633E1C002A
S11301F0417F7F49090F06001E3F21717F5E000089
S1130200417F7F19396F460026674D597B320000C4
S113021003417F7F410300007F7F40407F7F0000D8
S11302201F3F60603F1F00007F7F3018307F7F00DA
S113023063771C081C776300074F78784F0700002A
S11302406773594D47637100007F7F41410000008F
S11302500103060C183060000041417F7F0000005C
S1130260080C0603060C0800808080808080808053
S11302700000030704000000207454543C7840003C
S1130280413F7F44447C3800387C44446C2800005F
S1130290307848493F7F4000387C54545C18000053
S11302A0487E7F490302000098BCA4A4F87C0400A3
S11302B0417F7F08047C780000447D7D400000007D
S11302C040C484FD7D000000417F7F10386C4400F1
S11302D000417F7F400000007C7C0C180C7C78007F
S11302E07C7C04047C780000387C44447C38000026
S11302F084FCF8A4243C1800183C24A4F8FC8400D2
S1130300447C78441C180000485C54547424000055
S113031000043E7F442400003C7C40403C7C400080
S11303201C3C60603C1C00003C7C6030607C3C00F9
S1130330446C3810386C44009CBCA0A0FC7C0000C9
S11303404C64745C4C64000008083E774141000032
S113035000000077770000004141773E0808000064
S1130360020301030203010011241FBECFEFD4E0F6
S1130370DEBFCDBF11E0A0E0B1E0E0E6F5E102C0F0
S113038005900D92A43EB107D9F722E0A4EEB1E0A6
S113039001C01D92A730B207E1F70E9445030C94F7
S11303A0AE0A0C940000CF93DF93EC010E94B803D3
S11303B04FEF50E060E670E080E690E00E949A0320
S11303C04FEF50E060E670E080E790E00E949A030F
S11303D0AE0160EE70E08FE090E00E949A033098E6
S11303E0DF91CF9108952F923F924F925F926F9237
S11303F07F928F929F92AF92BF92CF92DF92EF92B1
S1130400FF920F931F93CF93DF9300D0CDB7DEB746
S11304105C017B014FEF50E068E070E0C7010E948F
S11304209A03C7010E94740383FDFBCFF501808109
S11304309181282F2295220F207E298396958795D6
S113044096958795969587958A8369811701F2E039
S11304502F0E311C70E0C1010E9483036A812701C1
S11304608FEF481A580A70E0C2010E9483033701D3
S113047095E0690E711CF50162816F7070E0C30133
S11304800E948303F50182818823D9F06501F3E09A
S1130490CF0ED11C00E010E0470186E0880E911CCD
S11304A0F60161916F0170E0C401800F911F0E94F9
S11304B083030F5F1F4FF501828190E0081719072E
S11304C07CF3F0E3EF16F10459F080E4E816F1044C
S11304D051F090E5E916F104D1F504E810E005C007
S11304E001E810E002C002E810E0C70106960E948D
S11304F07403B82EA92EC3010E947403D82EC92EEA
S1130500C2010E9474037C01C1010E947403AF9272
S1130510BF92CF92DF9295958795959587959595FE
S1130520879595958795959587958E299F299F936E
S11305308F9388E191E09F938F930E949B07C8015A
S11305400E9495030FB6F894DEBF0FBECDBF0F9087
S11305500F90DF91CF911F910F91FF90EF90DF905B
S1130560CF90BF90AF909F908F907F906F905F904F
S11305704F903F902F900895CF93DF93CDB7DEB780
S11305802B970FB6F894DEBF0FBECDBF8091F50157
S11305909091F6019A83898387E08B8384E491E0C8
S11305A09F938F930E949B070E94FA028C830E9460
S11305B005038D830E9430038E830E9410038F8372
S11305C00E941A0388870E94370389870E943E038A
S11305D08A8760E370E0CE0101960E94F3010F90D8
S11305E00F902B960FB6F894DEBF0FBECDBFDF91F0
S11305F0CF91089584E08093001481E48A95F1F703
S113060000C08091001490E0089585E08093001468
S113061081E48A95F1F700C08091001490E0089578
S113062086E08093001481E48A95F1F700C08091FC
S11306300014089587E08093001481E48A95F1F70B
S113064000C0809100140895B99887B3817087BB66
S113065087B3827087BB87B3847087BBC29A0895BF
S113066081E090E0B39B02C080E090E0089581E0D7
S113067090E0B19902C080E090E0089581E090E0BC
S1130680B09902C080E090E0089568E176E084E1EA
S113069096E00E94500785B7806885BF8FE190E09F
S11306A00E941C060E9424030E94E4040E94770511
S11306B00E94DD040E943C049093FA018093F901A6
S11306C01092F8011092F70180E090E00E94D301AB
S11306D02FEF8FE791E0215080409040E1F700C078
S11306E000C00E94BC02F4CFCF93C82FC49883E00B
S11306F00E940E068C2F0E940E0680E00E940E06B9
S1130700C49ACF910895CF93DF93D82FC62FC4985E
S113071082E00E940E068D2F0E940E068C2F0E94EE
S11307200E06C49ADF91CF910895C4980E940E06D4
S1130730C49A08951F93CF93DF93182FD62FC42FF5
S1130740C49885E00E940E06812F0E940E068D2F0C
S11307500E940E068C2F0E940E06C49ADF91CF9140
S11307601F910895C49880EC0E940E06C49A0895BF
S11307700E9407060E94B2038EE090E00E94740378
S1130780807E99278038910539F08BE591E00E94AD
S1130790AF0781E090E0089580E090E00895089527
S11307A0CF93DF930E947705CDE8D1E00E94DD046A
S11307B0DF93CF930E9485050E9437030F900F901B
S11307C0892BA1F3DF91CF910895DF92EF92FF92ED
S11307D00F931F93CF93DF937C018B01D42E89E079
S11307E090E00E942906EC01FE82ED8218870F83B7
S11307F0D8824D2D50E0CA01880F991F880F991F88
S1130800880F991F840F951F0E9429069A83898354
S1130810CE01DF91CF911F910F91FF90EF90DF9068
S113082008951F93CF93DF93EC018881882301F10E
S113083010E0812F90E0880F991FE981FA81E80F79
S1130840F91F0190F081E02DD483C38329813A817B
S1130850F901E80FF91F0190F081E02D80818823D0
S113086019F0CF010E9411041F5F8881181708F343
S1130870DF91CF911F9108950F931F93CF93DF932F
S113088043E060E070E088E991E00E94E503EC0158
S113089009811A8140E060ED73E08DE991E00E94E6
S11308A0E503F8019183808309811A8142E060E0C5
S11308B070E083EA91E00E94E503F8019383828368
S11308C0E981FA810280F381E02D0181128140E007
S11308D069EB75E08CEA91E00E94E503F8019183ED
S11308E08083E981FA810280F381E02D0181128104
S11308F040E063EA75E085EB91E00E94E503F801CE
S11309009383828309811A8140E06FEC73E085EC64
S113091091E00E94E503F80195838483CE010E944F
S11309201104CE01DF91CF911F910F91089528E01A
S1130930829FC0011124FC01E059F04020E030E026
S11309408491A0910801B09109018C932F5F3F4FCE
S1130950319628303105A1F70895282F2F70E091A2
S11309600601F09107012083807F9927959587954B
S11309709595879595958795959587958061E0914F
S11309800601F0910701808308958055E0910601E6
S1130990F09107018083E0910601F0910701108234
S11309A00895CF93DF93EC01CB010E94C504CE01DF
S11309B00E94AD04DF91CF91089560E070E080E083
S11309C090E00E94D1040895E0910601F09107019E
S11309D08EEA8083E0910601F091070181EA808329
S11309E0E0910601F09107018AED8083E091060110
S11309F0F091070182E18083E0910601F091070103
S1130A0088EC8083E0910601F091070188EA8083F5
S1130A10E0910601F09107018FE38083E0910601E4
S1130A20F091070185ED8083E0910601F0910701C3
S1130A3080E88083E0910601F091070181E88083DA
S1130A40E0910601F091070180E58083E0910601C1
S1130A50F091070189ED8083E0910601F09107018F
S1130A6081E28083E0910601F091070180E28083B6
S1130A70E0910601F091070182E08083E091060194
S1130A80F09107018BED8083E0910601F09107015D
S1130A9080E38083E0910601F09107018DEA808371
S1130AA0E0910601F09107011082E0910601F091B6
S1130AB0070184EA8083E0910601F091070186EA48
S1130AC08083E0910601F09107018FEA80830E9400
S1130AD0DD0408950E94C50480E890E0E0910801D7
S1130AE0F0910901108201970097C1F70895CF93FF
S1130AF0DF93C0E0D0E0CE010E946A052196C830A1
S1130B00D105C9F7DF91CF910895CF93DF93CDB786
S1130B10DEB7FE01359661917191AF018AE091E0F3
S1130B200E94DC07DF91CF910895E0910601F091D6
S1130B30070187EA80830895E0910601F091070197
S1130B4086EA808308958091E4019091E501892BE0
S1130B5039F00E949C051092E5011092E401089579
S1130B600E94950581E090E09093E5018093E40173
S1130B700895CF930E9477050E94DD048CEA91E0EA
S1130B809F938F930E94850563E070E080E090E07E
S1130B900E94D1048FEC91E09F938F930E9485056E
S1130BA067E070E083E090E00E94D1048BED91E077
S1130BB09F938F930E9485050F900F900F900F9035
S1130BC00F900F90C1E80E943703892BF1F40E9423
S1130BD03E03892B69F0E0910601F091070181E859
S1130BE08083E0910801F091090180E580830DC0C4
S1130BF00E941003E0910601F0910701C083E09187
S1130C000801F09109018083DECFCF91089587B365
S1130C10806B87BBBE9881E58DB908958FB9779BAA
S1130C20FECF8FB190E008955D9BFECF8CB90895FF
S1130C305F9BFECF8CB1089590BD89B988E18AB9D4
S1130C4086E880BD68E176E084E196E00E94500782
S1130C500895CF93DF938230910510F482E090E001
S1130C60E091FF01F091000220E030E0A0E0B0E06C
S1130C70309739F14081518148175907B8F0481726
S1130C80590771F482819381109729F013969C93EC
S1130C908E9312972CC0909300028093FF0127C07B
S1130CA02115310531F04217530718F0A901DB0172
S1130CB001C0EF019A01BD01DF010280F381E02D43
S1130CC0D7CF21153105F9F0281B390B2430310514
S1130CD080F48A819B816115710521F0FB01938366
S1130CE0828304C0909300028093FF01FE01329638
S1130CF044C0FE01E20FF31F819391932250310906
S1130D00398328833AC02091FD013091FE01232BC1
S1130D1041F420910201309103013093FE012093AC
S1130D20FD0120910001309101012115310541F4AB
S1130D302DB73EB74091040150910501241B350B9A
S1130D40E091FD01F091FE01E217F307A0F42E1BE0
S1130D503F0B2817390778F0AC014E5F5F4F24171B
S1130D60350748F04E0F5F1F5093FE014093FD017D
S1130D708193919302C0E0E0F0E0CF01DF91CF9145
S1130D800895CF93DF93009709F487C0FC0132974D
S1130D9013821282C091FF01D0910002209781F446
S1130DA020813181280F391F8091FD019091FE012E
S1130DB08217930779F5F093FE01E093FD016DC06E
S1130DC0DE0120E030E0AE17BF0750F412964D91DB
S1130DD05C9113979D014115510509F1DA01F3CF97
S1130DE0B383A28340815181840F951F8A179B0787
S1130DF071F48D919C911197840F951F02969183A4
S1130E00808312968D919C911397938382832115ED
S1130E10310529F4F0930002E093FF013EC0D901AB
S1130E201396FC93EE9312974D915D91A40FB51F09
S1130E30EA17FB0779F480819181840F951F02964C
S1130E40D90111969C938E938281938113969C93DE
S1130E508E931297E0E0F0E08A819B81009719F06D
S1130E60FE01EC01F9CFCE01029628813981820F6F
S1130E70931F2091FD013091FE012817390769F471
S1130E80309729F4109200021092FF0102C01382DD
S1130E901282D093FE01C093FD01DF91CF9108959A
S1130EA00F931F93CF93DF93EC018B01009731F4E1
S1130EB06115710519F480E090E038C06EE070E0CF
S1130EC081E090E00E94AE09FC010097A1F380E864
S1130ED083830115110571F01387028781E88383E9
S1130EE08091010290910202892B21F4F093020275
S1130EF0E09301022097C9F0D187C0878381826083
S1130F0083838091030290910402892B71F4F093FE
S1130F100402E09303028091050290910602892B5A
S1130F2021F4F0930602E0930502CF01DF91CF9103
S1130F301F910F910895A0E0B0E0E1EAF7E00C946E
S1130F40870AFE01359661917191AF018091030288
S1130F50909104020E94DC07E2E00C94A30A0F9330
S1130F601F93CF93DF93E0910302F0910402238156
S1130F7021FF1BC0EC0100E010E0899160910302A5
S1130F8070910402DB011896ED91FC911997882366
S1130F9031F00995892B89F30FEF1FEFEECF8AE02B
S1130FA00995892B11F4C80102C08FEF9FEFDF91DF
S1130FB0CF911F910F910895ACE0B0E0E2EEF7E01D
S1130FC00C94770A7C016B018A01FC01178216825A
S1130FD0838181FFBDC1CE0101964C01F70193814C
S1130FE0F60193FD859193FF81916F01882309F4A4
S1130FF0ABC1853239F493FD859193FF81916F01E3
S1131000853229F4B70190E00E94E709E7CF512C1B
S1131010312C20E02032A0F48B3269F030F480329D
S113102059F0833269F420612CC08D3239F0803359
S113103039F4216026C02260246023C0286021C0C6
S113104027FD27C030ED380F3A3078F426FF06C06C
S1131050FAE05F9E300D1124532E13C08AE0389EAF
S1131060300D1124332E20620CC08E3221F426FD63
S11310706BC1206406C08C3611F4206802C0883627
S113108041F4F60193FD859193FF81916F018111E4
S1131090C1CF982F9F7D9554933028F40C5F1F4F38
S11310A0FFE3F9830DC0833631F0833771F0833564
S11310B009F05BC022C0F801808189830E5F1F4F55
S11310C044244394512C540115C03801F2E06F0EAE
S11310D0711CF801A080B18026FF03C0652D70E06B
S11310E002C06FEF7FEFC5012C870E94DC092C0141
S11310F083012C852F77222E17C03801F2E06F0E62
S1131100711CF801A080B18026FF03C0652D70E03A
S113111002C06FEF7FEFC5012C870E94CA092C0122
S11311202C852068222E830123FC1BC0832D90E094
S113113048165906B0F4B70180E290E00E94E7092E
S11311403A94F4CFF50127FC859127FE81915F0144
S1131150B70190E00E94E70931103A94F1E04F1A88
S113116051084114510471F7E5C0843611F08936F1
S113117039F5F80127FF07C060817181828193816D
S11311800C5F1F4F08C060817181882777FD8095AF
S1131190982F0E5F1F4F2F76B22E97FF09C09095A0
S11311A08095709561957F4F8F4F9F4F2068B22E29
S11311B02AE030E0A4010E94190AA82EA81844C00D
S11311C0853729F42F7EB22E2AE030E025C0F22F95
S11311D0F97FBF2E8F36C1F018F4883579F0B4C08A
S11311E0803719F0883721F0AFC02F2F2061B22E3D
S11311F0B4FE0DC08B2D8460B82E09C024FF0AC034
S11312009F2F9660B92E06C028E030E005C020E18B
S113121030E002C020E132E0F801B7FE07C060818F
S11312207181828193810C5F1F4F06C0608171813F
S113123080E090E00E5F1F4FA4010E94190AA82EBF
S1131240A818FB2DFF77BF2EB6FE0BC02B2D2E7FCB
S1131250A51450F4B4FE0AC0B2FC08C02B2D2E7E97
S113126005C07A2C2B2D03C07A2C01C0752C24FFC9
S11312700DC0FE01EA0DF11D8081803311F4297E39
S113128009C022FF06C07394739404C0822F867829
S113129009F0739423FD13C020FF06C05A2C731465
S11312A018F4530C5718732C731468F4B70180E2C4
S11312B090E02C870E94E70973942C85F5CF731472
S11312C010F4371801C0312C24FF12C0B70180E399
S11312D090E02C870E94E7092C8522FF17C021FF8C
S11312E003C088E590E002C088E790E0B7010CC035
S11312F0822F867859F021FD02C080E201C08BE282
S113130027FD8DE2B70190E00E94E709A51438F4A7
S1131310B70180E390E00E94E7095A94F7CFAA94BA
S1131320F401EA0DF11D8081B70190E00E94E70904
S1131330A110F5CF332009F451CEB70180E290E03B
S11313400E94E7093A94F6CFF7018681978102C09B
S11313508FEF9FEF2C96E2E10C94930A0F931F9367
S1131360CF93DF93869F8001879F100D969F100D6A
S11313701124C8010E942906EC01009729F0A80154
S113138060E070E00E94D509CE01DF91CF911F91FA
S11313900F910895FC010590615070400110D8F739
S11313A0809590958E0F9F1F0895DC0101C06D9369
S11313B041505040E0F70895FC01615070400190A5
S11313C00110D8F7809590958E0F9F1F08950F9365
S11313D01F93CF93DF93182F092FEB018B8181FD8E
S11313E003C08FEF9FEF20C082FF10C04E815F814A
S11313F02C813D81421753077CF4E881F9819F01D8
S11314002F5F3F4F39832883108306C0E885F98511
S1131410812F0995892B29F72E813F812F5F3F4F1B
S11314203F832E83812F902FDF91CF911F910F91B6
S11314300895FA01AA27283051F1203181F1E89466
S11314406F936E7F6E5F7F4F8F4F9F4FAF4FB1E0B3
S11314503ED0B4E03CD0670F781F891F9A1FA11DAE
S1131460680F791F8A1F911DA11D6A0F711D811DAF
S1131470911DA11D20D009F468943F912AE0269F74
S113148011243019305D3193DEF6CF010895462FD3
S11314904770405D4193B3E00FD0C9F7F6CF462FB4
S11314A04F70405D4A3318F0495D31FD405241931D
S11314B002D0A9F7EACFB4E0A695979587957795DA
S11314C06795BA95C9F700976105710508959B0161
S11314D0AC010A2E06945795479537952795BA95EA
S11314E0C9F7620F731F841F951FA01D08952F92C3
S11314F03F924F925F926F927F928F929F92AF92A0
S1131500BF92CF92DF92EF92FF920F931F93CF93EC
S1131510DF93CDB7DEB7CA1BDB0B0FB6F894DEBF83
S11315200FBECDBF09942A88398848885F846E84A9
S11315307D848C849B84AA84B984C884DF80EE80F3
S1131540FD800C811B81AA81B981CE0FD11D0FB6FC
S1131550F894DEBF0FBECDBFED010895F894FFCF20
S1131560000007022000001000120000000200002A
S11315700000970400000000427566666572203D15
S11315800A094944203D20253032780A09444C4355
S1131590203D20253032780A094430203D20253072
S11315A032780A0049442073657420746F20370030
S11315B0436F7272656374204944004552524F521E
S11315C03A204D435032353135206973204E4F5403
S11315D020696E20636F6E666967206D6F64652095
S11315E061667465722072657365742100736E613F
S11315F06B652066756E6B004D61696E00536E619C
S11316006B650053657474696E677300436F6E7421
S11316107261737400546F67676C65206E656761EF
S1131620746976650050696E6720506F6E67006C50
S113163065667420736C69646572004465666175DF
S10716406C740000C2
S9030000FC
