:100000000C94B4010C94D1010C94D1010C94D10145
:100010000C94D1010C94D1010C94D1010C94D10118
:100020000C94D1010C94D1010C94D1010C94D10108
:100030000C94D1010C94D1010C94D1010C94D101F8
:100040000C94D1010C94D1010C94D1010C94D101E8
:100050000C94D1010C94D1010C94D1010C94D101D8
:100060000C94D1010C94D1010C94D1010C94D101C8
:10007000000000000000000000065F5F06000000B6
:100080000007070007070000147F7F147F7F14001C
:10009000242E6B6B3A120000466630180C66620024
:1000A000307A4F5D377A48000407030000000000F3
:1000B000001C3E63410000000041633E1C00000044
:1000C000082A3E1C1C3E2A0808083E3E080800007C
:1000D00000A0E06000000000080808080808000010
:1000E00000006060000000006030180C0603010092
:1000F0003E7F594D7F3E000042427F7F40400000DE
:10010000627359496F660000226349497F360000D7
:10011000181C16137F7F1000276745457D390000A6
:100120003C7E4B4979300000036371190F070000D2
:10013000367F49497F360000064F49693F1E00005F
:1001400000006C6C0000000000A0EC6C00000000DF
:10015000081C366341000000141414141414000029
:10016000004163361C080000020351590F060000CD
:100170003E7F415D5D1F1E007C7E13137E7C000070
:10018000417F7F49497F36001C3E63414163220025
:10019000417F7F41637F1C00417F7F495D41630058
:1001A000417F7F491D0103001C3E63415173720072
:1001B0007F7F08087F7F000000417F7F41000000B3
:1001C000307040417F3F0100417F7F081C77630012
:1001D000417F7F41406070007F7F060C067F7F007B
:1001E0007F7F060C187F7F001C3E6341633E1C002E
:1001F000417F7F49090F06001E3F21717F5E00008D
:10020000417F7F19396F460026674D597B320000C8
:1002100003417F7F410300007F7F40407F7F0000DC
:100220001F3F60603F1F00007F7F3018307F7F00DE
:1002300063771C081C776300074F78784F0700002E
:100240006773594D47637100007F7F414100000093
:100250000103060C183060000041417F7F00000060
:10026000080C0603060C0800808080808080808057
:100270000000030704000000207454543C78400040
:10028000413F7F44447C3800387C44446C28000063
:10029000307848493F7F4000387C54545C18000057
:1002A000487E7F490302000098BCA4A4F87C0400A7
:1002B000417F7F08047C780000447D7D4000000081
:1002C00040C484FD7D000000417F7F10386C4400F5
:1002D00000417F7F400000007C7C0C180C7C780083
:1002E0007C7C04047C780000387C44447C3800002A
:1002F00084FCF8A4243C1800183C24A4F8FC8400D6
:10030000447C78441C180000485C54547424000059
:1003100000043E7F442400003C7C40403C7C400084
:100320001C3C60603C1C00003C7C6030607C3C00FD
:10033000446C3810386C44009CBCA0A0FC7C0000CD
:100340004C64745C4C64000008083E774141000036
:1003500000000077770000004141773E0808000068
:10036000020301030203010011241FBECFEFD4E0FA
:10037000DEBFCDBF12E0A0E0B1E0E6E9FAE102C0E5
:1003800005900D92AA32B107D9F722E0AAE2B2E0B5
:1003900001C01D92A435B207E1F70E9429030C9415
:1003A000490D0C940000CF93DF93EC010E947A0377
:1003B0004FEF50E060E670E080E690E00E945C0362
:1003C0004FEF50E060E670E080E790E00E945C0351
:1003D000AE0160EE70E08FE090E00E945C03309828
:1003E000DF91CF910895EF92FF920F931F93CF93D8
:1003F000DF930E94A0047C010E942106C7010E9495
:10040000330540E050E060E070E00E94B205D701A3
:100410008C918823E9F000E010E0C0E0D0E0219664
:10042000D7011196ED91FC911297E00FF11F808199
:1004300091810E943305AE0168E070E00E94B20530
:100440000E5F1F4FF701808190E0C817D9073CF37A
:10045000DF91CF911F910F91FF90EF900895CF936F
:10046000DF93C0912D02D0912E026AE071E08D8160
:100470009E810E947F09892B39F4CE010E9493044A
:1004800090932E0280932D020E94F40287349105EE
:10049000A4F080912D0290912E020E9493049093DB
:1004A0002E0280932D022FEF8FEF92E0215080409B
:1004B0009040E1F700C000C06AC00E94F4028A3B8D
:1004C0009F4FA4F480912D0290912E020E94A004CF
:1004D00090932E0280932D028FEF9FEF22E08150A8
:1004E00090402040E1F700C000C051C00E94F902D6
:1004F00087349105A4F080912D0290912E020E94E4
:10050000D50490932E0280932D028FEF9FEF22E06F
:10051000815090402040E1F700C000C038C00E94E8
:10052000F9028A3B9F4FE4F480912D0290912E02B4
:100530000E94A704892B59F180912D0290912E02DF
:100540000E94A70490932E0280932D028FEF9FEFBD
:1005500022E0815090402040E1F700C000C017C069
:100560000E941403892B99F0E0912D02F0912E0244
:100570000780F085E02D309751F009958FEF9FEFC0
:1005800022E0815090402040E1F700C000C0DF91A0
:10059000CF9108950E9404050E94DD050895809181
:1005A0002D0290912E020E94F3010E942F02809151
:1005B0002D0290912E020E94CA02089584E0809339
:1005C000001481E48A95F1F700C08091001490E056
:1005D000089585E08093001481E48A95F1F700C0C6
:1005E0008091001490E008950E94DE028F579109D7
:1005F00008950E94E9028F579109089586E080933B
:10060000001481E48A95F1F700C0809100140895E8
:10061000B99887B3817087BB87B3827087BB87B374
:10062000847087BBC29A089581E090E0B39B02C0BA
:1006300080E090E0089581E090E0B19902C080E010
:1006400090E0089581E090E0B09902C080E090E0F1
:10065000089569EE77E085EE97E00E94880985B7F6
:10066000806885BF8FE190E00E94ED070E9408033B
:100670000E94E80390932E0280932D0210922C0288
:1006800010922B0280E090E00E94D3010E94370577
:100690000E94CF020E94D305FBCFCF93C82FC498EE
:1006A00083E00E9479078C2F0E94790780E00E94E6
:1006B0007907C49ACF9108951F93CF93DF93182F92
:1006C000D62FC42FC49885E00E947907812F0E94FD
:1006D00079078D2F0E9479078C2F0E947907C49A81
:1006E000DF91CF911F910895C49880EC0E94790703
:1006F000C49A08950E9472070E9474038EE090E0ED
:100700000E944D03807E99278038910539F08FE053
:1007100091E00E94E70981E090E0089580E090E098
:100720000895DF92EF92FF920F931F93CF93DF9381
:100730007C018B01D42E89E090E00E94FA07EC0145
:10074000FE82ED8218870F83D8824D2D50E0CA01BA
:10075000880F991F880F991F880F991F840F951F65
:100760000E94FA079A838983CE01DF91CF911F916E
:100770000F91FF90EF90DF9008951F93CF93DF9339
:10078000EC018881882301F110E0812F90E0880F2F
:10079000991FE981FA81E80FF91F0190F081E02D9E
:1007A000D483C38329813A81F901E80FF91F0190AD
:1007B000F081E02D8081882319F0CF010E94BD03D4
:1007C0001F5F8881181708F3DF91CF911F9108955B
:1007D0000F931F93CF93DF9343E060E070E08AE0D4
:1007E00091E00E949103EC0109811A8140E06FE5DC
:1007F00077E081E491E00E949103F8019183808386
:1008000009811A8142E060E070E087E491E00E9493
:100810009103F80193838283E981FA810280F38155
:10082000E02D0181128140E060E476E080E591E016
:100830000E949103F80191838083E981FA8102800B
:10084000F381E02D0181128140E06FE276E089E5DD
:1008500091E00E949103F8019383828309811A81B8
:1008600042E060E070E089E691E00E949103F801C7
:1008700095838483E981FA810480F581E02D0181EB
:10088000128142E060E070E08FE691E00E94910307
:10089000F80191838083E981FA810480F581E02D5C
:1008A0000180F281E02D0190F081E02D0181128123
:1008B00040E060E070E083E791E00E949103F8017E
:1008C00091838083E981FA810480F581E02D0180A4
:1008D000F281E02D0190F081E02D0181128140E054
:1008E00060E070E08CE791E00E949103F80193834F
:1008F0008283E981FA810480F581E02D01811281F2
:1009000040E06FE777E08BE891E00E949103F80107
:1009100093838283CE010E94BD03CE01DF91CF91EC
:100920001F910F910895FC018081882331F001808F
:10093000F281E02D8081918108958E2F9F2F08955F
:10094000FC0183819481009709F4CF010895CF932E
:10095000DC011396ED91FC911497309709F4FC019A
:10096000C081CC23D9F061817281FB0120E030E0AD
:10097000C901419151914A175B0759F42C1748F46A
:100980000196FC01EE0FFF1FE60FF71F808191819A
:100990000AC02F5F3F4F2C1758F303C08A2F9B2F9D
:1009A00002C08A2F9B2FCF910895CF93DC0113961D
:1009B000ED91FC911497309709F4FC01C081CC2390
:1009C000E1F061817281FB0120E030E0C9014191D9
:1009D00051914A175B0761F4222351F081509048EE
:1009E000FC01EE0FFF1FE60FF71F808191810AC007
:1009F0002F5F3F4F2C1750F303C08A2F9B2F02C04D
:100A00008A2F9B2FCF910895DC011396ED91FC91D5
:100A10001497309709F4FC01608170E016161706F0
:100A2000FCF40180F281E02D208131812817390703
:100A300061F406C0419151914817590749F402C029
:100A400020E030E0C90101960895329620E030E0C0
:100A50002F5F3F4F261737076CF380E090E0089533
:100A600080E090E00895FC01858196810895E0E0A2
:100A7000F0E18EEA808381EA80838AED808382E1DF
:100A8000808388EC808388EA80838FE3808385ED90
:100A9000808380E8808381E8808380E5808389ED9E
:100AA000808381E2808390E2908310829BED90832B
:100AB00090E390839DEA9083108294EA908396EA73
:100AC00090839FEA9083808310828FE7808392E2F5
:100AD0009083108280830E94CA0708950F931F930A
:100AE000CF93DF93FB01408151815695542F4427CA
:100AF0005795479522813381420F531FFC01208176
:100B0000222359F1BC016F5F7F4FEC0100E010E040
:100B10001FC0DC01A20FB31FE881F0E0B097EE0F19
:100B2000FF1FEE0FFF1FEE0FFF1FE20FF31FE05935
:100B3000FF4FE491EC932F5F3F4F2830310549F789
:100B4000EB016F5F7F4F485F5F4F8881882329F0FB
:100B5000202F312FCA01985EDCCFDF91CF911F91FA
:100B60000F910895CF93DF9300D000D0CDB7DEB7BB
:100B70005A8349837C836B83BE016F5F7F4F0E94E2
:100B80006E050F900F900F900F90DF91CF91089509
:100B9000E0E0F8E1A0E0B2E181918C93E1158CE115
:100BA000F807D1F708950E94DF078135910520F0FD
:100BB0000E94C8050E94E207089520E8829FC001B4
:100BC0001124FC01F85E8058974E208120952193D6
:100BD000E817F907D1F70895CF92DF92EF92FF92CD
:100BE0000F931F93CF93DF9300D000D000D0CDB7E9
:100BF000DEB76C0100E010E06894EE24E5F8F12C1B
:100C0000DC82CB821E830D83FA82E982BE016D5F96
:100C10007F4FCE0101960E946E05085F1F4F00387E
:100C2000110571F726960FB6F894DEBF0FBECDBF43
:100C3000DF91CF911F910F91FF90EF90DF90CF90B8
:100C40000895CF93DF93C0E0D0E0CE010E94EC0581
:100C50002196C830D105C9F7DF91CF9108958091D1
:100C60002A02882331F086EA8093001010922A022B
:100C7000089587EA8093001081E080932A02089506
:100C80004F925F926F927F928F929F92AF92BF929C
:100C9000CF92DF92EF92FF920F931F93CF93DF9348
:100CA000CDB7DEB7AC970FB6F894DEBF0FBECDBFA1
:100CB0000E9421060F2EF9E08F2EF02D6894AA24B1
:100CC000A2F8B12C0F2EF8E1CF2ED12CF02D0F2E43
:100CD000FCE09F2EF02D0F2EF7E0EF2EF12CF02DE3
:100CE0000F2EFDE44F2EF1E65F2EF8E76F2E712CEC
:100CF000F02D00E010E11AA619A61CA61BA6E0E53F
:100D0000F1E0DE019096882D01900D928A95E1F731
:100D1000BE01675D7F4FCE0180960E946E05BD8E3D
:100D2000AC8EDF8ECE8EE7EAF1E0DE015096892DA3
:100D300001900D928A95E1F7BE01645E7F4FCE016E
:100D400040960E946E05FD86EC861F861E8687E013
:100D5000E3EBF1E0DE01159601900D928A95E1F743
:100D6000BE01645F7F4FCE0105960E946E054982E9
:100D70005A826B827C82A70160E670E0CE01019608
:100D80000E94B2050E94C8050E94FE02825091E8AE
:100D9000F801908380830E941B03892B59F40E94E1
:100DA0002203892B09F4A7CFE0E0F0E181E88083FA
:100DB0008FEF8083AC960FB6F894DEBF0FBECDBF29
:100DC000DF91CF911F910F91FF90EF90DF90CF9027
:100DD000BF90AF909F908F907F906F905F904F905B
:100DE0000895FC0181E08093490285E090E09183C1
:100DF00080839383828381E090E09783868382E07F
:100E000090E0918780879587848797878687089564
:100E1000DF92EF92FF920F931F93CF93DF9300D057
:100E200000D000D0CDB7DEB78C010E9421068091A2
:100E300049028823B1F1D12C0F2EFFE4EF2EF12CC3
:100E4000F02D2D2D30E0F901EE0FFF1F2E0F3F1F6B
:100E5000F901EE0FFF1FE00FF11F848195810897C4
:100E60009C01992324F422273327281B390B3C8328
:100E70002B8380819181880F991F880F991F880F7C
:100E8000991F9E838D83FA82E982BE016D5F7F4F39
:100E9000CE0101960E946E05D39480914902D81626
:100EA00080F226960FB6F894DEBF0FBECDBFDF915D
:100EB000CF911F910F91FF90EF90DF900895CF9306
:100EC000DF93EC010E94F106CE010E9408070E9408
:100ED00021060E94D3050E941B03892BA9F3DF91F1
:100EE000CF91089587B3806B87BBBE9881E58DB99C
:100EF00008958FB9779BFECF8FB190E00895EF9260
:100F0000FF920F931F93CF93DF938AEB91E00E94A0
:100F1000E7090E946F097C010E947409C0E0D8E1D2
:100F200000E010E00E946F0988839881981711F003
:100F30000F5F1F4F2196C11580E2D80799F7C701AF
:100F40000E947409C0E0D8E1E12CF12C0E946F09E5
:100F50009881981719F08FEFE81AF80A2196C115B1
:100F600080E2D80799F7FF92EF921F930F9380EDDD
:100F700091E09F938F930E94D3090F900F900F9051
:100F80000F900F900F90DF91CF911F910F91FF90D5
:100F9000EF9008951FBC1EBC8EB585608EBD8EB5CA
:100FA0008D7F8EBD8FB58E7F8FBD8FB58D7F8FBDB1
:100FB0008EB5877F8EBD8EB58F7E8EBD08958CB524
:100FC0009DB508951DBC1CBC08955D9BFECF8CB9DA
:100FD00008955F9BFECF8CB1089590BD89B988E1DB
:100FE0008AB986E880BD69EE77E085EE97E00E94D9
:100FF00088090895CF93DF938230910510F482E041
:1010000090E0E0914C02F0914D0220E030E0A0E051
:10101000B0E0309739F14081518148175907B8F055
:101020004817590771F482819381109729F013961C
:101030009C938E9312972CC090934D0280934C02F8
:1010400027C02115310531F04217530718F0A901C7
:10105000DB0101C0EF019A01BD01DF010280F381D4
:10106000E02DD7CF21153105F9F0281B390B24309D
:10107000310580F48A819B816115710521F0FB01A6
:101080009383828304C090934D0280934C02FE01AF
:10109000329644C0FE01E20FF31F819391932250D8
:1010A0003109398328833AC020914A0230914B029A
:1010B000232B41F4209102013091030130934B0224
:1010C00020934A0220910001309101012115310540
:1010D00041F42DB73EB74091040150910501241B06
:1010E000350BE0914A02F0914B02E217F307A0F4AE
:1010F0002E1B3F0B2817390778F0AC014E5F5F4F6E
:101100002417350748F04E0F5F1F50934B02409352
:101110004A028193919302C0E0E0F0E0CF01DF91B9
:10112000CF910895CF93DF93009709F487C0FC0116
:10113000329713821282C0914C02D0914D022097B7
:1011400081F420813181280F391F80914A029091CA
:101150004B028217930779F5F0934B02E0934A0212
:101160006DC0DE0120E030E0AE17BF0750F41296EC
:101170004D915C9113979D014115510509F1DA01DB
:10118000F3CFB383A28340815181840F951F8A17C7
:101190009B0771F48D919C911197840F951F029676
:1011A0009183808312968D919C9113979383828370
:1011B0002115310529F4F0934D02E0934C023EC015
:1011C000D9011396FC93EE9312974D915D91A40F64
:1011D000B51FEA17FB0779F480819181840F951F71
:1011E0000296D90111969C938E93828193811396D6
:1011F0009C938E931297E0E0F0E08A819B810097A8
:1012000019F0FE01EC01F9CFCE0102962881398157
:10121000820F931F20914A0230914B022817390701
:1012200069F4309729F410924D0210924C0202C0DA
:1012300013821282D0934B02C0934A02DF91CF9166
:1012400008958F929F92AF92BF92CF92DF92EF92CA
:10125000FF92CF93DF93EC01688179818A819B8132
:10126000611571058105910521F464E279ED8BE545
:1012700097E02DE133EF41E050E00E94AF0C4901CF
:101280005A019B01AC01A7EAB1E40E94CE0C6B01AC
:101290007C01ACEEB4EFA50194010E94DC0CC60EFB
:1012A000D71EE81EF91EF7FE06C081E0C81AD10855
:1012B000E10880E8F80AC882D982EA82FB82C60186
:1012C0009F77DF91CF91FF90EF90DF90CF90BF900D
:1012D000AF909F908F9008950E942109089586E015
:1012E00091E00E9421090895A0E0B0E080930601FA
:1012F00090930701A0930801B09309010895FB01A1
:10130000DC018D91019080190110D9F3990B08959A
:101310000F931F93CF93DF93EC018B01009731F470
:101320006115710519F480E090E038C06EE070E05E
:1013300081E090E00E94E60BFC010097A1F380E8B9
:1013400083830115110571F01387028781E8838378
:1013500080914E0290914F02892B21F4F0934F021D
:10136000E0934E022097C9F0D187C08783818260C5
:1013700083838091500290915102892B71F4F093F4
:101380005102E09350028091520290915302892BB6
:1013900021F4F0935302E0935202CF01DF91CF91F9
:1013A0001F910F910895A0E0B0E0E9EDF9E00C94F1
:1013B000F10CFE01359661917191AF01809150025F
:1013C000909151020E94140AE2E00C940D0D0F93CB
:1013D0001F93CF93DF93E0915002F091510223814C
:1013E00021FF1BC0EC0100E010E0899160915002E8
:1013F00070915102DB011896ED91FC9119978823A9
:1014000031F00995892B89F30FEF1FEFEECF8AE0BA
:101410000995892B11F4C80102C08FEF9FEFDF916E
:10142000CF911F910F910895ACE0B0E0EAE1FAE0AE
:101430000C94E10C7C016B018A01FC01178216827D
:10144000838181FFBDC1CE0101964C01F7019381DB
:10145000F60193FD859193FF81916F01882309F433
:10146000ABC1853239F493FD859193FF81916F0172
:10147000853229F4B70190E00E941F0CE7CF512C70
:10148000312C20E02032A0F48B3269F030F480322D
:1014900059F0833269F420612CC08D3239F08033E9
:1014A00039F4216026C02260246023C0286021C056
:1014B00027FD27C030ED380F3A3078F426FF06C0FC
:1014C000FAE05F9E300D1124532E13C08AE0389E3F
:1014D000300D1124332E20620CC08E3221F426FDF3
:1014E0006BC1206406C08C3611F4206802C08836B7
:1014F00041F4F60193FD859193FF81916F01811174
:10150000C1CF982F9F7D9554933028F40C5F1F4FC7
:10151000FFE3F9830DC0833631F0833771F08335F3
:1015200009F05BC022C0F801808189830E5F1F4FE4
:1015300044244394512C540115C03801F2E06F0E3D
:10154000711CF801A080B18026FF03C0652D70E0FA
:1015500002C06FEF7FEFC5012C870E94140C2C0195
:1015600083012C852F77222E17C03801F2E06F0EF1
:10157000711CF801A080B18026FF03C0652D70E0CA
:1015800002C06FEF7FEFC5012C870E94020C2C0177
:101590002C852068222E830123FC1BC0832D90E024
:1015A00048165906B0F4B70180E290E00E941F0C83
:1015B0003A94F4CFF50127FC859127FE81915F01D4
:1015C000B70190E00E941F0C31103A94F1E04F1ADD
:1015D00051084114510471F7E5C0843611F0893681
:1015E00039F5F80127FF07C06081718182819381FD
:1015F0000C5F1F4F08C060817181882777FD80953F
:10160000982F0E5F1F4F2F76B22E97FF09C090952F
:101610008095709561957F4F8F4F9F4F2068B22EB8
:101620002AE030E0A4010E94510CA82EA81844C062
:10163000853729F42F7EB22E2AE030E025C0F22F24
:10164000F97FBF2E8F36C1F018F4883579F0B4C019
:10165000803719F0883721F0AFC02F2F2061B22ECC
:10166000B4FE0DC08B2D8460B82E09C024FF0AC0C3
:101670009F2F9660B92E06C028E030E005C020E11B
:1016800030E002C020E132E0F801B7FE07C060811F
:101690007181828193810C5F1F4F06C060817181CF
:1016A00080E090E00E5F1F4FA4010E94510CA82E15
:1016B000A818FB2DFF77BF2EB6FE0BC02B2D2E7F5B
:1016C000A51450F4B4FE0AC0B2FC08C02B2D2E7E27
:1016D00005C07A2C2B2D03C07A2C01C0752C24FF59
:1016E0000DC0FE01EA0DF11D8081803311F4297EC9
:1016F00009C022FF06C07394739404C0822F8678B9
:1017000009F0739423FD13C020FF06C05A2C7314F4
:1017100018F4530C5718732C731468F4B70180E253
:1017200090E02C870E941F0C73942C85F5CF7314C6
:1017300010F4371801C0312C24FF12C0B70180E328
:1017400090E02C870E941F0C2C8522FF17C021FFE0
:1017500003C088E590E002C088E790E0B7010CC0C4
:10176000822F867859F021FD02C080E201C08BE211
:1017700027FD8DE2B70190E00E941F0CA51438F4FC
:10178000B70180E390E00E941F0C5A94F7CFAA940F
:10179000F401EA0DF11D8081B70190E00E941F0C59
:1017A000A110F5CF332009F451CEB70180E290E0CB
:1017B0000E941F0C3A94F6CFF7018681978102C0F0
:1017C0008FEF9FEF2C96E2E10C94FD0C0F931F938B
:1017D000CF93DF93869F8001879F100D969F100DFA
:1017E0001124C8010E94FA07EC01009729F0A80112
:1017F00060E070E00E940D0CCE01DF91CF911F914F
:101800000F910895FC010590615070400110D8F7C8
:10181000809590958E0F9F1F0895DC0101C06D93F8
:1018200041505040E0F70895FC0161507040019034
:101830000110D8F7809590958E0F9F1F08950F93F4
:101840001F93CF93DF93182F092FEB018B8181FD1D
:1018500003C08FEF9FEF20C082FF10C04E815F81D9
:101860002C813D81421753077CF4E881F9819F0167
:101870002F5F3F4F39832883108306C0E885F985A1
:10188000812F0995892B29F72E813F812F5F3F4FAB
:101890003F832E83812F902FDF91CF911F910F9146
:1018A0000895FA01AA27283051F1203181F1E894F6
:1018B0006F936E7F6E5F7F4F8F4F9F4FAF4FB1E043
:1018C0003ED0B4E03CD0670F781F891F9A1FA11D3E
:1018D000680F791F8A1F911DA11D6A0F711D811D3F
:1018E000911DA11D20D009F468943F912AE0269F04
:1018F00011243019305D3193DEF6CF010895462F63
:101900004770405D4193B3E00FD0C9F7F6CF462F43
:101910004F70405D4A3318F0495D31FD40524193AC
:1019200002D0A9F7EACFB4E0A69597958795779569
:101930006795BA95C9F700976105710508959B01F0
:10194000AC010A2E06945795479537952795BA9579
:10195000C9F7620F731F841F951FA01D0895052EE0
:1019600097FB1EF400940E94C60C57FD07D00E94FE
:10197000180D07FC03D04EF40C94C60C50954095FE
:10198000309521953F4F4F4F5F4F0895909580952B
:10199000709561957F4F8F4F9F4F08950E943A0D2C
:1019A000A59F900DB49F900DA49F800D911D1124B3
:1019B0000895B7FF0C94CE0C0E94CE0C821B930BA3
:1019C00008952F923F924F925F926F927F928F92E3
:1019D0009F92AF92BF92CF92DF92EF92FF920F93BE
:1019E0001F93CF93DF93CDB7DEB7CA1BDB0B0FB6C8
:1019F000F894DEBF0FBECDBF09942A883988488885
:101A00005F846E847D848C849B84AA84B984C8841A
:101A1000DF80EE80FD800C811B81AA81B981CE0F11
:101A2000D11D0FB6F894DEBF0FBECDBFED010895F6
:101A3000A1E21A2EAA1BBB1BFD010DC0AA1FBB1FD2
:101A4000EE1FFF1FA217B307E407F50720F0A21B44
:101A5000B30BE40BF50B661F771F881F991F1A94B1
:101A600069F760957095809590959B01AC01BD01DB
:101A7000CF010895A29FB001B39FC001A39F700D35
:101A8000811D1124911DB29F700D811D1124911D86
:061A90000895F894FFCF59
:101A9600000054022000010000004D61696E0045FF
:101AA60052524F523A204D435032353135206973E8
:101AB600204E4F5420696E20636F6E666967206DF5
:101AC6006F64652061667465722072657365742142
:101AD60000536E616B650053657474696E677300BD
:101AE600436F6E747261737400546F67676C652020
:101AF6006E65676174697665005465737473004337
:101B0600616E004C6F6F706261636B004E6F64654F
:101B16003120746F204E6F646532005352414D0080
:101B26006E6F20736E616B652079657400726574E3
:101B360075726E00200A006C65667420736C6964A9
:101B460065720052657475726E00537461727469C1
:101B56006E67205352414D20746573742E2E2E00ED
:101B66005352414D207465737420636F6D706C65BC
:101B76007465642077697468200A25346420657268
:101B8600726F727320696E2077726974652070684F
:101B960061736520616E64200A2534642065727263
:101BA6006F727320696E2072657472696576616CF6
:0A1BB6002070686173650A0A0000E0
:00000001FF
