:1000000043C1000061C100005FC100005DC100008C
:100010005BC1000059C1000057C1000055C100007C
:1000200053C1000051C100004FC100004DC100008C
:100030004BC1000049C1000047C1000045C100009C
:1000400043C1000041C100003FC100003DC10000AC
:100050003BC1000039C1000037C1000035C10000BC
:1000600033C1000031C100002FC100002DC10000CC
:100070002BC1000029C1000027C1000025C10000DC
:1000800023C1000021C100001FC100001DC10000EC
:100090001BC1000019C1000017C1000094C6000078
:1000A00013C1000011C100000FC100000DC100000C
:1000B0000BC1000009C1000007C1000005C100001C
:1000C00003C1000001C10000FFC00000FDC000002E
:1000D000FBC00000F9C00000F7C00000F5C0000040
:1000E000F3C00000FE0650075007500750075007A6
:1000F00050075007FE06500750075007500750079B
:100100005007500700075007500750075007500787
:100110005007500750075007500750075007500727
:100120005007500700075007500750075007500767
:100130005007500750075007500750075007500707
:10014000500750074C0750075007500750075007FB
:10015000500750072907500750075007500750070E
:1001600050075007500750075007500750075007D7
:10017000500750071D0750075007500750075007FA
:10018000500750073B076E616E00696E66000040C5
:100190007A10F35A00A0724E18090010A5D4E80096
:1001A00000E87648170000E40B54020000CA9A3BAE
:1001B000000000E1F5050000809698000000404234
:1001C0000F000000A08601000000102700000000C2
:1001D000E803000000006400000000000A000000C6
:1001E00000000100000000002C76D888DC674F0872
:1001F00023DFC1DFAE59E1B1B796E5E3E453C63A78
:10020000E651997696E8E6C28426EB898C9B62EDEE
:10021000407C6FFCEFBC9C9F40F2BAA56FA5F490A8
:10022000055A2AF75C936B6CF9676DC11BFCE0E41F
:100230000D47FEF520E6B500D0ED902E0300943575
:1002400077050080841E080000204E0A000000C8C8
:100250000C333333330F986E12831141EF8D211419
:10026000893BE65516CFFEE6DB18D1844B381BF7E9
:100270007C1D901DA4BBE424203284725E22810088
:10028000C9F124ECA1E53D2711241FBECFEFD1E237
:10029000DEBFCDBF00E00CBF12E0A0E0B2E0E4EAB8
:1002A000F0E200E00BBF02C007900D92AA39B1073F
:1002B000D9F722E0AAE9B2E001C01D92A93BB2073A
:1002C000E1F724D00C9450109BCEEAE7F0E0808157
:1002D00087688083ECE7F0E08081806480838081A0
:1002E000806880830895ECE7F0E090818370982B1C
:1002F0009083EAE7F0E0808180648083808186FDDE
:10030000FDCF80917800909179000895CF93DF938D
:10031000CDB7DEB766970FB6F894DEBF0FBECDBF80
:1003200085B7806885BF87E690E0E0D580E090E003
:10033000B1D023D26B9ABED488D4C9D267E771E01A
:1003400088E893E126D42DEC3CEC4CE45DE36AE0D4
:1003500077ED83EA9CE394D35C01FAD20F2EF0E1AF
:10036000EF2EF2E0FF2EF02D0F2EFCE18F2EF2E0AB
:100370009F2EF02D0F2EF1E92F2E33243394F02DE4
:10038000CE010C96B8D1EDD18F5F9109BC019923B4
:1003900024F466277727681B790B882777FD8095DB
:1003A000982FB4D62B013C016091A2027091A30258
:1003B00080E090E0A9D69B01AC01C301B20132D725
:1003C00020E030E04FE753E406D672D62B013C0123
:1003D0006B019BD28C01A201BC01C50177D33C010A
:1003E00058D2C301992324F488279927861997099D
:1003F0009F938F93FF92EF920E94930F0F900F9015
:100400000F900F908091A2029091A3028017910704
:1004100020F48FE7C816D10420F001361A4E08F0F8
:100420004FD2A7D1892B31F034D4882319F018D4B6
:1004300029D404C09ED1892B09F427D496D1E9D3BD
:1004400080919A021F928F939F928F920E94930F96
:1004500068D40F900F900F900F908536910508F497
:100460008FCF80919A028F5F80939A023A8229827D
:100470001C8285D1892B29F080E991E09A838983B8
:1004800002C03A82298260E370E0CE0101961ED05C
:1004900069D476CFCF93DF93EC01CAD14FEF50E010
:1004A00060E670E080E690E0AAD14FEF50E060E6B1
:1004B00070E080E790E0A3D1AE0160EE70E08FE0E5
:1004C00090E09DD16998DF91CF9108958F929F928E
:1004D000AF92BF92CF92DF92EF92FF920F931F9352
:1004E000CF93DF931F921F92CDB7DEB75C017B01E4
:1004F0004FEF50E068E070E0C70181D1C70160D1E3
:1005000083FDFCCFF50180819181282F2295220F58
:10051000207E2983969587959695879596958795BC
:100520008A83698170E0C701029656D16A8170E0C2
:10053000C701019651D1F50162816F7070E0C7016A
:1005400005964AD1F50182818823D1F06501F3E057
:10055000CF0ED11C00E010E0470186E0880E911C10
:10056000F60161916F0170E0C401800F911F34D1D9
:100570000F5F1F4FF501828190E00817190784F380
:10058000F0E3EF16F10459F080E4E816F10451F0BD
:10059000E0E5EE16F10449F484E890E005C081E856
:1005A00090E002C082E890E026D10F900F90DF919A
:1005B000CF911F910F91FF90EF90DF90CF90BF9060
:1005C000AF909F908F900895619BFECF8CE290E05A
:1005D000F7D080FD07C08CE290E0F2D081FF04C02C
:1005E00080E7089580E608958FEF08957F928F92B7
:1005F0009F92AF92BF92CF92DF92EF92FF920F93B2
:100600001F93CF93DF93CDB7DEB72B970FB6F89438
:10061000DEBF0FBECDBF6C01D7DF982E082F10E0D4
:10062000C8010196CDD07C01C8010296C9D095952C
:1006300087959595879595958795959587959595A2
:100640008795EE0CFF1CEE0CFF1CEE0CFF1C5C01F2
:10065000AE28BF28C8010596B3D08F70782EA9F0B8
:100660008E010C5F1F4F812CCE01809590950396D3
:100670007C01E90CF11CC701800F911FA1D0F8018A
:1006800081938F0183948710F6CFF0E69F1621F0B7
:1006900080E7981649F00FC040E050E061E070E05C
:1006A0008CE290E0ACD007C040E050E062E070E047
:1006B0008CE290E0A4D0BA82A9827B828BE0FE011A
:1006C0003196D60101900D928A95E1F7C6012B96DD
:1006D0000FB6F894DEBF0FBECDBFDF91CF911F9153
:1006E0000F91FF90EF90DF90CF90BF90AF909F90D1
:1006F0008F907F9008950F931F93CF93DF93EC011A
:1007000075DF0A811B817C816D815E814F81388517
:10071000298588819981079789F48BE0FE01A4EAF5
:10072000B2E001900D928A95E1F70A831B837C83E6
:100730006D835E834F83388729870DC087E292E0FF
:100740000E94A40F87E08A838B831C821D821E82F5
:100750001F8218861986CE01DF91CF911F910F91CC
:1007600008958091A70290E008958091AB0290E0F7
:1007700008958091AD0290E00895A7CD089581E09D
:10078000B2DD21E030E08D32914010F020E030E029
:10079000C9010895ECD278940895CF93DF9300D0E7
:1007A000CDB7DEB79EE599831A828B8363E0CE01D5
:1007B0000196E7D20F900F900F90DF91CF9108959F
:1007C000CF93C82F289883E06ED28C2F6CD280E014
:1007D0006AD2289ACF910895CF93DF93D82FC62F4E
:1007E000289882E060D28D2F5ED28C2F5CD2289A1E
:1007F000DF91CF910895289856D2289A08951F9393
:10080000CF93DF93182FD62FC42F289885E04BD293
:10081000812F49D28D2F47D28C2F45D2289ADF9134
:10082000CF911F910895289880EC3DD2289A089581
:1008300033D2F9DF8EE090E0C3DF807E99278038E5
:10084000910539F080E392E00E94A40F81E090E0EE
:10085000089580E090E00895882311F08D9A08951E
:100860008D980895882311F08C9808958C9A089596
:10087000009711F48B9A0895019709F48B980895C5
:100880008F3F910521F018F08FEF87CF089585CF26
:100890000895CF93DF93EC01992324F480E090E056
:1008A000E7DF03C081E090E0E3DFCE01DD2324F445
:1008B000882799278C1B9D0BE3DFDF91CF9108954B
:1008C0008E988AE68A95F1F700C08E9A089562DFC5
:1008D00080B3886F80BB81B3886381BB8F9810928F
:1008E0000701EECF0895282F2A7A2695982F95751F
:1008F000990F922B292F2C7C26952695892F83736F
:10090000880F880F822B82950895CF93DF9381E023
:10091000A9DF80E0A1DF8AE68A95F1F700C0809127
:100920000601E1DFD82F81E097DF8AE68A95F1F7AB
:1009300000C080910601D7DFC82F80E093DF2D2F04
:1009400030E0922F88278C0F911DDF91CF91089571
:10095000EF92FF920F931F93CF93DF93B8DF81E461
:1009600090E08EDF80E090E083DF2FEF82E597E07C
:10097000215080409040E1F700C00000C6DF892B85
:1009800021F10F2EF5E7EF2EF2E0FF2EF02DBDDF67
:10099000EC012FEF81EE94E0215080409040E1F790
:1009A00000C00000B2DF8C01DF93CF931F930F9341
:1009B000FF92EF920E94930F0F900F900F900F9065
:1009C0000F900F90C017D10711F77ADF81E490E004
:1009D00057DF81E090E04CDF9FEF22E587E0915008
:1009E00020408040E1F700C000000F2EFCE8EF2E11
:1009F000F2E0FF2EF02D89DF8C019FEF21EE84E0E5
:100A0000915020408040E1F700C000007EDFEC0103
:100A1000DF93CF93FF92EF920E94930F0F900F906E
:100A20000F900F900C171D0731F71093A30200933E
:100A3000A20280E090E024DF81E490E021DF80E00A
:100A400090E016DF8FEF91EE24E08150904020403F
:100A5000E1F700C0000009C08FEF91EE24E0815063
:100A600090402040E1F700C000004FDF8539914100
:100A700098F7DF91CF911F910F91FF90EF9008951C
:100A80008F929F92AF92BF92CF92DF92EF92FF929E
:100A90004B015C0169017A0182E190E0B3D722E168
:100AA000FC0111922A95E9F7FC01C482D582E68205
:100AB000F78280829182A282B382FF90EF90DF90D2
:100AC000CF90BF90AF909F908F9008958F929F92FC
:100AD000AF92BF92CF92DF92EF92FF92CF93DF93CC
:100AE000EC015B014A0184E0FCD0BC0180E090E0B5
:100AF0000BD32091060230910702409108025091D9
:100B0000090290D320910A0230910B0240910C020D
:100B100050910D0260D26B017C0184E007D1B401D9
:100B20006A197B09882777FD8095982FEFD24B01B2
:100B30005C01A701960176D32E853F8548895989A6
:100B4000E6D16B017C016E877F87888B998B28812A
:100B500039814A815B81C501B40164D34B015C01D9
:100B60002C813D814E815F81C701B6015BD39B0122
:100B7000AC01C501B401CBD196D2CB01DF91CF91AD
:100B8000FF90EF90DF90CF90BF90AF909F908F90AD
:100B900008956B9A739AA0E9B0E01C92E1E9F0E045
:100BA0001082109292002C912E7F2C932C91226017
:100BB0002C932081286020832081206120832C9128
:100BC0002C932C9120682C932081236020832081FA
:100BD0002B7F2083909397008093960070939900C9
:100BE00060939800089590939900809398000895D9
:100BF0008D3022E0920724F08DE092E0F4CF08954A
:100C0000813E910524F481EE90E0EDCF0895EBCF85
:100C100008958F5F9109BC01992324F466277727F3
:100C2000681B790B882777FD8095982F6FD227E96D
:100C300036E946E95FE3F6D220E030E041E653E4EE
:100C400066D136D2CB01D4CF0895E1E0F1E08081C6
:100C500088608083E2E0F1E080818860808308958D
:100C6000E2E0F1E08081877F80832FEF82E597E0EB
:100C7000215080409040E1F700C0000080818860F2
:100C80008083089510920E02089581E080930E02F1
:100C9000089580910E02089584B1876084B92398E5
:100CA00081E58CBD08958EBD0DB407FEFDCF8EB5D8
:100CB00090E008951092A000E1EAF0E010828081B7
:100CC0008560808380818D7F808310922001E1E2A6
:100CD000F1E0108280818560808380818D7F8083B8
:100CE0000895813029F4209184003091850016C048
:100CF000833029F420919400309195000FC0843006
:100D000029F42091A4003091A50008C0853029F471
:100D1000209124013091250101C00895822F932F45
:100D2000089580912401909125010895813029F43E
:100D300010928500109284000895833029F4109257
:100D40009500109294000895843029F41092A50023
:100D50001092A4000895853021F41092250110927C
:100D600024010895109225011092240108958CE029
:100D70008093B8008FEF8093BB0084E08093BC0029
:100D80000895ECEBF0E0208120FDFDCF60939D0203
:100D9000FC01208120939E0220FD0CC0623050F0A7
:100DA000DC011196EFE9F2E081E09D9191938F5F74
:100DB0008613FBCF10929C0288EF80930F0285EA86
:100DC0008093BC0008951F920F920FB60F921124CA
:100DD0000BB60F922F933F938F939F93AF93BF9335
:100DE000EF93FF938091B90090E0FC013897E135D3
:100DF000F10508F055C0EE58FF4FFEC510929B025A
:100E0000E0919B0280919D02E81770F481E08E0FC3
:100E100080939B02F0E0E256FD4F80818093BB00FF
:100E200085E88093BC0043C080919C0281608093E0
:100E30009C0284E98093BC003AC0E0919B0281E06F
:100E40008E0F80939B028091BB00F0E0E256FD4F35
:100E5000808320919B0230E080919D0290E0019779
:100E60002817390724F485EC8093BC0020C085E85E
:100E70008093BC001CC08091BB00E0919B02F0E01D
:100E8000E256FD4F808380919C02816080939C029A
:100E900084E98093BC000BC085EA8093BC0007C046
:100EA0008091B90080930F0284E08093BC00FF9191
:100EB000EF91BF91AF919F918F913F912F910F90A3
:100EC0000BBE0F900FBE0F901F901895E0ECF0E056
:100ED000908195FFFDCF8093C6000895E0ECF0E08F
:100EE00080818823ECF78091C60008959093C50017
:100EF0008093C40088E18093C10086E88093C2009B
:100F00006EE677E086E697E092C708955058BB27D3
:100F1000AA270ED04DC13ED130F043D120F031F49C
:100F20009F3F11F41EF433C10EF4E095E7FB29C195
:100F3000E92F4FD180F3BA1762077307840795072B
:100F400018F071F49EF567C10EF4E0950B2EBA2FE0
:100F5000A02D0B01B90190010C01CA01A0011124BF
:100F6000FF27591B99F0593F50F4503E68F11A166B
:100F7000F040A22F232F342F4427585FF3CF4695FC
:100F800037952795A795F0405395C9F77EF41F161E
:100F9000BA0B620B730B840BBAF09150A1F0FF0FE8
:100FA000BB1F661F771F881FC2F70EC0BA0F621FD4
:100FB000731F841F48F4879577956795B795F795C4
:100FC0009E3F08F0B3CF9395880F08F09927EE0F56
:100FD0009795879508950CD0EBC0E3D040F0DAD018
:100FE00030F021F45F3F19F0CCC0511115C1CFC0D2
:100FF000F0D098F39923C9F35523B1F3951B550B02
:10100000BB27AA2762177307840738F09F5F5F4FDB
:10101000220F331F441FAA1FA9F333D00E2E3AF01C
:10102000E0E830D091505040E695001CCAF729D036
:10103000FE2F27D0660F771F881FBB1F2617370785
:101040004807AB07B0E809F0BB0B802DBF01FF27B5
:1010500093585F4F2AF09E3F510568F092C0DCC064
:101060005F3FECF3983EDCF3869577956795B795EF
:10107000F7959F5FC9F7880F911D9695879597F90A
:101080000895E1E0660F771F881FBB1F6217730783
:101090008407BA0720F0621B730B840BBA0BEE1F98
:1010A00088F7E095089504D06894B111B5C008950B
:1010B00098D088F09F5790F0B92F9927B751A0F09A
:1010C000D1F0660F771F881F991F1AF0BA95C9F7DC
:1010D00012C0B13081F09FD0B1E008959CC0672F5D
:1010E000782F8827B85F39F0B93FCCF3869577958C
:1010F0006795B395D9F73EF4909580957095619575
:101100007F4F8F4F9F4F0895E89409C097FB3EF49F
:1011100090958095709561957F4F8F4F9F4F992344
:10112000A9F0F92F96E9BB279395F69587957795C2
:101130006795B795F111F8CFFAF4BB0F11F460FF82
:101140001BC06F5F7F4F8F4F9F4F16C0882311F0DA
:1011500096E911C0772321F09EE8872F762F05C0EE
:10116000662371F096E8862F70E060E02AF09A9589
:10117000660F771F881FDAF7880F9695879597F97E
:10118000089597F99F6780E870E060E008959FEF09
:1011900080EC089500240A9416161706180609060E
:1011A000089500240A9412161306140605060895DD
:1011B000092E0394000C11F4882352F0BB0F40F465
:1011C000BF2B11F460FF04C06F5F7F4F8F4F9F4FA5
:1011D000089557FD9058440F551F59F05F3F71F027
:1011E0004795880F97FB991F61F09F3F79F087958E
:1011F0000895121613061406551FF2CF4695F1DF17
:1012000008C0161617061806991FF1CF86957105A6
:10121000610508940895E894BB2766277727CB01DA
:1012200097F908950BD0C4CFB5DF28F0BADF18F0D6
:10123000952309F0A6CFABCF1124EECFCADFA0F3E0
:10124000959FD1F3950F50E0551F629FF001729F5B
:10125000BB27F00DB11D639FAA27F00DB11DAA1F7A
:10126000649F6627B00DA11D661F829F2227B00DC7
:10127000A11D621F739FB00DA11D621F839FA00D52
:10128000611D221F749F3327A00D611D231F849FA2
:10129000600D211D822F762F6A2F11249F575040F9
:1012A0008AF0E1F088234AF0EE0FFF1FBB1F661F94
:1012B000771F881F91505040A9F79E3F510570F04D
:1012C00060CFAACF5F3FECF3983EDCF3869577952D
:1012D0006795B795F795E7959F5FC1F7FE2B880F48
:1012E000911D9695879597F908952F923F924F9269
:1012F0005F926F927F928F929F92AF92BF92CF92A6
:10130000DF92EF92FF920F931F93CF93DF93CDB7AE
:10131000DEB763970FB6F894DEBF0FBECDBF7C017A
:101320001B016A01FC0117821682838181FF49C378
:10133000BE016F5F7F4F4B01F7019381F10193FD78
:10134000859193FF81911F01882309F436C385326B
:1013500039F493FD859193FF81911F01853231F41A
:10136000B70190E0AED556016501E6CF10E0512CF3
:1013700020E02032A0F48B3269F030F4803259F052
:10138000833269F420612CC08D3239F0803339F416
:10139000216026C02260246023C0286021C027FD70
:1013A00027C030ED380F3A3078F426FF06C0FAE057
:1013B0001F9F300D1124132F13C06AE0569E300D6D
:1013C0001124532E20620CC08E3221F426FDF5C26A
:1013D000206406C08C3611F4206802C0883641F4BF
:1013E000F10193FD859193FF81911F018111C1CF7F
:1013F0009BEB980F933018F42061805E06C09BE948
:10140000980F933008F09AC12F7E26FF16E02F73B5
:10141000722E853621F4F22FF0647F2E08C08636B6
:1014200021F4622F6068762E02C01111115077FEF0
:1014300007C01C3348F444244394410E27E00BC0FA
:10144000183030F4212F06C027E04CE3442E03C0AF
:1014500027E017E0412C560174E0A70EB11CF601FD
:101460006081718182819381042DA401F2D36C018A
:10147000098100FF02C003FF06C071FC07C072FCB7
:1014800008C0612C08C03DE2632E05C02BE2622E2D
:1014900002C090E2692E802F8C7081F1662011F0DD
:1014A00084E001C083E0851510F0512C0AC0581A61
:1014B00073FC07C0B70180E290E003D55A94D1F7DE
:1014C000F4CF662021F0B701862D90E0FAD403FD19
:1014D00003C00AE811E002C006E811E0F72DF07140
:1014E0007F2EF8018491882309F45EC27110805226
:1014F000B70190E0E6D40F5F1F4FF3CF77FE0FC028
:101500004C0C04FF04C08A81813309F44A941414FA
:1015100074F5F8E0F41578F588E0482E2CC076FCD8
:101520002AC0812F90E08C159D059CF06CEFC616AB
:101530006FEFD60674F0772D7068772E0AC0E2E060
:10154000F0E0EC0FFD1FE10FF11D8081803319F4F5
:1015500011501111F4CF77FE0EC044244394410E74
:10156000812F90E0C816D9062CF41C1904C044241D
:10157000439401C010E077FE07C01C141D043CF426
:1015800096012F5F3F4F05C025E030E002C021E00B
:1015900030E0662011F02F5F3F4F112331F0412FD3
:1015A00050E04F5F5F4F240F351F452D50E024174B
:1015B000350714F4521A01C0512C872D897041F45B
:1015C000552031F0B70180E290E07BD45A94F8CFF7
:1015D000662021F0B701862D90E073D473FC08C01B
:1015E000552031F0B70180E390E06BD45A94F8CFE6
:1015F00077FE5DC09C2D8D2DD7FE02C090E080E06F
:10160000692E782E40E050E0C601841991099D872B
:101610008C87960126193709280D391D812F90E0F6
:10162000EE27FF27E81BF90BFF87EE87FFEF6F160A
:101630007F0661F4B7018EE290E02B8B3A8B488BEA
:10164000598B3FD4598948893A892B89C614D704C4
:1016500054F06C857D85661577052CF4F901E40F4F
:10166000F51F818101C080E371E0671A71084F5F47
:101670005F4FEE85FF856E167F0664F0B70190E040
:101680002B8B3A8B488B598B1CD42B893A894889F0
:101690005989CCCF6C147D0439F49A81963318F4AF
:1016A000953311F404FF81E3B70190E045C08A81CE
:1016B000813309F00F7EB70190E003D4111105C00A
:1016C00074FE16C085E490E015C0B7018EE290E08C
:1016D000F8D382E066246394680EF401E80FF11DEC
:1016E0008081B70190E0EDD3115051F3862DF2CFF8
:1016F00085E690E0B701E5D3D7FC05C0C114D1045D
:1017000039F404FF05C0D194C194D1088DE201C021
:101710008BE2B70190E0D5D380E36AE0C616D1042E
:101720002CF08F5FFAE0CF1AD108F7CFB70190E025
:10173000C8D3B701C601C096C4D336C1833631F0D1
:10174000833779F0833509F054C020C0560172E028
:10175000A70EB11CF6018081898301E010E06401CD
:1017600013C05601F2E0AF0EB11CF601C080D1806B
:1017700026FF03C0612F70E002C06FEF7FEFC6014C
:101780002B8B4AD38C012B892F7714C05601F2E0A2
:10179000AF0EB11CF601C080D18026FF03C0612FBF
:1017A00070E002C06FEF7FEFC6012B8B2AD38C0154
:1017B0002B892068722E23FD18C0852D90E0081714
:1017C000190798F4B70180E290E07BD35A94F5CFE3
:1017D000F60177FC859177FE81916F01B70190E06A
:1017E00070D351105A94015011090115110581F758
:1017F000DBC0843611F0893649F5560127FF09C050
:10180000F4E0AF0EB11CF601608171818281938199
:101810000AC0F2E0AF0EB11CF60160817181882729
:1018200077FD8095982F022F0F7697FF08C090952F
:101830008095709561957F4F8F4F9F4F00682AE08C
:1018400030E0A401AED3C82EC8183DC0022F8537A2
:1018500021F40F7E2AE030E01DC0097F8F3691F021
:1018600018F4883559F0A9C0803719F0883711F07D
:10187000A4C0006104FF09C0046007C024FF08C0C1
:10188000066006C028E030E005C020E130E002C07C
:1018900020E132E0560107FF09C0F4E0AF0EB11CB1
:1018A000F601608171818281938108C0F2E0AF0E00
:1018B000B11CF6016081718180E090E0A40171D3D8
:1018C000C82EC8180F7706FF0BC0202F2E7FC11619
:1018D00050F404FF0AC002FD08C0202F2E7E05C070
:1018E000DC2C202F03C0DC2C01C0D12E24FF0DC026
:1018F000FE01EC0DF11D8081803311F4297E09C0B9
:1019000022FF06C0D394D39404C0822F867809F0B6
:10191000D39423FD12C020FF06C01C2DD51418F44B
:10192000150D1D19D52CD51460F4B70180E290E097
:101930002B8BC7D2D3942B89F6CFD51410F45D1816
:1019400001C0512C24FF11C0B70180E390E02B8B24
:10195000B8D22B8922FF16C021FF03C088E590E092
:1019600002C088E790E0B7010CC0822F867851F062
:1019700021FD02C080E201C08BE227FD8DE2B701AC
:1019800090E09FD2C11630F4B70180E390E099D285
:101990001150F8CFCA94F401EC0DF11D8081B7010C
:1019A00090E08FD2C110F6CF552009F4DDCCB701FD
:1019B00080E290E086D25A94F7CFF7018681978132
:1019C00002C08FEF9FEF63960FB6F894DEBF0FBE95
:1019D000CDBFDF91CF911F910F91FF90EF90DF90DE
:1019E000CF90BF90AF909F908F907F906F905F90BF
:1019F0004F903F902F900895EE0FFF1F0590F491A8
:101A0000E02D1994CF93DF938230910510F482E09A
:101A100090E0E091B102F091B20220E030E0A0E06D
:101A2000B0E0309739F14081518148175907B8F03B
:101A30004817590771F482819381109729F0139602
:101A40009C938E9312972CC09093B2028093B10214
:101A500027C02115310531F04217530718F0A901AD
:101A6000DB0101C0EF019A01BD01DF010280F381BA
:101A7000E02DD7CF21153105F9F0281B390B243083
:101A8000310580F48A819B816115710521F0FB018C
:101A90009383828304C09093B2028093B102FE01CB
:101AA000329644C0FE01E20FF31F819391932250BE
:101AB0003109398328833AC02091AF023091B002B6
:101AC000232B41F420910202309103023093B002A3
:101AD0002093AF02209100023091010221153105BF
:101AE00041F42DB73EB74091040250910502241BEA
:101AF000350BE091AF02F091B002E217F307A0F4CA
:101B00002E1B3F0B2817390778F0AC014E5F5F4F53
:101B10002417350748F04E0F5F1F5093B0024093D3
:101B2000AF028193919302C0E0E0F0E0CF01DF913A
:101B3000CF910895CF93DF93009709F487C0FC01FC
:101B4000329713821282C091B102D091B2022097D3
:101B500081F420813181280F391F8091AF0290914B
:101B6000B0028217930779F5F093B002E093AF02C9
:101B70006DC0DE0120E030E0AE17BF0750F41296D2
:101B80004D915C9113979D014115510509F1DA01C1
:101B9000F3CFB383A28340815181840F951F8A17AD
:101BA0009B0771F48D919C911197840F951F02965C
:101BB0009183808312968D919C9113979383828356
:101BC0002115310529F4F093B202E093B1023EC031
:101BD000D9011396FC93EE9312974D915D91A40F4A
:101BE000B51FEA17FB0779F480819181840F951F57
:101BF0000296D90111969C938E93828193811396BC
:101C00009C938E931297E0E0F0E08A819B8100978D
:101C100019F0FE01EC01F9CFCE010296288139813D
:101C2000820F931F2091AF023091B002281739071D
:101C300069F4309729F41092B2021092B10202C0F6
:101C400013821282D093B002C093AF02DF91CF9182
:101C50000895283008F027E03327DA01990F311D65
:101C600087FD916000966105710539F432602E5F41
:101C70003D9330E32A95E1F708959F3F30F0803897
:101C80007105610509F03C5F3C5F3D93913008F0C0
:101C90008068911DDF93CF931F930F93FF92EF9274
:101CA000192F987F9695E92F96959695E90FFF271E
:101CB000E851FE4F99273327EE24FF24A701E701BF
:101CC00005900894079428F4360FE71EF81E491F64
:101CD000511D660F771F881F991F0694A1F7059065
:101CE000079428F4E70EF81E491F561FC11D770FF1
:101CF000881F991F661F0694A1F70590079428F482
:101D0000F80E491F561FC71FD11D880F991F661F48
:101D1000771F0694A1F70590079420F4490F561FEA
:101D2000C71FD81F990F661F771F881F0694A9F732
:101D300084911095177041F0D695C79557954795A2
:101D4000F794E7941A95C1F7EEE8F1E068941590DE
:101D5000159135916591959105907FE27395E11804
:101D6000F10A430B560BC90BD009C0F7E10CF11E69
:101D7000431F561FC91FD01D7EF4703311F48A957E
:101D8000E6CFE894015030F0080F0AF4002702175C
:101D900008F4202F2395022F7A3328F079E37D93DE
:101DA0002A95E9F710C07D932A9589F606949795B0
:101DB0006795379517951794E118F10A430B560B61
:101DC000C90BD00998F023957E9173957A3308F06A
:101DD00070E37C932013B8F77E9170617D9330F0AF
:101DE000839571E37D9370E32A95E1F71124EF90D9
:101DF000FF900F911F91CF91DF91992787FD9095CB
:101E00000895FC010590615070400110D8F780954D
:101E100090958E0F9F1F0895FC01615070400190B6
:101E20000110D8F7809590958E0F9F1F08950F93FE
:101E30001F93CF93DF93EC018B01009731F4611571
:101E4000710519F480E090E037C06EE070E081E049
:101E500090E005D1FC010097A9F380E88383011588
:101E6000110571F01387028781E883838091B302A3
:101E70009091B402892B21F4F093B402E093B30261
:101E80002097C9F0D187C087838182608383809146
:101E9000B5029091B602892B71F4F093B602E093EB
:101EA000B5028091B7029091B802892B21F4F0938A
:101EB000B802E093B702CF01DF91CF911F910F914C
:101EC00008950F931F93CF93DF93182F092FEB01E2
:101ED0008B8181FD03C08FEF9FEF20C082FF10C078
:101EE0004E815F812C813D81421753077CF4E8814C
:101EF000F9819F012F5F3F4F39832883108306C0EC
:101F0000E885F985812F1995892B29F72E813F8145
:101F10002F5F3F4F3F832E83812F902FDF91CF91F3
:101F20001F910F910895CF93DF93CDB7DEB7FE01D8
:101F3000369661917191AF018091B5029091B60290
:101F4000D4D9DF91CF9108950F931F93CF93DF934F
:101F5000E091B502F091B602238121FF1BC0EC0194
:101F600000E010E089916091B5027091B602DB014A
:101F70001896ED91FC911997882331F01995892BCA
:101F800089F30FEF1FEFEECF8AE01995892B11F43B
:101F9000C80102C08FEF9FEFDF91CF911F910F918A
:101FA0000895FA01AA27283051F1203181F1E894EF
:101FB0006F936E7F6E5F7F4F8F4F9F4FAF4FB1E03C
:101FC0003ED0B4E03CD0670F781F891F9A1FA11D37
:101FD000680F791F8A1F911DA11D6A0F711D811D38
:101FE000911DA11D20D009F468943F912AE0269FFD
:101FF00011243019305D3193DEF6CF010895462F5C
:102000004770405D4193B3E00FD0C9F7F6CF462F3C
:102010004F70405D4A3318F0495D31FD40524193A5
:1020200002D0A9F7EACFB4E0A69597958795779562
:102030006795BA95C9F700976105710508959B01E9
:10204000AC010A2E06945795479537952795BA9572
:10205000C9F7620F731F841F951FA01D08950F936A
:102060001F93CF93DF93869F8001879F100D969FCC
:10207000100D1124C801C6DCEC01009721F0A80165
:1020800060E070E006D0CE01DF91CF911F910F91FB
:102090000895DC0101C06D9341505040E0F7089570
:0420A000F894FFCFE2
:1020A4000000B9022000000080440024744B01F8B1
:1020B4004F75747075743A2025640A0073636F72E7
:1020C400653A2025750A0057524F4E47204944006F
:1020D4004552524F523A204D4350323531352069E2
:1020E40073204E4F5420696E20636F6E66696720BB
:1020F4006D6F6465206166746572207265736574C2
:102104002100536C696465723A202564095265663E
:102114003A20256400706F736974696F6E3A2025E4
:102124007509507265763A2025750A00706F7369D7
:0A21340074696F6E3A2025640A00FA
:00000001FF
