S012000041546D656761323536302E7372656316
S113000071C000008FC000008DC000008BC00000D4
S113001089C0000087C0000085C0000083C00000C4
S113002081C000007FC000007DC000007BC00000D4
S113003079C0000077C0000075C0000073C00000E4
S113004071C000006FC000006DC000006BC00000F4
S113005069C0000067C0000065C0000063C0000004
S113006061C000005FC000005DC000005BC0000014
S113007059C0000057C0000055C0000053C0000024
S113008051C000004FC000004DC000004BC0000034
S113009049C0000047C0000045C0000043C0000044
S11300A041C000003FC000003DC000003BC0000054
S11300B039C0000037C0000035C0000033C0000064
S11300C031C000002FC000002DC000002BC0000074
S11300D029C0000027C0000025C0000023C0000084
S11300E021C0000011241FBECFEFD1E2DEBFCDBF7F
S11300F000E00CBF12E0A0E0B2E0E6E2F1E100E0D3
S11301000BBF02C007900D92AE3EB107D9F723E0B2
S1130110AEEEB2E001C01D92A330B207E1F703D006
S11301200C9491086DCFCF93DF93CDB7DEB72B97A7
S11301300FB6F894DEBF0FBECDBF85B7806885BF0C
S113014087E690E0F8D180E090E008D034D16B9A53
S1130150CE010196B6D0F3D080D1FACFCF93DF93FE
S1130160EC0116D14FEF50E060E670E080E690E0DD
S1130170F6D04FEF50E060E670E080E790E0EFD01B
S1130180AE0160EE70E08FE090E0E9D02498DF915A
S1130190CF9108951C9BFECF8CE290E0D4D080FDDB
S11301A007C08CE290E0CFD081FF04C080E70895BF
S11301B080E608958FEF08957F928F929F92AF9279
S11301C0BF92CF92DF92EF92FF920F931F93CF9340
S11301D0DF93CDB7DEB72B970FB6F894DEBF0FBE13
S11301E0CDBF6C01D7DF982E082F10E0C80101960F
S11301F0AAD07C01C8010296A6D0959587959595BD
S11302008795959587959595879595958795EE0C02
S1130210FF1CEE0CFF1CEE0CFF1C5C01AE28BF287B
S1130220C801059690D08F70782EA9F08E010C5FCE
S11302301F4F812CCE018095909503967C01E90C8B
S1130240F11CC701800F911F7ED0F80181938F01AB
S113025083948710F6CFF0E69F1621F080E7981676
S113026049F00FC040E050E061E070E08CE290E0C3
S113027076D007C040E050E062E070E08CE290E0AD
S11302806ED0BA82A9827B828BE0FE013196D601C0
S113029001900D928A95E1F7C6012B960FB6F8945A
S11302A0DEBF0FBECDBFDF91CF911F910F91FF90A5
S11302B0EF90DF90CF90BF90AF909F908F907F9002
S11302C00895EF92FF920F931F93CF93DF93EC0166
S11302D073DFEA80FB800C811D817E816F815885EC
S11302E04985288139818091060290910702281757
S11302F0390789F48BE0FE01AEEEB2E001900D9275
S11303008A95E1F7EA82FB820C831D837E836F83E7
S1130310588749870CC088E092E0FAD287E08A8344
S11303208B831C821D821E821F8218861986CE0131
S1130330DF91CF911F910F91FF90EF9008958091DD
S1130340F10290E00895CF93C82F289883E0DCD081
S11303508C2FDAD080E0D8D0289ACF9108951F93BB
S1130360CF93DF93182FD62FC42F289885E0CCD0B5
S1130370812FCAD08D2FC8D08C2FC6D0289ADF9158
S1130380CF911F910895289880ECBED0289A0895A3
S1130390B4D0F9DF8EE090E0D6DF807E99278038F4
S11303A0910531F081E192E0B3D281E090E00895CB
S11303B080E090E00895CF93DF936B9A739AE0E91D
S11303C0F0E01082A1E9B0E01C92109292008081CA
S11303D08E7F80838081826080838C9188608C93FF
S11303E08C9180618C9380818083808180688083FC
S11303F08C9183608C938C918B7F8C9346E950E035
S113040088E893E1EA0199838883288139813695C4
S1130410279588E990E0EC01398328832881398184
S1130420EA01888199815C9140813F932F939F9346
S11304308F931F925F931F924F9383E492E09F9355
S11304408F9355D28DB79EB70A960FB6F8949EBF78
S11304500FBE8DBFDF91CF910895CF92DF92EF92BF
S1130460FF92CF93DF93EC018F3F910599F090F0C9
S1130470DF93CF9383E892E09F938F9338D287E7FB
S113048091E090939900809398000F900F900F90B3
S11304900F902CC0BC01882777FD8095982FEED053
S11304A027E936E946E95FE375D120E030E041E62B
S11304B053E452D0B5D06B017C0181E08F938CE280
S11304C08F93DF92CF92DF93CF938BEB92E09F9346
S11304D08F930DD2D0929900C09298008DB79EB799
S11304E008960FB6F8949EBF0FBE8DBFDF91CF91D3
S11304F0FF90EF90DF90CF90089584B1876084B926
S1130500239881E58CBD08958EBD0DB407FEFDCF03
S11305108EB590E00895E0ECF0E0908195FFFDCF7A
S11305208093C6000895E0ECF0E080818823ECF726
S11305308091C60008959093C5008093C40088E11B
S11305408093C10086E88093C20063E972E08BE87F
S113055092E083C108955058BB27AA270ED0E0C06B
S1130560D1D030F0D6D020F031F49F3F11F41EF4F6
S1130570C6C00EF4E095E7FBBCC0E92FE2D080F3DF
S1130580BA17620773078407950718F071F49EF58C
S1130590FAC00EF4E0950B2EBA2FA02D0B01B90171
S11305A090010C01CA01A0011124FF27591B99F0E5
S11305B0593F50F4503E68F11A16F040A22F232FF1
S11305C0342F4427585FF3CF469537952795A79541
S11305D0F0405395C9F77EF41F16BA0B620B730BE8
S11305E0840BBAF09150A1F0FF0FBB1F661F771F59
S11305F0881FC2F70EC0BA0F621F731F841F48F40E
S1130600879577956795B795F7959E3F08F0B3CF93
S11306109395880F08F09927EE0F9795879508957D
S113062098D088F09F5790F0B92F9927B751A0F030
S1130630D1F0660F771F881F991F1AF0BA95C9F772
S113064012C0B13081F09FD0B1E008959CC0672FF3
S1130650782F8827B85F39F0B93FCCF38695779522
S11306606795B395D9F73EF490958095709561950B
S11306707F4F8F4F9F4F0895E89409C097FB3EF436
S113068090958095709561957F4F8F4F9F4F9923DB
S1130690A9F0F92F96E9BB279395F6958795779559
S11306A06795B795F111F8CFFAF4BB0F11F460FF19
S11306B01BC06F5F7F4F8F4F9F4F16C0882311F071
S11306C096E911C0772321F09EE8872F762F05C085
S11306D0662371F096E8862F70E060E02AF09A9520
S11306E0660F771F881FDAF7880F9695879597F915
S11306F0089597F99F6780E870E060E008959FEFA0
S113070080EC089500240A941616170618060906A4
S1130710089500240A941216130614060506089573
S1130720092E0394000C11F4882352F0BB0F40F4FB
S1130730BF2B11F460FF04C06F5F7F4F8F4F9F4F3B
S1130740089557FD9058440F551F59F05F3F71F0BD
S11307504795880F97FB991F61F09F3F79F0879524
S11307600895121613061406551FF2CF4695F1DFAD
S113077008C0161617061806991FF1CF869571053D
S1130780610508940895E894BB2766277727CB0171
S113079097F908950BD0C4CFB5DF28F0BADF18F06D
S11307A0952309F0A6CFABCF1124EECFCADFA0F377
S11307B0959FD1F3950F50E0551F629FF001729FF2
S11307C0BB27F00DB11D639FAA27F00DB11DAA1F11
S11307D0649F6627B00DA11D661F829F2227B00D5E
S11307E0A11D621F739FB00DA11D621F839FA00DE9
S11307F0611D221F749F3327A00D611D231F849F39
S1130800600D211D822F762F6A2F11249F5750408F
S11308108AF0E1F088234AF0EE0FFF1FBB1F661F2A
S1130820771F881F91505040A9F79E3F510570F0E3
S113083060CFAACF5F3FECF3983EDCF386957795C3
S11308406795B795F795E7959F5FC1F7FE2B880FDE
S1130850911D9695879597F908950F931F93CF93BC
S1130860DF93EC018B01009731F46115710519F4E4
S113087080E090E037C06EE070E081E090E063D209
S1130880FC010097A9F380E883830115110571F039
S11308901387028781E883838091F9029091FA0299
S11308A0892B21F4F093FA02E093F9022097C9F01E
S11308B0D187C0878381826083838091FB0290917A
S11308C0FC02892B71F4F093FC02E093FB0280910B
S11308D0FD029091FE02892B21F4F093FE02E09335
S11308E0FD02CF01DF91CF911F910F910895CF9316
S11308F0DF93CDB7DEB7FE01369661917191AF01FA
S11309008091FB029091FC0230D0DF91CF91089549
S11309100F931F93CF93DF93E091FB02F091FC02BE
S1130920238121FF1BC0EC0100E010E0899160915C
S1130930FB027091FC02DB011896ED91FC91199772
S1130940882331F01995892B89F30FEF1FEFEECF30
S11309508AE01995892B11F4C80102C08FEF9FEF2B
S1130960DF91CF911F910F9108952F923F924F9253
S11309705F926F927F928F929F92AF92BF92CF922B
S1130980DF92EF92FF920F931F93CF93DF93CDB734
S1130990DEB72C970FB6F894DEBF0FBECDBF7C0137
S11309A06B018A01FC0117821682838181FFB0C129
S11309B0CE0101964C01F7019381F60193FD8591D7
S11309C093FF81916F01882309F49EC1853239F424
S11309D093FD859193FF81916F01853221F4B701D5
S11309E090E00FD3E8CF512C312C20E02032A0F43A
S11309F08B3269F030F4803259F0833269F420612B
S1130A002CC08D3239F0803339F4216026C0226045
S1130A10246023C0286021C027FD27C030ED380F93
S1130A203A3078F426FF06C0FAE05F9E300D1124B8
S1130A30532E13C08AE0389E300D1124332E2062C9
S1130A400CC08E3221F426FD5FC1206406C08C36B2
S1130A5011F4206802C0883641F4F60193FD8591B3
S1130A6093FF81916F018111C1CF982F9F7D955480
S1130A70933028F40C5F1F4FFFE3F9830DC08336D6
S1130A8031F0833771F0833509F057C021C0F80184
S1130A90808189830E5F1F4F44244394512C540159
S1130AA014C03801F2E06F0E711CF801A080B1800F
S1130AB026FF03C0652D70E002C06FEF7FEFC50114
S1130AC02C8794D22C0183012C852F77222E16C0DB
S1130AD03801F2E06F0E711CF801A080B18026FF8E
S1130AE003C0652D70E002C06FEF7FEFC5012C8756
S1130AF06BD22C012C852068222E830123FC19C083
S1130B00832D90E048165906A0F4B70180E290E0E6
S1130B1078D23A94F5CFF50127FC859127FE81918F
S1130B205F01B70190E06DD231103A94F1E04F1AB1
S1130B3051084114510479F7DEC0843611F0893626
S1130B4031F5F80127FF07C06081718182819381AB
S1130B500C5F1F4F08C060817181882777FD8095E5
S1130B60982F0E5F1F4F2F76B22E97FF09C09095D6
S1130B708095709561957F4F8F4F9F4F2068B22E5F
S1130B802AE030E0A4016FD2A82EA81843C085370C
S1130B9029F42F7EB22E2AE030E025C0F22FF97F0F
S1130BA0BF2E8F36C1F018F4883579F0ADC0803788
S1130BB019F0883721F0A8C02F2F2061B22EB4FE7F
S1130BC00DC08B2D8460B82E09C024FF0AC09F2F4E
S1130BD09660B92E06C028E030E005C020E130E080
S1130BE002C020E132E0F801B7FE07C060817181E4
S1130BF0828193810C5F1F4F06C06081718180E008
S1130C0090E00E5F1F4FA4012ED2A82EA818FB2D32
S1130C10FF77BF2EB6FE0BC02B2D2E7FA51450F4EC
S1130C20B4FE0AC0B2FC08C02B2D2E7E05C07A2C5F
S1130C302B2D03C07A2C01C0752C24FF0DC0FE019E
S1130C40EA0DF11D8081803311F4297E09C022FF51
S1130C5006C07394739404C0822F867809F0739449
S1130C6023FD12C020FF06C05A2C731418F4530C31
S1130C705718732C731460F4B70180E290E02C874A
S1130C80C0D173942C85F6CF731410F4371801C0B7
S1130C90312C24FF11C0B70180E390E02C87B1D13F
S1130CA02C8522FF16C021FF03C088E590E002C016
S1130CB088E790E0B7010CC0822F867851F021FDBF
S1130CC002C080E201C08BE227FD8DE2B70190E013
S1130CD098D1A51430F4B70180E390E092D15A94EE
S1130CE0F8CFAA94F401EA0DF11D8081B70190E0D8
S1130CF088D1A110F6CF332009F45DCEB70180E28C
S1130D0090E07FD13A94F7CFF7018681978102C0B2
S1130D108FEF9FEF2C960FB6F894DEBF0FBECDBFBA
S1130D20DF91CF911F910F91FF90EF90DF90CF90C3
S1130D30BF90AF909F908F907F906F905F904F90F7
S1130D403F902F9008950F931F93CF93DF93869F27
S1130D508001879F100D969F100D1124C8010DD09E
S1130D60EC01009721F0A80160E070E038D1CE01D9
S1130D70DF91CF911F910F910895CF93DF9382302C
S1130D80910510F482E090E0E0910103F0910203F8
S1130D9020E030E0A0E0B0E0309739F140815181AB
S1130DA048175907B8F04817590771F4828193819D
S1130DB0109729F013969C938E9312972CC09093BE
S1130DC002038093010327C02115310531F0421736
S1130DD0530718F0A901DB0101C0EF019A01BD011D
S1130DE0DF010280F381E02DD7CF21153105F9F021
S1130DF0281B390B2430310580F48A819B816115CD
S1130E00710521F0FB019383828304C09093020354
S1130E1080930103FE01329644C0FE01E20FF31FEA
S1130E208193919322503109398328833AC02091C8
S1130E30FF0230910003232B41F4209102023091F0
S1130E400302309300032093FF02209100023091AB
S1130E5001022115310541F42DB73EB7409104023A
S1130E6050910502241B350BE091FF02F091000321
S1130E70E217F307A0F42E1B3F0B2817390778F06D
S1130E80AC014E5F5F4F2417350748F04E0F5F1FCC
S1130E90509300034093FF028193919302C0E0E0DA
S1130EA0F0E0CF01DF91CF910895CF93DF930097C6
S1130EB009F487C0FC01329713821282C0910103A6
S1130EC0D0910203209781F420813181280F391FAA
S1130ED08091FF02909100038217930779F5F093B4
S1130EE00003E093FF026DC0DE0120E030E0AE17A6
S1130EF0BF0750F412964D915C9113979D014115D3
S1130F00510509F1DA01F3CFB383A2834081518102
S1130F10840F951F8A179B0771F48D919C911197EB
S1130F20840F951F02969183808312968D919C91D4
S1130F301397938382832115310529F4F0930203D7
S1130F40E09301033EC0D9011396FC93EE931297EC
S1130F504D915D91A40FB51FEA17FB0779F48081C9
S1130F609181840F951F0296D90111969C938E93BB
S1130F708281938113969C938E931297E0E0F0E024
S1130F808A819B81009719F0FE01EC01F9CFCE0113
S1130F90029628813981820F931F2091FF0230919C
S1130FA000032817390769F4309729F410920203D3
S1130FB01092010302C013821282D0930003C093E3
S1130FC0FF02DF91CF910895FC01059061507040BC
S1130FD00110D8F7809590958E0F9F1F0895DC011E
S1130FE001C06D9341505040E0F70895FC016150F9
S1130FF0704001900110D8F7809590958E0F9F1F37
S113100008950F931F93CF93DF93182F092FEB01AC
S11310108B8181FD03C08FEF9FEF20C082FF10C042
S11310204E815F812C813D81421753077CF4E88116
S1131030F9819F012F5F3F4F39832883108306C0B6
S1131040E885F985812F1995892B29F72E813F8110
S11310502F5F3F4F3F832E83812F902FDF91CF91BE
S11310601F910F910895FA01AA27283051F12031D8
S113107081F1E8946F936E7F6E5F7F4F8F4F9F4F28
S1131080AF4FB1E03ED0B4E03CD0670F781F891F6A
S11310909A1FA11D680F791F8A1F911DA11D6A0F38
S11310A0711D811D911DA11D20D009F468943F91EB
S11310B02AE0269F11243019305D3193DEF6CF01EA
S11310C00895462F4770405D4193B3E00FD0C9F7B0
S11310D0F6CF462F4F70405D4A3318F0495D31FD1D
S11310E04052419302D0A9F7EACFB4E0A695979570
S11310F0879577956795BA95C9F700976105710546
S113110008959B01AC010A2E06945795479537958F
S11311102795BA95C9F7620F731F841F951FA01DE9
S10911200895F894FFCFCE
S1131126000003032000070057524F4E472049444E
S1131136004552524F523A204D43503235313520F4
S11311466973204E4F5420696E20636F6E6669671B
S1131156206D6F64652061667465722072657365BF
S113116674210050574D20696E697420646F6E6552
S11311763A0A0954434352413A20253032580A095F
S113118654434352423A20253032580A09494352BD
S11311963A20253032580A094F43523A2025303234
S11311A6580A004552524F523A2070776D5F6A6F63
S11311B679737469636B5F70756C736520696E709F
S11311C675742076616C203D202564206F7574202B
S11311D66F662072616E6765210A000A50756C732A
S11311E66520636F6E7665727465642066726F6DD2
S11311F620256420746F2025640920505F524553CE
S11112064F4C5554494F4E203D2025640A009C
S9030000FC
