S012000041546D656761323536302E7372656316
S1130000C2C00000E0C00000DEC00000DCC0000090
S1130010DAC00000D8C00000D6C00000D4C0000080
S1130020D2C00000D0C00000CEC00000CCC0000090
S1130030CAC00000C8C00000C6C00000C4C00000A0
S1130040C2C00000C0C00000BEC00000BCC00000B0
S1130050BAC00000B8C00000B6C00000B4C00000C0
S1130060B2C00000B0C00000AEC00000ACC00000D0
S1130070AAC00000A8C00000A6C00000A4C00000E0
S1130080A2C00000A0C000009EC000009CC00000F0
S11300909AC0000098C0000096C00000E6C30000AB
S11300A092C0000090C000008EC000008CC0000010
S11300B08AC0000088C0000086C0000084C0000020
S11300C082C0000080C000007EC000007CC0000030
S11300D07AC0000078C0000076C0000074C0000040
S11300E072C000005004A204A204A204A204A20448
S11300F0A204A2045004A204A204A204A204A2041E
S1130100A204A2045204A204A204A204A204A2040B
S1130110A204A204A204A204A204A204A204A204AB
S1130120A204A2045204A204A204A204A204A204EB
S1130130A204A204A204A204A204A204A204A2048B
S1130140A204A2049E04A204A204A204A204A2047F
S1130150A204A2047B04A204A204A204A204A20492
S1130160A204A204A204A204A204A204A204A2045B
S1130170A204A2046F04A204A204A204A204A2047E
S1130180A204A2048D0411241FBECFEFD1E2DEBF6E
S1130190CDBF00E00CBF12E0A0E0B2E0ECE8F5E176
S11301A000E00BBF02C007900D92AA3AB107D9F73D
S11301B022E0AAEAB2E001C01D92A63CB207E1F730
S11301C024D00C94C40A1CCFEAE7F0E0808187684D
S11301D08083ECE7F0E080818064808380818068A4
S11301E080830895ECE7F0E090818370982B9083EE
S11301F0EAE7F0E0808180648083808186FDFDCF22
S113020080917800909179000895CF93DF93CDB7D2
S1130210DEB72B970FB6F894DEBF0FBECDBF85B700
S1130220806885BF87E690E0B3D380E090E038D063
S113023034D2CADF6B9AD4D2AED2BAD10F2EF9E03F
S1130240EF2EF2E0FF2EF02DE2D1CE010196DBD0AD
S113025018D18F5791098C01992324F40027112771
S1130260081B190B000F111FC80192D10AD1813844
S1130270910524F080E090E083D103C081E090E018
S11302807FD1FFD01F930F939F938F93FF92EF9291
S113029061D50F900F900F900F900F900F90D4CFC7
S11302A0CF93DF93EC013BD14FEF50E060E670E079
S11302B080E690E01BD14FEF50E060E670E080E70D
S11302C090E014D1AE0160EE70E08FE090E00ED1CA
S11302D06998DF91CF910895619BFECF8CE290E005
S11302E0F9D080FD07C08CE290E0F4D081FF04C017
S11302F080E7089580E608958FEF08957F928F92A6
S11303009F92AF92BF92CF92DF92EF92FF920F93A0
S11303101F93CF93DF93CDB7DEB72B970FB6F89427
S1130320DEBF0FBECDBF6C01D7DF982E082F10E0C3
S1130330C8010196CFD07C01C8010296CBD0959517
S11303408795959587959595879595958795959591
S11303508795EE0CFF1CEE0CFF1CEE0CFF1C5C01E1
S1130360AE28BF28C8010596B5D08F70782EA9F0A5
S11303708E010C5F1F4F812CCE01809590950396C2
S11303807C01E90CF11CC701800F911FA3D0F80177
S113039081938F0183948710F6CFF0E69F1621F0A6
S11303A080E7981649F00FC040E050E061E070E04B
S11303B08CE290E09BD007C040E050E062E070E047
S11303C08CE290E093D0BA82A9827B828BE0FE011A
S11303D03196D60101900D928A95E1F7C6012B96CC
S11303E00FB6F894DEBF0FBECDBFDF91CF911F9142
S11303F00F91FF90EF90DF90CF90BF90AF909F90C0
S11304008F907F900895EF92FF920F931F93CF9355
S1130410DF93EC0173DFEA80FB800C811D817E8118
S11304206F81588549852881398180910602909190
S113043007022817390789F48BE0FE01A1EBB2E02B
S113044001900D928A95E1F7EA82FB820C831D8369
S11304507E836F83588749870CC08AE192E08BD4EE
S113046087E08A838B831C821D821E821F821886EA
S11304701986CE01DF91CF911F910F91FF90EF90DC
S113048008958091B40290E008958091BA0290E0BA
S1130490089581E0A7DE21E030E08D32914010F034
S11304A020E030E0C9010895B4D178940895CF9341
S11304B0DF9300D0CDB7DEB79EE599831A828B8394
S11304C063E0CE010196AFD10F900F900F90DF91B2
S11304D0CF910895CF93C82F289883E07AD18C2F99
S11304E078D180E076D1289ACF9108951F93CF9345
S11304F0DF93182FD62FC42F289885E06AD1812F37
S113050068D18D2F66D18C2F64D1289ADF91CF9139
S11305101F910895289880EC5CD1289A089552D1AF
S1130520F9DF8EE090E0D6DF807E99278038910550
S113053031F083E292E01FD481E090E0089580E0FE
S113054090E00895282F2A7A2695982F9575990F6B
S1130550922B292F2C7C26952695892F8373880F1F
S1130560880F822B82950895882311F08D9A08951F
S11305708D980895882311F08C9808958C9A089585
S1130580009711F48B9A0895019709F48B980895B4
S11305908F3F910521F018F08FEF89CF089587CF11
S11305A008958E988AE68A95F1F700C08E9A089588
S11305B07BDF80B3886F80BB81B3886381BB8F98F6
S11305C010920701EECF0895CF93DF9381E0D2DF3D
S11305D080E0CADF8AE68A95F1F700C080910601BF
S11305E0B1DFD82F81E0C0DF8AE68A95F1F700C039
S11305F080910601A7DFC82F80E0BCDF2D2F30E0FB
S1130600922F88278C0F911DDF91CF910895CF935E
S1130610DF93CDB7DEB72B970FB6F894DEBF0FBECE
S1130620CDBF3BD0B8D0C4DF05E512E0CE010196C2
S1130630EADE27DF8F5791099C01992324F42227AE
S11306403327281B390BC901880F991FA1DF19DF34
S11306508138910524F080E090E092DF03C081E0CE
S113066090E08EDF12DF892B11F0A0D001C0A4D05E
S113067008DF85D00EDF7C01A7DF9F938F93C7012E
S113068099279F938F931F930F9364D30F900F9089
S11306900F900F900F900F90C9CF6B9A739AA0E9A7
S11306A0B0E01C92E1E9F0E01082109292008C918B
S11306B08E7F8C938C9182608C9380818860808300
S11306C08081806180838C918C938C9180688C93E1
S11306D080818360808380818B7F808388E893E13D
S11306E0909397008093960087E791E09093990008
S11306F08093980008958D3022E092073CF08DE0BD
S113070092E090939900809398000895813E91051A
S11307103CF481EE90E090939900809398000895C2
S1130720909399008093980008958F3F910599F0D4
S113073090F09F938F9382E792E09F938F930AD3D5
S113074087E791E090939900809398000F900F9021
S11307500F900F900895BC01882777FD8095982FFE
S1130760BAD127E936E946E95FE341D220E030E037
S113077041E653E41ED181D1CB01BDCF08959C0144
S11307802F5F3109C901992324F488279927821BF3
S1130790930BCBCF0895E1E0F1E080818860808302
S11307A0E2E0F1E08081886080830895E2E0F1E096
S11307B08081877F80830895E2E0F1E08081886012
S11307C08083089584B1876084B9239881E58CBDC2
S11307D008958EBD0DB407FEFDCF8EB590E008954B
S11307E0A0EAB0E01C92E1EAF0E01082808185602A
S11307F0808380818D7F80838C918E7F8C938C917C
S11308008D7F8C9380818860808380818F7E8083BC
S113081008958CE08093B8008FEF8093BB0084E050
S11308208093BC000895ECEBF0E0208120FDFDCF27
S11308306093AC02FC0120812093AD0220FD0CC02A
S1130840623050F0DC011196EEEAF2E081E09D9115
S113085091938F5F8613FBCF1092AB0288EF809346
S1130860080285EA8093BC0008951F920F920FB688
S11308700F9211240BB60F922F933F938F939F9354
S1130880AF93BF93EF93FF938091B90090E0FC0185
S11308903897E135F10508F055C0EE58FF4F0AC20C
S11308A01092AA02E091AA028091AC02E81770F4B7
S11308B081E08E0F8093AA02F0E0E355FD4F808122
S11308C08093BB0085E88093BC0043C08091AB0259
S11308D081608093AB0284E98093BC003AC0E091CC
S11308E0AA0281E08E0F8093AA028091BB00F0E0FF
S11308F0E355FD4F80832091AA0230E08091AC0241
S113090090E001972817390724F485EC8093BC0004
S113091020C085E88093BC001CC08091BB00E0919E
S1130920AA02F0E0E355FD4F80838091AB02816021
S11309308093AB0284E98093BC000BC085EA80936A
S1130940BC0007C08091B9008093080284E08093C2
S1130950BC00FF91EF91BF91AF919F918F913F9117
S11309602F910F900BBE0F900FBE0F901F901895F4
S1130970E0ECF0E0908195FFFDCF8093C6000895F0
S1130980E0ECF0E080818823ECF78091C6000895C4
S11309909093C5008093C40088E18093C10086E8E9
S11309A08093C20060EC74E088EB94E089C1089500
S11309B05058BB27AA270ED0E0C0D1D030F0D6D0F3
S11309C020F031F49F3F11F41EF4C6C00EF4E095FC
S11309D0E7FBBCC0E92FE2D080F3BA1762077307C4
S11309E08407950718F071F49EF5FAC00EF4E095AB
S11309F00B2EBA2FA02D0B01B90190010C01CA01D5
S1130A00A0011124FF27591B99F0593F50F4503E7F
S1130A1068F11A16F040A22F232F342F4427585F71
S1130A20F3CF469537952795A795F0405395C9F789
S1130A307EF41F16BA0B620B730B840BBAF0915041
S1130A40A1F0FF0FBB1F661F771F881FC2F70EC0E0
S1130A50BA0F621F731F841F48F4879577956795B3
S1130A60B795F7959E3F08F0B3CF9395880F08F09C
S1130A709927EE0F97958795089598D088F09F57FA
S1130A8090F0B92F9927B751A0F0D1F0660F771FD6
S1130A90881F991F1AF0BA95C9F712C0B13081F0B6
S1130AA09FD0B1E008959CC0672F782F8827B85F46
S1130AB039F0B93FCCF3869577956795B395D9F717
S1130AC03EF490958095709561957F4F8F4F9F4F21
S1130AD00895E89409C097FB3EF49095809570952D
S1130AE061957F4F8F4F9F4F9923A9F0F92F96E976
S1130AF0BB279395F695879577956795B795F111EB
S1130B00F8CFFAF4BB0F11F460FF1BC06F5F7F4F87
S1130B108F4F9F4F16C0882311F096E911C0772399
S1130B2021F09EE8872F762F05C0662371F096E8A2
S1130B30862F70E060E02AF09A95660F771F881F71
S1130B40DAF7880F9695879597F9089597F99F672F
S1130B5080E870E060E008959FEF80EC0895002441
S1130B600A941616170618060906089500240A940E
S1130B7012161306140605060895092E0394000C94
S1130B8011F4882352F0BB0F40F4BF2B11F460FF23
S1130B9004C06F5F7F4F8F4F9F4F089557FD90584C
S1130BA0440F551F59F05F3F71F04795880F97FB2D
S1130BB0991F61F09F3F79F08795089512161306E7
S1130BC01406551FF2CF4695F1DF08C01616170616
S1130BD01806991FF1CF869571056105089408954B
S1130BE0E894BB2766277727CB0197F908950BD0A4
S1130BF0C4CFB5DF28F0BADF18F0952309F0A6CFEB
S1130C00ABCF1124EECFCADFA0F3959FD1F3950F9C
S1130C1050E0551F629FF001729FBB27F00DB11D7C
S1130C20639FAA27F00DB11DAA1F649F6627B00D0C
S1130C30A11D661F829F2227B00DA11D621F739FF5
S1130C40B00DA11D621F839FA00D611D221F749F03
S1130C503327A00D611D231F849F600D211D822F4A
S1130C60762F6A2F11249F5750408AF0E1F0882391
S1130C704AF0EE0FFF1FBB1F661F771F881F91509E
S1130C805040A9F79E3F510570F060CFAACF5F3F57
S1130C90ECF3983EDCF3869577956795B795F795D1
S1130CA0E7959F5FC1F7FE2B880F911D9695879559
S1130CB097F90895EE0FFF1F0590F491E02D199414
S1130CC00F931F93CF93DF93EC018B01009731F4C3
S1130CD06115710519F480E090E037C06EE070E0B2
S1130CE081E090E063D2FC010097A9F380E883835C
S1130CF00115110571F01387028781E883838091C0
S1130D00BC029091BD02892B21F4F093BD02E093C3
S1130D10BC022097C9F0D187C08783818260838316
S1130D208091BE029091BF02892B71F4F093BF02AF
S1130D30E093BE028091C0029091C102892B21F4FC
S1130D40F093C102E093C002CF01DF91CF911F91D4
S1130D500F910895CF93DF93CDB7DEB7FE0136969A
S1130D6061917191AF018091BE029091BF0230D028
S1130D70DF91CF9108950F931F93CF93DF93E09169
S1130D80BE02F091BF02238121FF1BC0EC0100E0F1
S1130D9010E089916091BE027091BF02DB01189648
S1130DA0ED91FC911997882331F01995892B89F3DA
S1130DB00FEF1FEFEECF8AE01995892B11F4C801CC
S1130DC002C08FEF9FEFDF91CF911F910F91089594
S1130DD02F923F924F925F926F927F928F929F9247
S1130DE0AF92BF92CF92DF92EF92FF920F931F9335
S1130DF0CF93DF93CDB7DEB72C970FB6F894DEBF51
S1130E000FBECDBF7C016B018A01FC0117821682E3
S1130E10838181FFB0C1CE0101964C01F70193811A
S1130E20F60193FD859193FF81916F01882309F465
S1130E309EC1853239F493FD859193FF81916F01B1
S1130E40853221F4B70190E00FD3E8CF512C312C37
S1130E5020E02032A0F48B3269F030F4803259F073
S1130E60833269F420612CC08D3239F0803339F437
S1130E70216026C02260246023C0286021C027FD91
S1130E8027C030ED380F3A3078F426FF06C0FAE078
S1130E905F9E300D1124532E13C08AE0389E300D0E
S1130EA01124332E20620CC08E3221F426FD5FC142
S1130EB0206406C08C3611F4206802C0883641F4E0
S1130EC0F60193FD859193FF81916F018111C1CF4B
S1130ED0982F9F7D9554933028F40C5F1F4FFFE3A8
S1130EE0F9830DC0833631F0833771F0833509F00F
S1130EF057C021C0F801808189830E5F1F4F4424AD
S1130F004394512C540114C03801F2E06F0E711C4B
S1130F10F801A080B18026FF03C0652D70E002C0F7
S1130F206FEF7FEFC5012C8794D22C0183012C85B0
S1130F302F77222E16C03801F2E06F0E711CF801D3
S1130F40A080B18026FF03C0652D70E002C06FEF62
S1130F507FEFC5012C876BD22C012C852068222EB3
S1130F60830123FC19C0832D90E048165906A0F490
S1130F70B70180E290E078D23A94F5CFF50127FCEE
S1130F80859127FE81915F01B70190E06DD2311008
S1130F903A94F1E04F1A51084114510479F7DEC034
S1130FA0843611F0893631F5F80127FF07C06081D6
S1130FB07181828193810C5F1F4F08C060817181B0
S1130FC0882777FD8095982F0E5F1F4F2F76B22EBE
S1130FD097FF09C090958095709561957F4F8F4FCD
S1130FE09F4F2068B22E2AE030E0A4016FD2A82ED1
S1130FF0A81843C0853729F42F7EB22E2AE030E0AA
S113100025C0F22FF97FBF2E8F36C1F018F4883532
S113101079F0ADC0803719F0883721F0A8C02F2FA0
S11310202061B22EB4FE0DC08B2D8460B82E09C091
S113103024FF0AC09F2F9660B92E06C028E030E036
S113104005C020E130E002C020E132E0F801B7FE43
S113105007C060817181828193810C5F1F4F06C03C
S11310606081718180E090E00E5F1F4FA4012ED259
S1131070A82EA818FB2DFF77BF2EB6FE0BC02B2D74
S11310802E7FA51450F4B4FE0AC0B2FC08C02B2D68
S11310902E7E05C07A2C2B2D03C07A2C01C0752C12
S11310A024FF0DC0FE01EA0DF11D8081803311F48F
S11310B0297E09C022FF06C07394739404C0822F52
S11310C0867809F0739423FD12C020FF06C05A2CC1
S11310D0731418F4530C5718732C731460F4B70179
S11310E080E290E02C87C0D173942C85F6CF7314E2
S11310F010F4371801C0312C24FF11C0B70180E36C
S113110090E02C87B1D12C8522FF16C021FF03C0AB
S113111088E590E002C088E790E0B7010CC0822F18
S1131120867851F021FD02C080E201C08BE227FDE8
S11311308DE2B70190E098D1A51430F4B70180E3B3
S113114090E092D15A94F8CFAA94F401EA0DF11DDB
S11311508081B70190E088D1A110F6CF332009F443
S11311605DCEB70180E290E07FD13A94F7CFF701EA
S11311708681978102C08FEF9FEF2C960FB6F8946B
S1131180DEBF0FBECDBFDF91CF911F910F91FF90B6
S1131190EF90DF90CF90BF90AF909F908F907F9013
S11311A06F905F904F903F902F9008950F931F93EF
S11311B0CF93DF93869F8001879F100D969F100D1C
S11311C01124C8010DD0EC01009721F0A80160E0C2
S11311D070E038D1CE01DF91CF911F910F91089526
S11311E0CF93DF938230910510F482E090E0E09198
S11311F0C402F091C50220E030E0A0E0B0E03097F6
S113120039F14081518148175907B8F048175907F7
S113121071F482819381109729F013969C938E9395
S113122012972CC09093C5028093C40227C0211545
S1131230310531F04217530718F0A901DB0101C051
S1131240EF019A01BD01DF010280F381E02DD7CFC8
S113125021153105F9F0281B390B2430310580F4B0
S11312608A819B816115710521F0FB01938382833F
S113127004C09093C5028093C402FE01329644C018
S1131280FE01E20FF31F81939193225031093983B8
S113129028833AC02091C2023091C302232B41F427
S11312A020910202309103023093C3022093C202C0
S11312B020910002309101022115310541F42DB72E
S11312C03EB74091040250910502241B350BE09176
S11312D0C202F091C302E217F307A0F42E1B3F0BE6
S11312E02817390778F0AC014E5F5F4F2417350794
S11312F048F04E0F5F1F5093C3024093C202819384
S1131300919302C0E0E0F0E0CF01DF91CF91089526
S1131310CF93DF93009709F487C0FC0132971382BF
S11313201282C091C402D091C502209781F4208119
S11313303181280F391F8091C2029091C302821714
S1131340930779F5F093C302E093C2026DC0DE0106
S113135020E030E0AE17BF0750F412964D915C9137
S113136013979D014115510509F1DA01F3CFB383B8
S1131370A28340815181840F951F8A179B0771F4C2
S11313808D919C911197840F951F02969183808370
S113139012968D919C911397938382832115310525
S11313A029F4F093C502E093C4023EC0D901139618
S11313B0FC93EE9312974D915D91A40FB51FEA171C
S11313C0FB0779F480819181840F951F0296D901DE
S11313D011969C938E938281938113969C938E9302
S11313E01297E0E0F0E08A819B81009719F0FE01FA
S11313F0EC01F9CFCE01029628813981820F931F27
S11314002091C2023091C3022817390769F430973A
S113141029F41092C5021092C40202C013821282EF
S1131420D093C302C093C202DF91CF910895FC010F
S11314300590615070400110D8F7809590958E0FFB
S11314409F1F0895DC0101C06D9341505040E0F7A7
S11314500895FC016150704001900110D8F7809507
S113146090958E0F9F1F08950F931F93CF93DF9333
S1131470182F092FEB018B8181FD03C08FEF9FEFA4
S113148020C082FF10C04E815F812C813D814217B4
S113149053077CF4E881F9819F012F5F3F4F398323
S11314A02883108306C0E885F985812F1995892B37
S11314B029F72E813F812F5F3F4F3F832E83812F5A
S11314C0902FDF91CF911F910F910895FA01AA27D0
S11314D0283051F1203181F1E8946F936E7F6E5F73
S11314E07F4F8F4F9F4FAF4FB1E03ED0B4E03CD021
S11314F0670F781F891F9A1FA11D680F791F8A1F04
S1131500911DA11D6A0F711D811D911DA11D20D06A
S113151009F468943F912AE0269F11243019305D24
S11315203193DEF6CF010895462F4770405D419315
S1131530B3E00FD0C9F7F6CF462F4F70405D4A3362
S113154018F0495D31FD4052419302D0A9F7EACF2A
S1131550B4E0A6959795879577956795BA95C9F759
S113156000976105710508959B01AC010A2E06944C
S11315705795479537952795BA95C9F7620F731F05
S10F1580841F951FA01D0895F894FFCF50
S113158C0000C60220000700F8783A20256409738D
S113159C706565643A2025640A0057524F4E472003
S11315AC4944004552524F523A204D435032353142
S11315BC35206973204E4F5420696E20636F6E661C
S11315CC6967206D6F64652061667465722072654D
S11315DC7365742100497220626C6F636B65643AA5
S11315EC2025640909456E636F6465723A2025648D
S11315FC0A004552524F523A2070776D5F6A6F79E8
S113160C737469636B5F70756C736520696E707548
S113161C742076616C203D202564206F7574206FD6
S10D162C662072616E6765210A00F2
S9030000FC
